{
  "_format": "hh3-artifact-1",
  "contractName": "Collectible",
  "sourceName": "contracts/Collectible.sol",
  "abi": [
    {
      "inputs": [
        {
          "internalType": "string",
          "name": "name",
          "type": "string"
        },
        {
          "internalType": "string",
          "name": "symbol",
          "type": "string"
        },
        {
          "internalType": "string",
          "name": "baseTokenURI",
          "type": "string"
        },
        {
          "internalType": "address",
          "name": "initialSigner",
          "type": "address"
        },
        {
          "internalType": "address",
          "name": "initialOwner",
          "type": "address"
        }
      ],
      "stateMutability": "nonpayable",
      "type": "constructor"
    },
    {
      "inputs": [],
      "name": "DeadlineExpired",
      "type": "error"
    },
    {
      "inputs": [],
      "name": "ECDSAInvalidSignature",
      "type": "error"
    },
    {
      "inputs": [
        {
          "internalType": "uint256",
          "name": "length",
          "type": "uint256"
        }
      ],
      "name": "ECDSAInvalidSignatureLength",
      "type": "error"
    },
    {
      "inputs": [
        {
          "internalType": "bytes32",
          "name": "s",
          "type": "bytes32"
        }
      ],
      "name": "ECDSAInvalidSignatureS",
      "type": "error"
    },
    {
      "inputs": [
        {
          "internalType": "address",
          "name": "sender",
          "type": "address"
        },
        {
          "internalType": "uint256",
          "name": "tokenId",
          "type": "uint256"
        },
        {
          "internalType": "address",
          "name": "owner",
          "type": "address"
        }
      ],
      "name": "ERC721IncorrectOwner",
      "type": "error"
    },
    {
      "inputs": [
        {
          "internalType": "address",
          "name": "operator",
          "type": "address"
        },
        {
          "internalType": "uint256",
          "name": "tokenId",
          "type": "uint256"
        }
      ],
      "name": "ERC721InsufficientApproval",
      "type": "error"
    },
    {
      "inputs": [
        {
          "internalType": "address",
          "name": "approver",
          "type": "address"
        }
      ],
      "name": "ERC721InvalidApprover",
      "type": "error"
    },
    {
      "inputs": [
        {
          "internalType": "address",
          "name": "operator",
          "type": "address"
        }
      ],
      "name": "ERC721InvalidOperator",
      "type": "error"
    },
    {
      "inputs": [
        {
          "internalType": "address",
          "name": "owner",
          "type": "address"
        }
      ],
      "name": "ERC721InvalidOwner",
      "type": "error"
    },
    {
      "inputs": [
        {
          "internalType": "address",
          "name": "receiver",
          "type": "address"
        }
      ],
      "name": "ERC721InvalidReceiver",
      "type": "error"
    },
    {
      "inputs": [
        {
          "internalType": "address",
          "name": "sender",
          "type": "address"
        }
      ],
      "name": "ERC721InvalidSender",
      "type": "error"
    },
    {
      "inputs": [
        {
          "internalType": "uint256",
          "name": "tokenId",
          "type": "uint256"
        }
      ],
      "name": "ERC721NonexistentToken",
      "type": "error"
    },
    {
      "inputs": [],
      "name": "InvalidShortString",
      "type": "error"
    },
    {
      "inputs": [],
      "name": "InvalidSignature",
      "type": "error"
    },
    {
      "inputs": [],
      "name": "NonceAlreadyUsed",
      "type": "error"
    },
    {
      "inputs": [
        {
          "internalType": "address",
          "name": "owner",
          "type": "address"
        }
      ],
      "name": "OwnableInvalidOwner",
      "type": "error"
    },
    {
      "inputs": [
        {
          "internalType": "address",
          "name": "account",
          "type": "address"
        }
      ],
      "name": "OwnableUnauthorizedAccount",
      "type": "error"
    },
    {
      "inputs": [
        {
          "internalType": "string",
          "name": "str",
          "type": "string"
        }
      ],
      "name": "StringTooLong",
      "type": "error"
    },
    {
      "inputs": [],
      "name": "ZeroAddress",
      "type": "error"
    },
    {
      "anonymous": false,
      "inputs": [
        {
          "indexed": true,
          "internalType": "address",
          "name": "owner",
          "type": "address"
        },
        {
          "indexed": true,
          "internalType": "address",
          "name": "approved",
          "type": "address"
        },
        {
          "indexed": true,
          "internalType": "uint256",
          "name": "tokenId",
          "type": "uint256"
        }
      ],
      "name": "Approval",
      "type": "event"
    },
    {
      "anonymous": false,
      "inputs": [
        {
          "indexed": true,
          "internalType": "address",
          "name": "owner",
          "type": "address"
        },
        {
          "indexed": true,
          "internalType": "address",
          "name": "operator",
          "type": "address"
        },
        {
          "indexed": false,
          "internalType": "bool",
          "name": "approved",
          "type": "bool"
        }
      ],
      "name": "ApprovalForAll",
      "type": "event"
    },
    {
      "anonymous": false,
      "inputs": [],
      "name": "EIP712DomainChanged",
      "type": "event"
    },
    {
      "anonymous": false,
      "inputs": [
        {
          "indexed": true,
          "internalType": "address",
          "name": "to",
          "type": "address"
        },
        {
          "indexed": true,
          "internalType": "uint256",
          "name": "tokenId",
          "type": "uint256"
        },
        {
          "indexed": false,
          "internalType": "uint256",
          "name": "nonce",
          "type": "uint256"
        }
      ],
      "name": "Minted",
      "type": "event"
    },
    {
      "anonymous": false,
      "inputs": [
        {
          "indexed": true,
          "internalType": "address",
          "name": "previousOwner",
          "type": "address"
        },
        {
          "indexed": true,
          "internalType": "address",
          "name": "newOwner",
          "type": "address"
        }
      ],
      "name": "OwnershipTransferred",
      "type": "event"
    },
    {
      "anonymous": false,
      "inputs": [
        {
          "indexed": true,
          "internalType": "address",
          "name": "oldSigner",
          "type": "address"
        },
        {
          "indexed": true,
          "internalType": "address",
          "name": "newSigner",
          "type": "address"
        }
      ],
      "name": "SignerUpdated",
      "type": "event"
    },
    {
      "anonymous": false,
      "inputs": [
        {
          "indexed": true,
          "internalType": "address",
          "name": "from",
          "type": "address"
        },
        {
          "indexed": true,
          "internalType": "address",
          "name": "to",
          "type": "address"
        },
        {
          "indexed": true,
          "internalType": "uint256",
          "name": "tokenId",
          "type": "uint256"
        }
      ],
      "name": "Transfer",
      "type": "event"
    },
    {
      "inputs": [],
      "name": "DOMAIN_SEPARATOR",
      "outputs": [
        {
          "internalType": "bytes32",
          "name": "",
          "type": "bytes32"
        }
      ],
      "stateMutability": "view",
      "type": "function"
    },
    {
      "inputs": [],
      "name": "MINT_TYPEHASH",
      "outputs": [
        {
          "internalType": "bytes32",
          "name": "",
          "type": "bytes32"
        }
      ],
      "stateMutability": "view",
      "type": "function"
    },
    {
      "inputs": [
        {
          "internalType": "address",
          "name": "to",
          "type": "address"
        },
        {
          "internalType": "uint256",
          "name": "tokenId",
          "type": "uint256"
        }
      ],
      "name": "approve",
      "outputs": [],
      "stateMutability": "nonpayable",
      "type": "function"
    },
    {
      "inputs": [
        {
          "internalType": "address",
          "name": "owner",
          "type": "address"
        }
      ],
      "name": "balanceOf",
      "outputs": [
        {
          "internalType": "uint256",
          "name": "",
          "type": "uint256"
        }
      ],
      "stateMutability": "view",
      "type": "function"
    },
    {
      "inputs": [],
      "name": "eip712Domain",
      "outputs": [
        {
          "internalType": "bytes1",
          "name": "fields",
          "type": "bytes1"
        },
        {
          "internalType": "string",
          "name": "name",
          "type": "string"
        },
        {
          "internalType": "string",
          "name": "version",
          "type": "string"
        },
        {
          "internalType": "uint256",
          "name": "chainId",
          "type": "uint256"
        },
        {
          "internalType": "address",
          "name": "verifyingContract",
          "type": "address"
        },
        {
          "internalType": "bytes32",
          "name": "salt",
          "type": "bytes32"
        },
        {
          "internalType": "uint256[]",
          "name": "extensions",
          "type": "uint256[]"
        }
      ],
      "stateMutability": "view",
      "type": "function"
    },
    {
      "inputs": [
        {
          "internalType": "uint256",
          "name": "tokenId",
          "type": "uint256"
        }
      ],
      "name": "getApproved",
      "outputs": [
        {
          "internalType": "address",
          "name": "",
          "type": "address"
        }
      ],
      "stateMutability": "view",
      "type": "function"
    },
    {
      "inputs": [
        {
          "internalType": "address",
          "name": "owner",
          "type": "address"
        },
        {
          "internalType": "address",
          "name": "operator",
          "type": "address"
        }
      ],
      "name": "isApprovedForAll",
      "outputs": [
        {
          "internalType": "bool",
          "name": "",
          "type": "bool"
        }
      ],
      "stateMutability": "view",
      "type": "function"
    },
    {
      "inputs": [
        {
          "internalType": "address",
          "name": "to",
          "type": "address"
        },
        {
          "internalType": "uint256",
          "name": "tokenId",
          "type": "uint256"
        },
        {
          "internalType": "uint256",
          "name": "nonce",
          "type": "uint256"
        },
        {
          "internalType": "uint256",
          "name": "deadline",
          "type": "uint256"
        },
        {
          "internalType": "bytes",
          "name": "signature",
          "type": "bytes"
        }
      ],
      "name": "mint",
      "outputs": [],
      "stateMutability": "nonpayable",
      "type": "function"
    },
    {
      "inputs": [],
      "name": "name",
      "outputs": [
        {
          "internalType": "string",
          "name": "",
          "type": "string"
        }
      ],
      "stateMutability": "view",
      "type": "function"
    },
    {
      "inputs": [],
      "name": "owner",
      "outputs": [
        {
          "internalType": "address",
          "name": "",
          "type": "address"
        }
      ],
      "stateMutability": "view",
      "type": "function"
    },
    {
      "inputs": [
        {
          "internalType": "uint256",
          "name": "tokenId",
          "type": "uint256"
        }
      ],
      "name": "ownerOf",
      "outputs": [
        {
          "internalType": "address",
          "name": "",
          "type": "address"
        }
      ],
      "stateMutability": "view",
      "type": "function"
    },
    {
      "inputs": [],
      "name": "renounceOwnership",
      "outputs": [],
      "stateMutability": "nonpayable",
      "type": "function"
    },
    {
      "inputs": [
        {
          "internalType": "address",
          "name": "from",
          "type": "address"
        },
        {
          "internalType": "address",
          "name": "to",
          "type": "address"
        },
        {
          "internalType": "uint256",
          "name": "tokenId",
          "type": "uint256"
        }
      ],
      "name": "safeTransferFrom",
      "outputs": [],
      "stateMutability": "nonpayable",
      "type": "function"
    },
    {
      "inputs": [
        {
          "internalType": "address",
          "name": "from",
          "type": "address"
        },
        {
          "internalType": "address",
          "name": "to",
          "type": "address"
        },
        {
          "internalType": "uint256",
          "name": "tokenId",
          "type": "uint256"
        },
        {
          "internalType": "bytes",
          "name": "data",
          "type": "bytes"
        }
      ],
      "name": "safeTransferFrom",
      "outputs": [],
      "stateMutability": "nonpayable",
      "type": "function"
    },
    {
      "inputs": [
        {
          "internalType": "address",
          "name": "operator",
          "type": "address"
        },
        {
          "internalType": "bool",
          "name": "approved",
          "type": "bool"
        }
      ],
      "name": "setApprovalForAll",
      "outputs": [],
      "stateMutability": "nonpayable",
      "type": "function"
    },
    {
      "inputs": [
        {
          "internalType": "string",
          "name": "baseTokenURI",
          "type": "string"
        }
      ],
      "name": "setBaseURI",
      "outputs": [],
      "stateMutability": "nonpayable",
      "type": "function"
    },
    {
      "inputs": [
        {
          "internalType": "address",
          "name": "newSigner",
          "type": "address"
        }
      ],
      "name": "setSigner",
      "outputs": [],
      "stateMutability": "nonpayable",
      "type": "function"
    },
    {
      "inputs": [],
      "name": "signer",
      "outputs": [
        {
          "internalType": "address",
          "name": "",
          "type": "address"
        }
      ],
      "stateMutability": "view",
      "type": "function"
    },
    {
      "inputs": [
        {
          "internalType": "bytes4",
          "name": "interfaceId",
          "type": "bytes4"
        }
      ],
      "name": "supportsInterface",
      "outputs": [
        {
          "internalType": "bool",
          "name": "",
          "type": "bool"
        }
      ],
      "stateMutability": "view",
      "type": "function"
    },
    {
      "inputs": [],
      "name": "symbol",
      "outputs": [
        {
          "internalType": "string",
          "name": "",
          "type": "string"
        }
      ],
      "stateMutability": "view",
      "type": "function"
    },
    {
      "inputs": [
        {
          "internalType": "uint256",
          "name": "tokenId",
          "type": "uint256"
        }
      ],
      "name": "tokenURI",
      "outputs": [
        {
          "internalType": "string",
          "name": "",
          "type": "string"
        }
      ],
      "stateMutability": "view",
      "type": "function"
    },
    {
      "inputs": [
        {
          "internalType": "address",
          "name": "from",
          "type": "address"
        },
        {
          "internalType": "address",
          "name": "to",
          "type": "address"
        },
        {
          "internalType": "uint256",
          "name": "tokenId",
          "type": "uint256"
        }
      ],
      "name": "transferFrom",
      "outputs": [],
      "stateMutability": "nonpayable",
      "type": "function"
    },
    {
      "inputs": [
        {
          "internalType": "address",
          "name": "newOwner",
          "type": "address"
        }
      ],
      "name": "transferOwnership",
      "outputs": [],
      "stateMutability": "nonpayable",
      "type": "function"
    },
    {
      "inputs": [
        {
          "internalType": "uint256",
          "name": "",
          "type": "uint256"
        }
      ],
      "name": "usedNonces",
      "outputs": [
        {
          "internalType": "bool",
          "name": "",
          "type": "bool"
        }
      ],
      "stateMutability": "view",
      "type": "function"
    }
  ],
  "bytecode": "0x6101608060405234610616576122f6803803809161001d828561061a565b8339810160a0828203126106165781516001600160401b038111610616578161004791840161063d565b60208301519092906001600160401b038111610616578261006991830161063d565b604082015190926001600160401b0382116106165761008991830161063d565b926100a2608061009b60608501610692565b9301610692565b906040938451916100b3868461061a565b60018352603160f81b6020840190815281519092906001600160401b03811161041f575f54600181811c9116801561060c575b602082101461040157601f81116105aa575b50806020601f8211600114610549575f9161053e575b508160011b915f199060031b1c1916175f555b8051906001600160401b03821161041f5760015490600182811c92168015610534575b60208310146104015781601f8493116104c6575b50602090601f8311600114610460575f92610455575b50508160011b915f199060031b1c1916176001555b61018c816106a6565b610120526101998361082d565b6101405260208151910120918260e05251902080610100524660a05284519060208201927f8b73c3c69bb8fe3d512ecc4cf759cc79239f7b179b0ffacaa9a75d522b39400f84528683015260608201524660808201523060a082015260a0815261020460c08261061a565b5190206080523060c0526001600160a01b0316801561044257600880546001600160a01b0319811683179091556001600160a01b03167f8be0079c531659141344cd1fd0a4f28419497f9722a3daafe3b4186f6b6457e05f80a36001600160a01b0316801561043357600980546001600160a01b03191691909117905581516001600160401b03811161041f57600b54600181811c91168015610415575b602082101461040157601f811161039e575b50602092601f821160011461033d57928192935f92610332575b50508160011b915f199060031b1c191617600b555b516119909081610966823960805181611525015260a051816115e2015260c051816114ef015260e051816115740152610100518161159a01526101205181610aa401526101405181610acd0152f35b015190505f806102ce565b601f19821693600b5f52805f20915f5b868110610386575083600195961061036e575b505050811b01600b556102e3565b01515f1960f88460031b161c191690555f8080610360565b9192602060018192868501518155019401920161034d565b600b5f527f0175b7a638427703f0dbe7bb9bbf987a2551717b34e79f33b5b1008d1fa01db9601f830160051c810191602084106103f7575b601f0160051c01905b8181106103ec57506102b4565b5f81556001016103df565b90915081906103d6565b634e487b7160e01b5f52602260045260245ffd5b90607f16906102a2565b634e487b7160e01b5f52604160045260245ffd5b63d92e233d60e01b5f5260045ffd5b631e4fbdf760e01b5f525f60045260245ffd5b015190505f8061016e565b60015f9081528281209350601f198516905b8181106104ae5750908460019594939210610496575b505050811b01600155610183565b01515f1960f88460031b161c191690555f8080610488565b92936020600181928786015181550195019301610472565b60015f529091507fb10e2d527612073b26eecdfd717e6a320cf44b4afac2b0732d9fcbe2b7fa0cf6601f840160051c8101916020851061052a575b90601f859493920160051c01905b81811061051c5750610158565b5f815584935060010161050f565b9091508190610501565b91607f1691610144565b90508301515f61010e565b5f8080528181209250601f198416905b8181106105925750908360019493921061057a575b5050811b015f55610121565b8501515f1960f88460031b161c191690555f8061056e565b9192602060018192868a015181550194019201610559565b5f80527f290decd9548b62a8d60345a988386fc84ba6bc95484008f6362f93160ef3e563601f830160051c81019160208410610602575b601f0160051c01905b8181106105f757506100f8565b5f81556001016105ea565b90915081906105e1565b90607f16906100e6565b5f80fd5b601f909101601f19168101906001600160401b0382119082101761041f57604052565b81601f82011215610616578051906001600160401b03821161041f5760405192610671601f8401601f19166020018561061a565b8284526020838301011161061657815f9260208093018386015e8301015290565b51906001600160a01b038216820361061657565b908151602081105f14610720575090601f8151116106e05760208151910151602082106106d1571790565b5f198260200360031b1b161790565b604460209160405192839163305a27a960e01b83528160048401528051918291826024860152018484015e5f828201840152601f01601f19168101030190fd5b6001600160401b03811161041f57600654600181811c91168015610823575b602082101461040157601f81116107f0575b50602092601f821160011461078f57928192935f92610784575b50508160011b915f199060031b1c19161760065560ff90565b015190505f8061076b565b601f1982169360065f52805f20915f5b8681106107d857508360019596106107c0575b505050811b0160065560ff90565b01515f1960f88460031b161c191690555f80806107b2565b9192602060018192868501518155019401920161079f565b60065f52601f60205f20910160051c810190601f830160051c015b8181106108185750610751565b5f815560010161080b565b90607f169061073f565b908151602081105f14610858575090601f8151116106e05760208151910151602082106106d1571790565b6001600160401b03811161041f57600754600181811c9116801561095b575b602082101461040157601f8111610928575b50602092601f82116001146108c757928192935f926108bc575b50508160011b915f199060031b1c19161760075560ff90565b015190505f806108a3565b601f1982169360075f52805f20915f5b86811061091057508360019596106108f8575b505050811b0160075560ff90565b01515f1960f88460031b161c191690555f80806108ea565b919260206001819286850151815501940192016108d7565b60075f52601f60205f20910160051c810190601f830160051c015b8181106109505750610889565b5f8155600101610943565b90607f169061087756fe6080806040526004361015610012575f80fd5b5f3560e01c90816301ffc9a7146110db5750806306fdde0314611039578063081812fc14610ffd578063095ea7b314610f13578063238ac93314610eeb57806323b872dd14610ed45780633644e51514610eb257806342842e0e14610e8357806355f804b314610d115780636352211e14610ce15780636717e41c14610cb25780636c19e78314610c3057806370a0823114610bdf578063715018a614610b8457806384b0196e14610a8c5780638da5cb5b14610a6457806395d89b411461099a578063a22cb465146108ff578063b49c99b814610555578063b88d4fde146104e7578063c87b56dd1461023f578063e985e9c5146101e8578063f2fde38b146101625763f76fc35e14610124575f80fd5b3461015e575f36600319011261015e5760206040517fccb1b10875d7565c407fea9ca0dd7894bdf07e49c8639cbe247bd2cd6276ca338152f35b5f80fd5b3461015e57602036600319011261015e5761017b61116a565b610183611608565b6001600160a01b031680156101d557600880546001600160a01b0319811683179091556001600160a01b03167f8be0079c531659141344cd1fd0a4f28419497f9722a3daafe3b4186f6b6457e05f80a3005b631e4fbdf760e01b5f525f60045260245ffd5b3461015e57604036600319011261015e5761020161116a565b610209611180565b9060018060a01b03165f52600560205260405f209060018060a01b03165f52602052602060ff60405f2054166040519015158152f35b3461015e57602036600319011261015e5760043561025c816114b8565b50604051600b5490915f8361027084611272565b9182825260208201946001811690815f146104cb575060011461047f575b61029a925003846111fe565b825115610463578092815f9272184f03e93ff9f4daa797ed6e38ed64bf6a1f0160401b81101561043d575b50806d04ee2d6d415b85acef8100000000600a921015610422575b662386f26fc1000081101561040e575b6305f5e1008110156103fd575b6127108110156103ee575b60648110156103e0575b10156103d6575b6001820193600a602161034461032e88611220565b9761033c604051998a6111fe565b808952611220565b602088019590601f19013687378701015b5f1901916f181899199a1a9b1b9c1cb0b131b232b360811b8282061a83530490811561038357600a90610355565b505060206103be926103d2956040519586945180918587015e840190838201905f8252519283915e01015f815203601f1981018352826111fe565b604051918291602083526020830190611146565b0390f35b9060010190610319565b606460029104930192610312565b61271060049104930192610308565b6305f5e100600891049301926102fd565b662386f26fc10000601091049301926102f0565b6d04ee2d6d415b85acef8100000000602091049301926102e0565b6040935072184f03e93ff9f4daa797ed6e38ed64bf6a1f0160401b90049050600a6102c5565b5050506103d26040516104776020826111fe565b5f81526103be565b50600b5f90815290915f51602061193b5f395f51905f525b8183106104af57505090602061029a9282010161028e565b6020919350806001915483858a01015201910190918592610497565b60ff191686525061029a92151560051b8201602001905061028e565b3461015e57608036600319011261015e5761050061116a565b610508611180565b906044356064359267ffffffffffffffff841161015e573660238501121561015e5761054161055394369060248160040135910161123c565b9261054d83838361132b565b3361162f565b005b3461015e5760a036600319011261015e5761056e61116a565b602435906064359060443560843567ffffffffffffffff811161015e576105999036906004016111d0565b908442116108f057825f52600c60205260ff60405f2054166108e2576106579161064861064e92604260405160208101907fccb1b10875d7565c407fea9ca0dd7894bdf07e49c8639cbe247bd2cd6276ca33825260018060a01b038a169a8b60408301528c606083015289608083015260a082015260a0815261061d60c0826111fe565b5190206106286114ec565b906040519161190160f01b8352600283015260228201522092369161123c565b906117ff565b90929192611839565b6009546001600160a01b039081169116036108d357805f52600c60205260405f20600160ff198254161790556020916040519061069484836111fe565b5f825284156108c0575f8681526002855260409020546001600160a01b0316801515908161088f575b865f526003865260405f2060018154019055875f526002865260405f20876bffffffffffffffffffffffff60a01b8254161790558787827fddf252ad1be2c89b69c2b068fc378daa952ba7f163c4a11628f55a4df523b3ef5f80a45061087c573b610750575b50907f25b428dfde728ccfaddad7e29e4ac23c24ed7fd1a6e3e3f91894a9a073f5dfff91604051908152a3005b826107899160405180938192630a85bd0160e11b83523360048401525f6024840152896044840152608060648401526084830190611146565b03815f885af15f918161083c575b506107ec5750503d156107e4573d906107af82611220565b916107bd60405193846111fe565b82523d5f8284013e5b815191826107e15783633250574960e11b5f5260045260245ffd5b01fd5b6060906107c6565b6001600160e01b03191663757a42ff60e11b01610829577f25b428dfde728ccfaddad7e29e4ac23c24ed7fd1a6e3e3f91894a9a073f5dfff610723565b82633250574960e11b5f5260045260245ffd5b9091508381813d8311610875575b61085481836111fe565b8101031261015e57516001600160e01b03198116810361015e579086610797565b503d61084a565b6339e3563760e11b5f525f60045260245ffd5b5f8881526004602052604080822080546001600160a01b031916905582825260038852902080545f190190556106bd565b633250574960e11b5f525f60045260245ffd5b638baa579f60e01b5f5260045ffd5b623f613760e71b5f5260045ffd5b631ab7da6b60e01b5f5260045ffd5b3461015e57604036600319011261015e5761091861116a565b6024359081151580920361015e576001600160a01b031690811561098757335f52600560205260405f20825f5260205260405f2060ff1981541660ff83161790556040519081527f17307eab39ab6107e8899845ad3d59bd9653f200f220920489ca2b5937696c3160203392a3005b50630b61174360e31b5f5260045260245ffd5b3461015e575f36600319011261015e576040515f6001546109ba81611272565b8084529060018116908115610a4057506001146109e2575b6103d2836103be818503826111fe565b60015f9081527fb10e2d527612073b26eecdfd717e6a320cf44b4afac2b0732d9fcbe2b7fa0cf6939250905b808210610a26575090915081016020016103be6109d2565b919260018160209254838588010152019101909291610a0e565b60ff191660208086019190915291151560051b840190910191506103be90506109d2565b3461015e575f36600319011261015e576008546040516001600160a01b039091168152602090f35b3461015e575f36600319011261015e57610b28610ac87f0000000000000000000000000000000000000000000000000000000000000000611765565b610af17f00000000000000000000000000000000000000000000000000000000000000006117c8565b6020610b3660405192610b0483856111fe565b5f84525f368137604051958695600f60f81b875260e08588015260e0870190611146565b908582036040870152611146565b4660608501523060808501525f60a085015283810360c08501528180845192838152019301915f5b828110610b6d57505050500390f35b835185528695509381019392810192600101610b5e565b3461015e575f36600319011261015e57610b9c611608565b600880546001600160a01b031981169091555f906001600160a01b03167f8be0079c531659141344cd1fd0a4f28419497f9722a3daafe3b4186f6b6457e08280a3005b3461015e57602036600319011261015e576001600160a01b03610c0061116a565b168015610c1d575f526003602052602060405f2054604051908152f35b6322718ad960e21b5f525f60045260245ffd5b3461015e57602036600319011261015e57610c4961116a565b610c51611608565b6001600160a01b03168015610ca357600980546001600160a01b0319811683179091556001600160a01b03167f2d025324f0a785e8c12d0a0d91a9caa49df4ef20ff87e0df7213a1d4f3157beb5f80a3005b63d92e233d60e01b5f5260045ffd5b3461015e57602036600319011261015e576004355f52600c602052602060ff60405f2054166040519015158152f35b3461015e57602036600319011261015e576020610cff6004356114b8565b6040516001600160a01b039091168152f35b3461015e57602036600319011261015e5760043567ffffffffffffffff811161015e57610d429036906004016111d0565b610d4a611608565b67ffffffffffffffff8111610e6f57610d64600b54611272565b601f8111610e0b575b505f601f8211600114610da65781925f92610d9b575b50505f19600383901b1c191660019190911b17600b55005b013590508280610d83565b601f198216925f51602061193b5f395f51905f52915f5b858110610df357508360019510610dda575b505050811b01600b55005b01355f19600384901b60f8161c19169055828080610dcf565b90926020600181928686013581550194019101610dbd565b601f820160051c5f51602061193b5f395f51905f52019060208310610e5a575b601f0160051c5f51602061193b5f395f51905f5201905b818110610e4f5750610d6d565b5f8155600101610e42565b5f51602061193b5f395f51905f529150610e2b565b634e487b7160e01b5f52604160045260245ffd5b3461015e57610553610e9436611196565b9060405192610ea46020856111fe565b5f845261054d83838361132b565b3461015e575f36600319011261015e576020610ecc6114ec565b604051908152f35b3461015e57610553610ee536611196565b9161132b565b3461015e575f36600319011261015e576009546040516001600160a01b039091168152602090f35b3461015e57604036600319011261015e57610f2c61116a565b602435610f38816114b8565b33151580610fea575b80610fbd575b610faa5781906001600160a01b0384811691167f8c5be1e5ebec7d5bd14f71427d1e84f3dd0314c0f7b2291e5b200ac8c7c3b9255f80a45f90815260046020526040902080546001600160a01b0319166001600160a01b03909216919091179055005b63a9fbf51f60e01b5f523360045260245ffd5b506001600160a01b0381165f90815260056020908152604080832033845290915290205460ff1615610f47565b506001600160a01b038116331415610f41565b3461015e57602036600319011261015e5760043561101a816114b8565b505f526004602052602060018060a01b0360405f205416604051908152f35b3461015e575f36600319011261015e576040515f5f5461105881611272565b8084529060018116908115610a40575060011461107f576103d2836103be818503826111fe565b5f8080527f290decd9548b62a8d60345a988386fc84ba6bc95484008f6362f93160ef3e563939250905b8082106110c1575090915081016020016103be6109d2565b9192600181602092548385880101520191019092916110a9565b3461015e57602036600319011261015e576004359063ffffffff60e01b821680920361015e576020916380ac58cd60e01b8114908115611135575b8115611124575b5015158152f35b6301ffc9a760e01b1490508361111d565b635b5e139f60e01b81149150611116565b805180835260209291819084018484015e5f828201840152601f01601f1916010190565b600435906001600160a01b038216820361015e57565b602435906001600160a01b038216820361015e57565b606090600319011261015e576004356001600160a01b038116810361015e57906024356001600160a01b038116810361015e579060443590565b9181601f8401121561015e5782359167ffffffffffffffff831161015e576020838186019501011161015e57565b90601f8019910116810190811067ffffffffffffffff821117610e6f57604052565b67ffffffffffffffff8111610e6f57601f01601f191660200190565b92919261124882611220565b9161125660405193846111fe565b82948184528183011161015e578281602093845f960137010152565b90600182811c921680156112a0575b602083101461128c57565b634e487b7160e01b5f52602260045260245ffd5b91607f1691611281565b5f92918154916112b983611272565b808352926001811690811561130e57506001146112d557505050565b5f9081526020812093945091925b8383106112f4575060209250010190565b6001816020929493945483858701015201910191906112e3565b915050602093945060ff929192191683830152151560051b010190565b6001600160a01b03909116919082156108c0575f828152600260205260409020546001600160a01b031692829033151580611423575b50846113f0575b805f52600360205260405f2060018154019055815f52600260205260405f20816bffffffffffffffffffffffff60a01b825416179055847fddf252ad1be2c89b69c2b068fc378daa952ba7f163c4a11628f55a4df523b3ef5f80a46001600160a01b03168083036113d857505050565b6364283d7b60e01b5f5260045260245260445260645ffd5b5f82815260046020526040902080546001600160a01b0319169055845f52600360205260405f205f198154019055611368565b90915080611467575b156114395782905f611361565b828461145157637e27328960e01b5f5260045260245ffd5b63177e802f60e01b5f523360045260245260445ffd5b503384148015611496575b8061142c57505f838152600460205260409020546001600160a01b0316331461142c565b505f84815260056020908152604080832033845290915290205460ff16611472565b5f818152600260205260409020546001600160a01b03169081156114da575090565b637e27328960e01b5f5260045260245ffd5b307f00000000000000000000000000000000000000000000000000000000000000006001600160a01b031614806115df575b15611547577f000000000000000000000000000000000000000000000000000000000000000090565b60405160208101907f8b73c3c69bb8fe3d512ecc4cf759cc79239f7b179b0ffacaa9a75d522b39400f82527f000000000000000000000000000000000000000000000000000000000000000060408201527f000000000000000000000000000000000000000000000000000000000000000060608201524660808201523060a082015260a081526115d960c0826111fe565b51902090565b507f0000000000000000000000000000000000000000000000000000000000000000461461151e565b6008546001600160a01b0316330361161c57565b63118cdaa760e01b5f523360045260245ffd5b823b61163d575b5050505050565b604051630a85bd0160e11b81526001600160a01b039182166004820152918116602483015260448201939093526080606482015291169160209082908190611689906084830190611146565b03815f865af15f9181611720575b506116ec57503d156116e5573d6116ad81611220565b906116bb60405192836111fe565b81523d5f602083013e5b805190816116e05782633250574960e11b5f5260045260245ffd5b602001fd5b60606116c5565b6001600160e01b03191663757a42ff60e11b0161170e57505f80808080611636565b633250574960e11b5f5260045260245ffd5b9091506020813d60201161175d575b8161173c602093836111fe565b8101031261015e57516001600160e01b03198116810361015e57905f611697565b3d915061172f565b60ff81146117ab5760ff811690601f821161179c57604051916117896040846111fe565b6020808452838101919036833783525290565b632cd44ac360e21b5f5260045ffd5b506040516117c5816117be8160066112aa565b03826111fe565b90565b60ff81146117ec5760ff811690601f821161179c57604051916117896040846111fe565b506040516117c5816117be8160076112aa565b815191906041830361182f576118289250602082015190606060408401519301515f1a906118ad565b9192909190565b50505f9160029190565b6004811015611899578061184b575050565b600181036118625763f645eedf60e01b5f5260045ffd5b6002810361187d575063fce698f760e01b5f5260045260245ffd5b6003146118875750565b6335e2f38360e21b5f5260045260245ffd5b634e487b7160e01b5f52602160045260245ffd5b91907f7fffffffffffffffffffffffffffffff5d576e7357a4501ddfe92f46681b20a0841161192f579160209360809260ff5f9560405194855216868401526040830152606082015282805260015afa15611924575f516001600160a01b0381161561191a57905f905f90565b505f906001905f90565b6040513d5f823e3d90fd5b5050505f916003919056fe0175b7a638427703f0dbe7bb9bbf987a2551717b34e79f33b5b1008d1fa01db9a2646970667358221220bca12a881ff40896f7f11e9af6e90cd62de85ac1ce6d653d5d97e2edf854a77d64736f6c634300081c0033",
  "linkReferences": {},
  "deployedLinkReferences": {},
  "immutableReferences": {
    "3700": [
      {
        "length": 32,
        "start": 5413
      }
    ],
    "3702": [
      {
        "length": 32,
        "start": 5602
      }
    ],
    "3704": [
      {
        "length": 32,
        "start": 5359
      }
    ],
    "3706": [
      {
        "length": 32,
        "start": 5492
      }
    ],
    "3708": [
      {
        "length": 32,
        "start": 5530
      }
    ],
    "3711": [
      {
        "length": 32,
        "start": 2724
      }
    ],
    "3714": [
      {
        "length": 32,
        "start": 2765
      }
    ]
  },
  "inputSourceName": "project/contracts/Collectible.sol",
  "buildInfoId": "solc-0_8_28-09671526b9b8e87cfbc1205d0cf168da9258da85"
}