{
  "_format": "hh3-artifact-1",
  "contractName": "NFTSwap",
  "sourceName": "contracts/NFTSwap.sol",
  "abi": [
    {
      "inputs": [
        {
          "internalType": "address",
          "name": "initialOwner",
          "type": "address"
        },
        {
          "internalType": "address",
          "name": "initialFeeRecipient",
          "type": "address"
        },
        {
          "internalType": "uint256",
          "name": "initialFee",
          "type": "uint256"
        },
        {
          "internalType": "address",
          "name": "wmonAddress",
          "type": "address"
        }
      ],
      "stateMutability": "nonpayable",
      "type": "constructor"
    },
    {
      "inputs": [],
      "name": "EmptyOffer",
      "type": "error"
    },
    {
      "inputs": [],
      "name": "InsufficientPayment",
      "type": "error"
    },
    {
      "inputs": [],
      "name": "InvalidAddress",
      "type": "error"
    },
    {
      "inputs": [],
      "name": "NotNFTOwner",
      "type": "error"
    },
    {
      "inputs": [],
      "name": "NotOfferTarget",
      "type": "error"
    },
    {
      "inputs": [],
      "name": "NotOfferer",
      "type": "error"
    },
    {
      "inputs": [],
      "name": "OfferNotWaiting",
      "type": "error"
    },
    {
      "inputs": [
        {
          "internalType": "address",
          "name": "owner",
          "type": "address"
        }
      ],
      "name": "OwnableInvalidOwner",
      "type": "error"
    },
    {
      "inputs": [
        {
          "internalType": "address",
          "name": "account",
          "type": "address"
        }
      ],
      "name": "OwnableUnauthorizedAccount",
      "type": "error"
    },
    {
      "inputs": [],
      "name": "ReentrancyGuardReentrantCall",
      "type": "error"
    },
    {
      "inputs": [
        {
          "internalType": "address",
          "name": "token",
          "type": "address"
        }
      ],
      "name": "SafeERC20FailedOperation",
      "type": "error"
    },
    {
      "anonymous": false,
      "inputs": [
        {
          "indexed": false,
          "internalType": "address",
          "name": "oldRecipient",
          "type": "address"
        },
        {
          "indexed": false,
          "internalType": "address",
          "name": "newRecipient",
          "type": "address"
        }
      ],
      "name": "FeeRecipientUpdated",
      "type": "event"
    },
    {
      "anonymous": false,
      "inputs": [
        {
          "indexed": true,
          "internalType": "uint256",
          "name": "offerId",
          "type": "uint256"
        },
        {
          "indexed": true,
          "internalType": "address",
          "name": "offerer",
          "type": "address"
        },
        {
          "indexed": true,
          "internalType": "address",
          "name": "target",
          "type": "address"
        }
      ],
      "name": "OfferAccepted",
      "type": "event"
    },
    {
      "anonymous": false,
      "inputs": [
        {
          "indexed": true,
          "internalType": "uint256",
          "name": "offerId",
          "type": "uint256"
        },
        {
          "indexed": true,
          "internalType": "address",
          "name": "offerer",
          "type": "address"
        }
      ],
      "name": "OfferCancelled",
      "type": "event"
    },
    {
      "anonymous": false,
      "inputs": [
        {
          "indexed": true,
          "internalType": "uint256",
          "name": "offerId",
          "type": "uint256"
        },
        {
          "indexed": true,
          "internalType": "address",
          "name": "offerer",
          "type": "address"
        },
        {
          "indexed": true,
          "internalType": "address",
          "name": "target",
          "type": "address"
        }
      ],
      "name": "OfferCreated",
      "type": "event"
    },
    {
      "anonymous": false,
      "inputs": [
        {
          "indexed": true,
          "internalType": "uint256",
          "name": "offerId",
          "type": "uint256"
        },
        {
          "indexed": true,
          "internalType": "address",
          "name": "target",
          "type": "address"
        }
      ],
      "name": "OfferDeclined",
      "type": "event"
    },
    {
      "anonymous": false,
      "inputs": [
        {
          "indexed": true,
          "internalType": "address",
          "name": "previousOwner",
          "type": "address"
        },
        {
          "indexed": true,
          "internalType": "address",
          "name": "newOwner",
          "type": "address"
        }
      ],
      "name": "OwnershipTransferred",
      "type": "event"
    },
    {
      "anonymous": false,
      "inputs": [
        {
          "indexed": false,
          "internalType": "uint256",
          "name": "oldFee",
          "type": "uint256"
        },
        {
          "indexed": false,
          "internalType": "uint256",
          "name": "newFee",
          "type": "uint256"
        }
      ],
      "name": "PlatformFeeUpdated",
      "type": "event"
    },
    {
      "inputs": [
        {
          "internalType": "uint256",
          "name": "offerId",
          "type": "uint256"
        }
      ],
      "name": "acceptOffer",
      "outputs": [],
      "stateMutability": "nonpayable",
      "type": "function"
    },
    {
      "inputs": [
        {
          "internalType": "uint256",
          "name": "offerId",
          "type": "uint256"
        }
      ],
      "name": "cancelOffer",
      "outputs": [],
      "stateMutability": "nonpayable",
      "type": "function"
    },
    {
      "inputs": [
        {
          "internalType": "address",
          "name": "target",
          "type": "address"
        },
        {
          "components": [
            {
              "internalType": "address",
              "name": "collection",
              "type": "address"
            },
            {
              "internalType": "uint256",
              "name": "tokenId",
              "type": "uint256"
            }
          ],
          "internalType": "struct NFTSwap.NFTItem[]",
          "name": "offeredNFTs",
          "type": "tuple[]"
        },
        {
          "components": [
            {
              "internalType": "address",
              "name": "token",
              "type": "address"
            },
            {
              "internalType": "uint256",
              "name": "amount",
              "type": "uint256"
            }
          ],
          "internalType": "struct NFTSwap.ERC20Item[]",
          "name": "offeredTokens",
          "type": "tuple[]"
        },
        {
          "components": [
            {
              "internalType": "address",
              "name": "collection",
              "type": "address"
            },
            {
              "internalType": "uint256",
              "name": "tokenId",
              "type": "uint256"
            }
          ],
          "internalType": "struct NFTSwap.NFTItem[]",
          "name": "wantedNFTs",
          "type": "tuple[]"
        },
        {
          "internalType": "uint256",
          "name": "nativeAmount",
          "type": "uint256"
        }
      ],
      "name": "createOffer",
      "outputs": [
        {
          "internalType": "uint256",
          "name": "offerId",
          "type": "uint256"
        }
      ],
      "stateMutability": "payable",
      "type": "function"
    },
    {
      "inputs": [
        {
          "internalType": "uint256",
          "name": "offerId",
          "type": "uint256"
        }
      ],
      "name": "declineOffer",
      "outputs": [],
      "stateMutability": "nonpayable",
      "type": "function"
    },
    {
      "inputs": [],
      "name": "feeRecipient",
      "outputs": [
        {
          "internalType": "address",
          "name": "",
          "type": "address"
        }
      ],
      "stateMutability": "view",
      "type": "function"
    },
    {
      "inputs": [
        {
          "internalType": "uint256",
          "name": "offerId",
          "type": "uint256"
        }
      ],
      "name": "getOffer",
      "outputs": [
        {
          "internalType": "address",
          "name": "offerer",
          "type": "address"
        },
        {
          "internalType": "address",
          "name": "target",
          "type": "address"
        },
        {
          "components": [
            {
              "internalType": "address",
              "name": "collection",
              "type": "address"
            },
            {
              "internalType": "uint256",
              "name": "tokenId",
              "type": "uint256"
            }
          ],
          "internalType": "struct NFTSwap.NFTItem[]",
          "name": "offeredNFTs",
          "type": "tuple[]"
        },
        {
          "components": [
            {
              "internalType": "address",
              "name": "token",
              "type": "address"
            },
            {
              "internalType": "uint256",
              "name": "amount",
              "type": "uint256"
            }
          ],
          "internalType": "struct NFTSwap.ERC20Item[]",
          "name": "offeredTokens",
          "type": "tuple[]"
        },
        {
          "components": [
            {
              "internalType": "address",
              "name": "collection",
              "type": "address"
            },
            {
              "internalType": "uint256",
              "name": "tokenId",
              "type": "uint256"
            }
          ],
          "internalType": "struct NFTSwap.NFTItem[]",
          "name": "wantedNFTs",
          "type": "tuple[]"
        },
        {
          "internalType": "enum NFTSwap.OfferStatus",
          "name": "status",
          "type": "uint8"
        },
        {
          "internalType": "uint256",
          "name": "createdAt",
          "type": "uint256"
        }
      ],
      "stateMutability": "view",
      "type": "function"
    },
    {
      "inputs": [
        {
          "internalType": "uint256[]",
          "name": "offerIds",
          "type": "uint256[]"
        }
      ],
      "name": "getOffersBatch",
      "outputs": [
        {
          "internalType": "address[]",
          "name": "offerers",
          "type": "address[]"
        },
        {
          "internalType": "address[]",
          "name": "targets",
          "type": "address[]"
        },
        {
          "internalType": "enum NFTSwap.OfferStatus[]",
          "name": "statuses",
          "type": "uint8[]"
        },
        {
          "internalType": "uint256[]",
          "name": "createdAts",
          "type": "uint256[]"
        }
      ],
      "stateMutability": "view",
      "type": "function"
    },
    {
      "inputs": [
        {
          "internalType": "address",
          "name": "user",
          "type": "address"
        }
      ],
      "name": "getOffersCreated",
      "outputs": [
        {
          "internalType": "uint256[]",
          "name": "",
          "type": "uint256[]"
        }
      ],
      "stateMutability": "view",
      "type": "function"
    },
    {
      "inputs": [
        {
          "internalType": "address",
          "name": "user",
          "type": "address"
        },
        {
          "internalType": "enum NFTSwap.OfferStatus",
          "name": "status",
          "type": "uint8"
        }
      ],
      "name": "getOffersCreatedByStatus",
      "outputs": [
        {
          "internalType": "uint256[]",
          "name": "",
          "type": "uint256[]"
        }
      ],
      "stateMutability": "view",
      "type": "function"
    },
    {
      "inputs": [
        {
          "internalType": "address",
          "name": "user",
          "type": "address"
        }
      ],
      "name": "getOffersReceived",
      "outputs": [
        {
          "internalType": "uint256[]",
          "name": "",
          "type": "uint256[]"
        }
      ],
      "stateMutability": "view",
      "type": "function"
    },
    {
      "inputs": [
        {
          "internalType": "address",
          "name": "user",
          "type": "address"
        },
        {
          "internalType": "enum NFTSwap.OfferStatus",
          "name": "status",
          "type": "uint8"
        }
      ],
      "name": "getOffersReceivedByStatus",
      "outputs": [
        {
          "internalType": "uint256[]",
          "name": "",
          "type": "uint256[]"
        }
      ],
      "stateMutability": "view",
      "type": "function"
    },
    {
      "inputs": [
        {
          "internalType": "uint256",
          "name": "offset",
          "type": "uint256"
        },
        {
          "internalType": "uint256",
          "name": "limit",
          "type": "uint256"
        }
      ],
      "name": "getWaitingOffers",
      "outputs": [
        {
          "internalType": "uint256[]",
          "name": "offerIds",
          "type": "uint256[]"
        },
        {
          "internalType": "uint256",
          "name": "total",
          "type": "uint256"
        }
      ],
      "stateMutability": "view",
      "type": "function"
    },
    {
      "inputs": [],
      "name": "nextOfferId",
      "outputs": [
        {
          "internalType": "uint256",
          "name": "",
          "type": "uint256"
        }
      ],
      "stateMutability": "view",
      "type": "function"
    },
    {
      "inputs": [
        {
          "internalType": "address",
          "name": "",
          "type": "address"
        },
        {
          "internalType": "uint256",
          "name": "",
          "type": "uint256"
        }
      ],
      "name": "offersCreated",
      "outputs": [
        {
          "internalType": "uint256",
          "name": "",
          "type": "uint256"
        }
      ],
      "stateMutability": "view",
      "type": "function"
    },
    {
      "inputs": [
        {
          "internalType": "address",
          "name": "",
          "type": "address"
        },
        {
          "internalType": "uint256",
          "name": "",
          "type": "uint256"
        }
      ],
      "name": "offersReceived",
      "outputs": [
        {
          "internalType": "uint256",
          "name": "",
          "type": "uint256"
        }
      ],
      "stateMutability": "view",
      "type": "function"
    },
    {
      "inputs": [
        {
          "internalType": "address",
          "name": "",
          "type": "address"
        },
        {
          "internalType": "address",
          "name": "",
          "type": "address"
        },
        {
          "internalType": "uint256",
          "name": "",
          "type": "uint256"
        },
        {
          "internalType": "bytes",
          "name": "",
          "type": "bytes"
        }
      ],
      "name": "onERC721Received",
      "outputs": [
        {
          "internalType": "bytes4",
          "name": "",
          "type": "bytes4"
        }
      ],
      "stateMutability": "pure",
      "type": "function"
    },
    {
      "inputs": [],
      "name": "owner",
      "outputs": [
        {
          "internalType": "address",
          "name": "",
          "type": "address"
        }
      ],
      "stateMutability": "view",
      "type": "function"
    },
    {
      "inputs": [],
      "name": "platformFee",
      "outputs": [
        {
          "internalType": "uint256",
          "name": "",
          "type": "uint256"
        }
      ],
      "stateMutability": "view",
      "type": "function"
    },
    {
      "inputs": [],
      "name": "renounceOwnership",
      "outputs": [],
      "stateMutability": "nonpayable",
      "type": "function"
    },
    {
      "inputs": [
        {
          "internalType": "address",
          "name": "newRecipient",
          "type": "address"
        }
      ],
      "name": "setFeeRecipient",
      "outputs": [],
      "stateMutability": "nonpayable",
      "type": "function"
    },
    {
      "inputs": [
        {
          "internalType": "uint256",
          "name": "newFee",
          "type": "uint256"
        }
      ],
      "name": "setPlatformFee",
      "outputs": [],
      "stateMutability": "nonpayable",
      "type": "function"
    },
    {
      "inputs": [
        {
          "internalType": "address",
          "name": "newOwner",
          "type": "address"
        }
      ],
      "name": "transferOwnership",
      "outputs": [],
      "stateMutability": "nonpayable",
      "type": "function"
    },
    {
      "inputs": [],
      "name": "wmon",
      "outputs": [
        {
          "internalType": "contract IWMON",
          "name": "",
          "type": "address"
        }
      ],
      "stateMutability": "view",
      "type": "function"
    },
    {
      "stateMutability": "payable",
      "type": "receive"
    }
  ],
  "bytecode": "0x60a03461013957601f611d6538819003918201601f19168301916001600160401b0383118484101761013d578084926080946040528339810103126101395761004781610151565b61005360208301610151565b91610065606060408301519201610151565b60015f556001600160a01b0390921692831561012657600180546001600160a01b03198116861790915560405194906001600160a01b03167f8be0079c531659141344cd1fd0a4f28419497f9722a3daafe3b4186f6b6457e05f80a36001600160a01b0316918215610117576001600160a01b031691821561011757600480546001600160a01b031916919091179055600355608052611bff908161016682396080518181816109420152610bda0152f35b63e6c4247b60e01b5f5260045ffd5b631e4fbdf760e01b5f525f60045260245ffd5b5f80fd5b634e487b7160e01b5f52604160045260245ffd5b51906001600160a01b03821682036101395756fe6080604052600436101561001a575b3615610018575f80fd5b005b5f3560e01c806312e8e2c314611482578063150b7a021461141157806323c14e1b1461127457806326232a2e146112575780632f759cde1461113757806341da4e32146110ee5780634579268a14610f9c5780634690484014610f745780635d5c1676146109e95780635f5d0655146109cc578063715018a6146109715780637d86b8a51461092d5780638da5cb5b1461090557806392ea8cf214610893578063a9da5f06146107ff578063be957f83146107a7578063c701b88b14610767578063c815729d146104ac578063dfc139f414610426578063e74b981b14610393578063ecebf96114610268578063ef706adf146101a55763f2fde38b0361000e57346101a15760203660031901126101a1576101346114d6565b61013c6119f8565b6001600160a01b0316801561018e57600180546001600160a01b0319811683179091556001600160a01b03167f8be0079c531659141344cd1fd0a4f28419497f9722a3daafe3b4186f6b6457e05f80a3005b631e4fbdf760e01b5f525f60045260245ffd5b5f80fd5b346101a15760203660031901126101a1576004356101c1611a1f565b5f81815260056020526040902080546001600160a01b0316330361025957600581019060ff8254166004811015610245576102365761020a91600360ff19825416179055611a3d565b33907f1f51377b3e685a0e2419f9bb4ba7c07ec54936353ba3d0fb3c6538dab67662225f80a360015f55005b63101e6b6160e31b5f5260045ffd5b634e487b7160e01b5f52602160045260245ffd5b630f147a5960e31b5f5260045ffd5b346101a1576102763661157e565b6001600160a01b039091165f90815260066020526040812080549091600484101590805b83811061033e57506102ab906116ac565b925f905f5b8481106102d157604051602080825281906102cd9082018961154b565b0390f35b806102dd8592846115ad565b90549060031b1c5f52600560205260ff600560405f2001541691610245576004821015610245578760019214610314575b016102b0565b61031e81846115ad565b90549060031b1c610338610331866116f2565b95896116de565b5261030e565b61034881866115ad565b90549060031b1c5f5260056020528260ff600560405f200154169061024557600481101561024557861461037f575b60010161029a565b9061038b6001916116f2565b919050610377565b346101a15760203660031901126101a1576103ac6114d6565b6103b46119f8565b6001600160a01b031680156104175760407faaebcf1bfa00580e41d966056b48521fa9f202645c86d4ddf28113e617c1b1d39160045490806bffffffffffffffffffffffff60a01b83161760045582519160018060a01b031682526020820152a1005b63e6c4247b60e01b5f5260045ffd5b346101a15760203660031901126101a1576001600160a01b036104476114d6565b165f52600660205260405f206040519081602082549182815201915f5260205f20905f5b818110610496576102cd8561048281870382611672565b60405191829160208352602083019061154b565b825484526020909301926001928301920161046b565b346101a15760203660031901126101a1576004356104c8611a1f565b5f81815260056020526040902060018101549091906001600160a01b03163303610758576005820160ff81541660048110156102455761023657805460ff19166001179055600482015f5b815481101561064357610526818361180c565b50546001600160a01b031690600161053e828561180c565b500154604051906331a9108f60e11b82526004820152602081602481865afa9081156105fb575f91610615575b50336001600160a01b03909116036106065784546001600160a01b03166001610594838661180c565b500154833b156101a157604051632142170760e11b81523360048201526001600160a01b039290921660248301526044820152915f908390606490829084905af19182156105fb576001926105eb575b5001610513565b5f6105f591611672565b856105e4565b6040513d5f823e3d90fd5b631022318760e21b5f5260045ffd5b610636915060203d811161063c575b61062e8183611672565b8101906117ed565b8661056b565b503d610624565b50506002820191905f5b83548110156106d757610660818561180c565b50546001600160a01b0316906001610678828761180c565b50015491803b156101a157604051632142170760e11b815230600482015233602482015260448101939093525f908390606490829084905af19182156105fb576001926106c7575b500161064d565b5f6106d191611672565b856106c0565b5060038201915f5b835481101561071e57806107186106f86001938761180c565b50838060a01b039054168361070d848961180c565b500154903390611b36565b016106df565b505433916001600160a01b03909116907f4e0e306d1152ebbfd4d4055c0cb6f9d9c99c8b6427bd085ccb5e35d98850d2755f80a460015f55005b63d0fb321b60e01b5f5260045ffd5b346101a15760403660031901126101a15761079d6107896024356004356118b3565b60405192839260408452604084019061154b565b9060208301520390f35b346101a15760403660031901126101a1576107c06114d6565b6001600160a01b03165f908152600760205260409020805460243591908210156101a1576020916107f0916115ad565b90549060031b1c604051908152f35b346101a15760203660031901126101a15760043561081b611a1f565b5f81815260056020526040902060018101546001600160a01b0316330361075857600581019060ff8254166004811015610245576102365761086791600260ff19825416179055611a3d565b33907fe3fdc826407186ec30616e74f05c87de143d0d28f4016af6043253ba041156635f80a360015f55005b346101a15760203660031901126101a1576001600160a01b036108b46114d6565b165f52600760205260405f206040519081602082549182815201915f5260205f20905f5b8181106108ef576102cd8561048281870382611672565b82548452602090930192600192830192016108d8565b346101a1575f3660031901126101a1576001546040516001600160a01b039091168152602090f35b346101a1575f3660031901126101a1576040517f00000000000000000000000000000000000000000000000000000000000000006001600160a01b03168152602090f35b346101a1575f3660031901126101a1576109896119f8565b600180546001600160a01b031981169091555f906001600160a01b03167f8be0079c531659141344cd1fd0a4f28419497f9722a3daafe3b4186f6b6457e08280a3005b346101a1575f3660031901126101a1576020600254604051908152f35b60a03660031901126101a1576109fd6114d6565b60243567ffffffffffffffff81116101a157610a1d903690600401611625565b919060443567ffffffffffffffff81116101a157610a3f903690600401611625565b9260643567ffffffffffffffff81116101a157610a60903690600401611625565b91909260843591610a6f611a1f565b6001600160a01b03169586158015610f6b575b610417578715801590610f62575b8015610f59575b15610f4a578315610f4a5760035483810190818111610f3657813410610f275780610ec2575b50610ac890346117bc565b80610e71575b50610ada6002546116f2565b60028181555f828152600560208190526040822080546001600160a01b0319908116331782556001820180549091168d179055908101805460ff19169055426006820155929a929891890191905b838110610d775750505050905f9160038701925b818110610cc95750505081610bd8575b50919260040191505f5b818110610bbb5760208587335f5260068352610b758160405f2061187f565b815f5260078352610b898160405f2061187f565b6040519133827fc15c04e4d066b073dc7bcc4304c46edcf1d537a17a94a544037da3414bd677ef5f80a460015f558152f35b80610bd2610bcc60019385886117c9565b8561185a565b01610b56565b7f00000000000000000000000000000000000000000000000000000000000000006001600160a01b031690813b156101a157604051630d0e30db60e41b81525f8160048187875af180156105fb57610cb9575b5060405191610c3983611656565b8252602082019283528054600160401b811015610ca557610c5f9160018201815561180c565b929092610c9257905182546001600160a01b0319166001600160a01b039190911617825551600191909101558580610b4c565b634e487b7160e01b5f525f60045260245ffd5b634e487b7160e01b5f52604160045260245ffd5b5f610cc391611672565b88610c2b565b610d3c610d296001600160a01b03610cea610ce58587896117c9565b6117d9565b16610d376020610cfb86888a6117c9565b6040516323b872dd60e01b602082015233602482015230604482015291013560648201529283906084820190565b03601f198101845283611672565b611b71565b610d478183856117c9565b908454600160401b811015610ca557600192610d6b8285610d71940189558861180c565b90611825565b01610b3c565b6001600160a01b03610d8d610ce58387866117c9565b16906020610d9c8287866117c9565b6040516331a9108f60e11b81529101356004820152602081602481865afa9081156105fb575f91610e53575b50336001600160a01b0390911603610606576020610de78287866117c9565b013591803b156101a157604051632142170760e11b815233600482015230602482015260448101939093525f908390606490829084905af19182156105fb57600192610e43575b50610e3d610bcc8287866117c9565b01610b28565b5f610e4d91611672565b8d610e2e565b610e6b915060203d811161063c5761062e8183611672565b8e610dc8565b5f80808093335af1610e8161177d565b5015610e8d5788610ace565b60405162461bcd60e51b815260206004820152600d60248201526c1499599d5b990819985a5b1959609a1b6044820152606490fd5b6004545f918291829182916001600160a01b03165af1610ee061177d565b5015610eec5789610abd565b60405162461bcd60e51b8152602060048201526013602482015272119959481d1c985b9cd9995c8819985a5b1959606a1b6044820152606490fd5b63cd1c886760e01b5f5260045ffd5b634e487b7160e01b5f52601160045260245ffd5b634115fe3560e01b5f5260045ffd5b50821515610a97565b50801515610a90565b50338714610a82565b346101a1575f3660031901126101a1576004546040516001600160a01b039091168152602090f35b346101a15760203660031901126101a1576004355f52600560205260405f2060018060a01b0381541660018060a01b03600183015416600383019260ff60058201541691600682015491610ff260028201611727565b865491610ffe83611694565b9261100c6040519485611672565b8084526020840180995f5260205f205f915b8383106110d0575050505060209161103b60046110579301611727565b946040519889528389015260e0604089015260e08801906115d6565b91868303606088015251918281520195905f5b81811061109e5750505061108a85611095928680980360808801526115d6565b9260a085019061153e565b60c08301520390f35b90919660206040826110c56001948c516020809160018060a01b0381511684520151910152565b01980192910161106a565b600260206001926110e085611700565b81520192019201919061101e565b346101a15760403660031901126101a1576111076114d6565b6001600160a01b03165f908152600660205260409020805460243591908210156101a1576020916107f0916115ad565b346101a1576111453661157e565b6001600160a01b039091165f90815260076020526040812080549091600484101590805b838110611202575061117a906116ac565b925f905f5b84811061119c57604051602080825281906102cd9082018961154b565b806111a88592846115ad565b90549060031b1c5f52600560205260ff600560405f20015416916102455760048210156102455787600192146111df575b0161117f565b6111e981846115ad565b90549060031b1c6111fc610331866116f2565b526111d9565b61120c81866115ad565b90549060031b1c5f5260056020528260ff600560405f2001541690610245576004811015610245578614611243575b600101611169565b9061124f6001916116f2565b91905061123b565b346101a1575f3660031901126101a1576020600354604051908152f35b346101a15760203660031901126101a15760043567ffffffffffffffff81116101a157366023820112156101a157806004013567ffffffffffffffff81116101a1573660248260051b840101116101a1576112ce816116ac565b916112d8826116ac565b926112e283611694565b936112f06040519586611672565b8385526112fc84611694565b602086019390601f1901368537611312856116ac565b935f5b868110156113985760248160051b840101355f52600560205260405f209060018060a01b0382541661134782886116de565b5260018201546001600160a01b031661136082876116de565b5260ff60058301541691611374828b6116de565b9060048410156102455760019360069252015461139182896116de565b5201611315565b5083858860206113c4876113b760405196608088526080880190611502565b9086820384880152611502565b91848303604086015251918281520193905f5b8181106113f25784806102cd8887838203606085015261154b565b909194602080826114066001948a5161153e565b0196019291016113d7565b346101a15760803660031901126101a15761142a6114d6565b506114336114ec565b5060643567ffffffffffffffff81116101a157366023820112156101a157806004013567ffffffffffffffff81116101a157369101602401116101a157604051630a85bd0160e11b8152602090f35b346101a15760203660031901126101a1577fd347e206f25a89b917fc9482f1a2d294d749baa4dc9bde7fb495ee11fe49164360406004356114c16119f8565b600354908060035582519182526020820152a1005b600435906001600160a01b03821682036101a157565b602435906001600160a01b03821682036101a157565b90602080835192838152019201905f5b81811061151f5750505090565b82516001600160a01b0316845260209384019390920191600101611512565b9060048210156102455752565b90602080835192838152019201905f5b8181106115685750505090565b825184526020938401939092019160010161155b565b60409060031901126101a1576004356001600160a01b03811681036101a1579060243560048110156101a15790565b80548210156115c2575f5260205f2001905f90565b634e487b7160e01b5f52603260045260245ffd5b90602080835192838152019201905f5b8181106115f35750505090565b909192602060408261161a60019488516020809160018060a01b0381511684520151910152565b0194019291016115e6565b9181601f840112156101a15782359167ffffffffffffffff83116101a1576020808501948460061b0101116101a157565b6040810190811067ffffffffffffffff821117610ca557604052565b90601f8019910116810190811067ffffffffffffffff821117610ca557604052565b67ffffffffffffffff8111610ca55760051b60200190565b906116b682611694565b6116c36040519182611672565b82815280926116d4601f1991611694565b0190602036910137565b80518210156115c25760209160051b010190565b5f198114610f365760010190565b9060405161170d81611656565b82546001600160a01b031681526001909201546020830152565b90815461173381611694565b926117416040519485611672565b81845260208401905f5260205f205f915b83831061175f5750505050565b6002602060019261176f85611700565b815201920192019190611752565b3d156117b7573d9067ffffffffffffffff8211610ca557604051916117ac601f8201601f191660200184611672565b82523d5f602084013e565b606090565b91908203918211610f3657565b91908110156115c25760061b0190565b356001600160a01b03811681036101a15790565b908160209103126101a157516001600160a01b03811681036101a15790565b80548210156115c2575f5260205f209060011b01905f90565b9190610c92576001906020906001600160a01b03611842826117d9565b85546001600160a01b03191691161784550135910155565b90815491600160401b831015610ca55782610d6b91600161187d9501815561180c565b565b8054600160401b811015610ca55761189c916001820181556115ad565b819291549060031b91821b915f19901b1916179055565b5f92600192600254935b848111156119b357508483108015906119ab575b61198e576118df83866117bc565b90808210156119865750935b6118f4856116ac565b905f925f9660015b878111158061197d575b1561197257805f52600560205260ff600560405f200154166004811015610245571561193b575b611936906116f2565b6118fc565b946119508188611936931015611958576116f2565b95905061192d565b8761196c6119658d6116f2565b9c896116de565b526116f2565b505093509350935050565b50818910611906565b9050936118eb565b509150506040516119a0602082611672565b5f81525f3681379190565b5080156118d1565b805f52600560205260ff600560405f20015416600481101561024557156119e3575b6119de906116f2565b6118bd565b946119f06119de916116f2565b9590506119d5565b6001546001600160a01b03163303611a0c57565b63118cdaa760e01b5f523360045260245ffd5b60025f5414611a2e5760025f55565b633ee5aeb560e01b5f5260045ffd5b905f5b60028301908154811015611ae057611a58818361180c565b505484546001600160a01b0391821693911690600190611a7990849061180c565b500154833b156101a157604051632142170760e11b81523060048201526001600160a01b039290921660248301526044820152915f908390606490829084905af19182156105fb57600192611ad0575b5001611a40565b5f611ada91611672565b5f611ac9565b50505f5b600383018054821015611b305790611b2a82611b028360019561180c565b50848060a01b039054169084611b2185828060a01b038a54169361180c565b50015491611b36565b01611ae4565b50509050565b60405163a9059cbb60e01b60208201526001600160a01b03909216602483015260448083019390935291815261187d91610d37606483611672565b905f602091828151910182855af1156105fb575f513d611bc057506001600160a01b0381163b155b611ba05750565b635274afe760e01b5f9081526001600160a01b0391909116600452602490fd5b60011415611b9956fea264697066735822122028d71e33041f928cae0e6cffd24f08959f1a274785c36dc4502f49eedcfbf0d064736f6c634300081c0033",
  "linkReferences": {},
  "deployedLinkReferences": {},
  "immutableReferences": {
    "1131": [
      {
        "length": 32,
        "start": 2370
      },
      {
        "length": 32,
        "start": 3034
      }
    ]
  },
  "inputSourceName": "project/contracts/NFTSwap.sol",
  "buildInfoId": "solc-0_8_28-781d5e9f0650666aa09989da6b0c260d91313945"
}