{
  "_format": "hh3-artifact-1",
  "contractName": "LilStar",
  "sourceName": "contracts/LilStar.sol",
  "abi": [
    {
      "inputs": [
        {
          "internalType": "string",
          "name": "_name",
          "type": "string"
        },
        {
          "internalType": "string",
          "name": "_symbol",
          "type": "string"
        },
        {
          "internalType": "uint16",
          "name": "maxSupply_",
          "type": "uint16"
        }
      ],
      "stateMutability": "nonpayable",
      "type": "constructor"
    },
    {
      "inputs": [],
      "name": "AlreadyMinted",
      "type": "error"
    },
    {
      "inputs": [],
      "name": "BlindBoxAddressNotSet",
      "type": "error"
    },
    {
      "inputs": [
        {
          "internalType": "uint256",
          "name": "numerator",
          "type": "uint256"
        },
        {
          "internalType": "uint256",
          "name": "denominator",
          "type": "uint256"
        }
      ],
      "name": "ERC2981InvalidDefaultRoyalty",
      "type": "error"
    },
    {
      "inputs": [
        {
          "internalType": "address",
          "name": "receiver",
          "type": "address"
        }
      ],
      "name": "ERC2981InvalidDefaultRoyaltyReceiver",
      "type": "error"
    },
    {
      "inputs": [
        {
          "internalType": "uint256",
          "name": "tokenId",
          "type": "uint256"
        },
        {
          "internalType": "uint256",
          "name": "numerator",
          "type": "uint256"
        },
        {
          "internalType": "uint256",
          "name": "denominator",
          "type": "uint256"
        }
      ],
      "name": "ERC2981InvalidTokenRoyalty",
      "type": "error"
    },
    {
      "inputs": [
        {
          "internalType": "uint256",
          "name": "tokenId",
          "type": "uint256"
        },
        {
          "internalType": "address",
          "name": "receiver",
          "type": "address"
        }
      ],
      "name": "ERC2981InvalidTokenRoyaltyReceiver",
      "type": "error"
    },
    {
      "inputs": [],
      "name": "InvalidRecipient",
      "type": "error"
    },
    {
      "inputs": [],
      "name": "InvalidRedeemer",
      "type": "error"
    },
    {
      "inputs": [],
      "name": "InvalidTokenId",
      "type": "error"
    },
    {
      "inputs": [],
      "name": "NoMoreTokenIds",
      "type": "error"
    },
    {
      "inputs": [],
      "name": "NotAllowedByRegistry",
      "type": "error"
    },
    {
      "inputs": [],
      "name": "NotMinted",
      "type": "error"
    },
    {
      "inputs": [
        {
          "internalType": "address",
          "name": "owner",
          "type": "address"
        }
      ],
      "name": "OwnableInvalidOwner",
      "type": "error"
    },
    {
      "inputs": [
        {
          "internalType": "address",
          "name": "account",
          "type": "address"
        }
      ],
      "name": "OwnableUnauthorizedAccount",
      "type": "error"
    },
    {
      "inputs": [],
      "name": "RedeemBlindBoxNotOpen",
      "type": "error"
    },
    {
      "inputs": [],
      "name": "RegistryNotSet",
      "type": "error"
    },
    {
      "inputs": [],
      "name": "Unauthorized",
      "type": "error"
    },
    {
      "inputs": [],
      "name": "UnsafeRecipient",
      "type": "error"
    },
    {
      "inputs": [],
      "name": "WrongFrom",
      "type": "error"
    },
    {
      "inputs": [],
      "name": "ZeroAddress",
      "type": "error"
    },
    {
      "anonymous": false,
      "inputs": [
        {
          "indexed": true,
          "internalType": "address",
          "name": "owner",
          "type": "address"
        },
        {
          "indexed": true,
          "internalType": "address",
          "name": "spender",
          "type": "address"
        },
        {
          "indexed": true,
          "internalType": "uint256",
          "name": "id",
          "type": "uint256"
        }
      ],
      "name": "Approval",
      "type": "event"
    },
    {
      "anonymous": false,
      "inputs": [
        {
          "indexed": true,
          "internalType": "address",
          "name": "owner",
          "type": "address"
        },
        {
          "indexed": true,
          "internalType": "address",
          "name": "operator",
          "type": "address"
        },
        {
          "indexed": false,
          "internalType": "bool",
          "name": "approved",
          "type": "bool"
        }
      ],
      "name": "ApprovalForAll",
      "type": "event"
    },
    {
      "anonymous": false,
      "inputs": [
        {
          "indexed": true,
          "internalType": "address",
          "name": "to",
          "type": "address"
        },
        {
          "indexed": true,
          "internalType": "uint256",
          "name": "tokenId",
          "type": "uint256"
        },
        {
          "indexed": true,
          "internalType": "uint256",
          "name": "blindBoxId",
          "type": "uint256"
        }
      ],
      "name": "BlindBoxRedeemed",
      "type": "event"
    },
    {
      "anonymous": false,
      "inputs": [
        {
          "indexed": true,
          "internalType": "address",
          "name": "previousOwner",
          "type": "address"
        },
        {
          "indexed": true,
          "internalType": "address",
          "name": "newOwner",
          "type": "address"
        }
      ],
      "name": "OwnershipTransferred",
      "type": "event"
    },
    {
      "anonymous": false,
      "inputs": [
        {
          "indexed": true,
          "internalType": "address",
          "name": "to",
          "type": "address"
        },
        {
          "indexed": true,
          "internalType": "uint256",
          "name": "sbtTokenId",
          "type": "uint256"
        },
        {
          "indexed": false,
          "internalType": "uint8",
          "name": "sbtType",
          "type": "uint8"
        }
      ],
      "name": "SBTAwarded",
      "type": "event"
    },
    {
      "anonymous": false,
      "inputs": [
        {
          "indexed": true,
          "internalType": "address",
          "name": "from",
          "type": "address"
        },
        {
          "indexed": true,
          "internalType": "address",
          "name": "to",
          "type": "address"
        },
        {
          "indexed": true,
          "internalType": "uint256",
          "name": "id",
          "type": "uint256"
        }
      ],
      "name": "Transfer",
      "type": "event"
    },
    {
      "inputs": [],
      "name": "MAX_SUPPLY",
      "outputs": [
        {
          "internalType": "uint16",
          "name": "",
          "type": "uint16"
        }
      ],
      "stateMutability": "view",
      "type": "function"
    },
    {
      "inputs": [
        {
          "internalType": "address",
          "name": "operator",
          "type": "address"
        },
        {
          "internalType": "uint256",
          "name": "tokenId",
          "type": "uint256"
        }
      ],
      "name": "approve",
      "outputs": [],
      "stateMutability": "nonpayable",
      "type": "function"
    },
    {
      "inputs": [
        {
          "internalType": "address",
          "name": "owner",
          "type": "address"
        }
      ],
      "name": "balanceOf",
      "outputs": [
        {
          "internalType": "uint256",
          "name": "",
          "type": "uint256"
        }
      ],
      "stateMutability": "view",
      "type": "function"
    },
    {
      "inputs": [
        {
          "internalType": "uint256",
          "name": "",
          "type": "uint256"
        }
      ],
      "name": "getApproved",
      "outputs": [
        {
          "internalType": "address",
          "name": "",
          "type": "address"
        }
      ],
      "stateMutability": "view",
      "type": "function"
    },
    {
      "inputs": [
        {
          "internalType": "address",
          "name": "",
          "type": "address"
        },
        {
          "internalType": "address",
          "name": "",
          "type": "address"
        }
      ],
      "name": "isApprovedForAll",
      "outputs": [
        {
          "internalType": "bool",
          "name": "",
          "type": "bool"
        }
      ],
      "stateMutability": "view",
      "type": "function"
    },
    {
      "inputs": [],
      "name": "isRegistryActive",
      "outputs": [
        {
          "internalType": "bool",
          "name": "",
          "type": "bool"
        }
      ],
      "stateMutability": "view",
      "type": "function"
    },
    {
      "inputs": [],
      "name": "name",
      "outputs": [
        {
          "internalType": "string",
          "name": "",
          "type": "string"
        }
      ],
      "stateMutability": "view",
      "type": "function"
    },
    {
      "inputs": [],
      "name": "operatorFilteringEnabled",
      "outputs": [
        {
          "internalType": "bool",
          "name": "",
          "type": "bool"
        }
      ],
      "stateMutability": "view",
      "type": "function"
    },
    {
      "inputs": [],
      "name": "owner",
      "outputs": [
        {
          "internalType": "address",
          "name": "",
          "type": "address"
        }
      ],
      "stateMutability": "view",
      "type": "function"
    },
    {
      "inputs": [
        {
          "internalType": "uint256",
          "name": "id",
          "type": "uint256"
        }
      ],
      "name": "ownerOf",
      "outputs": [
        {
          "internalType": "address",
          "name": "owner",
          "type": "address"
        }
      ],
      "stateMutability": "view",
      "type": "function"
    },
    {
      "inputs": [
        {
          "internalType": "address",
          "name": "to",
          "type": "address"
        },
        {
          "internalType": "uint256[]",
          "name": "blindBoxIds",
          "type": "uint256[]"
        }
      ],
      "name": "redeemBlindBoxes",
      "outputs": [
        {
          "internalType": "uint256[]",
          "name": "",
          "type": "uint256[]"
        }
      ],
      "stateMutability": "nonpayable",
      "type": "function"
    },
    {
      "inputs": [],
      "name": "redeemInfo",
      "outputs": [
        {
          "internalType": "bool",
          "name": "redeemBlindBoxOpen",
          "type": "bool"
        },
        {
          "internalType": "address",
          "name": "blindBoxAddress",
          "type": "address"
        }
      ],
      "stateMutability": "view",
      "type": "function"
    },
    {
      "inputs": [],
      "name": "registryAddress",
      "outputs": [
        {
          "internalType": "address",
          "name": "",
          "type": "address"
        }
      ],
      "stateMutability": "view",
      "type": "function"
    },
    {
      "inputs": [],
      "name": "renounceOwnership",
      "outputs": [],
      "stateMutability": "nonpayable",
      "type": "function"
    },
    {
      "inputs": [
        {
          "internalType": "uint256",
          "name": "tokenId",
          "type": "uint256"
        },
        {
          "internalType": "uint256",
          "name": "salePrice",
          "type": "uint256"
        }
      ],
      "name": "royaltyInfo",
      "outputs": [
        {
          "internalType": "address",
          "name": "receiver",
          "type": "address"
        },
        {
          "internalType": "uint256",
          "name": "amount",
          "type": "uint256"
        }
      ],
      "stateMutability": "view",
      "type": "function"
    },
    {
      "inputs": [
        {
          "internalType": "address",
          "name": "from",
          "type": "address"
        },
        {
          "internalType": "address",
          "name": "to",
          "type": "address"
        },
        {
          "internalType": "uint256",
          "name": "id",
          "type": "uint256"
        }
      ],
      "name": "safeTransferFrom",
      "outputs": [],
      "stateMutability": "nonpayable",
      "type": "function"
    },
    {
      "inputs": [
        {
          "internalType": "address",
          "name": "from",
          "type": "address"
        },
        {
          "internalType": "address",
          "name": "to",
          "type": "address"
        },
        {
          "internalType": "uint256",
          "name": "id",
          "type": "uint256"
        },
        {
          "internalType": "bytes",
          "name": "data",
          "type": "bytes"
        }
      ],
      "name": "safeTransferFrom",
      "outputs": [],
      "stateMutability": "nonpayable",
      "type": "function"
    },
    {
      "inputs": [],
      "name": "sbtContract",
      "outputs": [
        {
          "internalType": "address",
          "name": "",
          "type": "address"
        }
      ],
      "stateMutability": "view",
      "type": "function"
    },
    {
      "inputs": [
        {
          "internalType": "address",
          "name": "operator",
          "type": "address"
        },
        {
          "internalType": "bool",
          "name": "approved",
          "type": "bool"
        }
      ],
      "name": "setApprovalForAll",
      "outputs": [],
      "stateMutability": "nonpayable",
      "type": "function"
    },
    {
      "inputs": [
        {
          "internalType": "string",
          "name": "baseURI",
          "type": "string"
        }
      ],
      "name": "setBaseURI",
      "outputs": [],
      "stateMutability": "nonpayable",
      "type": "function"
    },
    {
      "inputs": [
        {
          "internalType": "string",
          "name": "baseURIPermanent",
          "type": "string"
        }
      ],
      "name": "setBaseURIPermanent",
      "outputs": [],
      "stateMutability": "nonpayable",
      "type": "function"
    },
    {
      "inputs": [
        {
          "internalType": "address",
          "name": "contractAddress",
          "type": "address"
        }
      ],
      "name": "setBlindBoxAddress",
      "outputs": [],
      "stateMutability": "nonpayable",
      "type": "function"
    },
    {
      "inputs": [
        {
          "internalType": "address",
          "name": "receiver",
          "type": "address"
        },
        {
          "internalType": "uint96",
          "name": "feeNumerator",
          "type": "uint96"
        }
      ],
      "name": "setDefaultRoyalty",
      "outputs": [],
      "stateMutability": "nonpayable",
      "type": "function"
    },
    {
      "inputs": [
        {
          "internalType": "bool",
          "name": "_isRegistryActive",
          "type": "bool"
        }
      ],
      "name": "setIsRegistryActive",
      "outputs": [],
      "stateMutability": "nonpayable",
      "type": "function"
    },
    {
      "inputs": [
        {
          "internalType": "uint256[]",
          "name": "tokenIds",
          "type": "uint256[]"
        }
      ],
      "name": "setIsUriPermanent",
      "outputs": [],
      "stateMutability": "nonpayable",
      "type": "function"
    },
    {
      "inputs": [
        {
          "internalType": "string",
          "name": "_newName",
          "type": "string"
        },
        {
          "internalType": "string",
          "name": "_newSymbol",
          "type": "string"
        }
      ],
      "name": "setNameAndSymbol",
      "outputs": [],
      "stateMutability": "nonpayable",
      "type": "function"
    },
    {
      "inputs": [
        {
          "internalType": "bool",
          "name": "value",
          "type": "bool"
        }
      ],
      "name": "setOperatorFilteringEnabled",
      "outputs": [],
      "stateMutability": "nonpayable",
      "type": "function"
    },
    {
      "inputs": [
        {
          "internalType": "bool",
          "name": "_redeemBlindBoxOpen",
          "type": "bool"
        }
      ],
      "name": "setRedeemBlindBoxState",
      "outputs": [],
      "stateMutability": "nonpayable",
      "type": "function"
    },
    {
      "inputs": [
        {
          "internalType": "address",
          "name": "_registryAddress",
          "type": "address"
        }
      ],
      "name": "setRegistryAddress",
      "outputs": [],
      "stateMutability": "nonpayable",
      "type": "function"
    },
    {
      "inputs": [
        {
          "internalType": "address",
          "name": "_sbtContract",
          "type": "address"
        }
      ],
      "name": "setSBTContract",
      "outputs": [],
      "stateMutability": "nonpayable",
      "type": "function"
    },
    {
      "inputs": [
        {
          "internalType": "uint256",
          "name": "tokenId",
          "type": "uint256"
        },
        {
          "internalType": "address",
          "name": "receiver",
          "type": "address"
        },
        {
          "internalType": "uint96",
          "name": "feeNumerator",
          "type": "uint96"
        }
      ],
      "name": "setTokenRoyalty",
      "outputs": [],
      "stateMutability": "nonpayable",
      "type": "function"
    },
    {
      "inputs": [
        {
          "internalType": "bytes4",
          "name": "interfaceId",
          "type": "bytes4"
        }
      ],
      "name": "supportsInterface",
      "outputs": [
        {
          "internalType": "bool",
          "name": "",
          "type": "bool"
        }
      ],
      "stateMutability": "view",
      "type": "function"
    },
    {
      "inputs": [],
      "name": "symbol",
      "outputs": [
        {
          "internalType": "string",
          "name": "",
          "type": "string"
        }
      ],
      "stateMutability": "view",
      "type": "function"
    },
    {
      "inputs": [
        {
          "internalType": "uint256",
          "name": "tokenId",
          "type": "uint256"
        }
      ],
      "name": "tokenURI",
      "outputs": [
        {
          "internalType": "string",
          "name": "",
          "type": "string"
        }
      ],
      "stateMutability": "view",
      "type": "function"
    },
    {
      "inputs": [],
      "name": "totalSupply",
      "outputs": [
        {
          "internalType": "uint256",
          "name": "",
          "type": "uint256"
        }
      ],
      "stateMutability": "view",
      "type": "function"
    },
    {
      "inputs": [
        {
          "internalType": "address",
          "name": "from",
          "type": "address"
        },
        {
          "internalType": "address",
          "name": "to",
          "type": "address"
        },
        {
          "internalType": "uint256",
          "name": "id",
          "type": "uint256"
        }
      ],
      "name": "transferFrom",
      "outputs": [],
      "stateMutability": "nonpayable",
      "type": "function"
    },
    {
      "inputs": [
        {
          "internalType": "address",
          "name": "newOwner",
          "type": "address"
        }
      ],
      "name": "transferOwnership",
      "outputs": [],
      "stateMutability": "nonpayable",
      "type": "function"
    }
  ],
  "bytecode": "0x60a060405234610245576127b98038038061001981610438565b9283398101906060818303126102455780516001600160401b038111610245578261004591830161045d565b60208201519092906001600160401b0381116102455760409161006991840161045d565b91015161ffff811681036102455782516001600160401b03811161034957600254600181811c9116801561042e575b602082101461032b57601f81116103cb575b506020601f821160011461036857819293945f9261035d575b50508160011b915f199060031b1c1916176002555b81516001600160401b03811161034957600354600181811c9116801561033f575b602082101461032b57601f81116102c8575b50602092601f821160011461026757928192935f9261025c575b50508160011b915f199060031b1c1916176003555b331561024957600854336001600160a01b0382167f8be0079c531659141344cd1fd0a4f28419497f9722a3daafe3b4186f6b6457e05f80a36001600160a81b0319163360ff60a01b191617600160a01b1760ff60a81b19166008556080819052600b805461ffff60a01b191660a09290921b61ffff60a01b16919091179055633e9f1edf60e11b5f908152306004908152733cc6cdda760b79bafa08df41ecfa224f810dceb660245290604481806daaeb6d7670e522a718067333cd4e5af115610235575b5f6024526008805460ff60a01b1916600160a01b17905560405161230a90816104af82396080518181816115930152611bea0152f35b637d3e3dbe5f5160e01c036101ff575b5f80fd5b631e4fbdf760e01b5f525f60045260245ffd5b015190505f80610125565b601f1982169360035f52805f20915f5b8681106102b05750836001959610610298575b505050811b0160035561013a565b01515f1960f88460031b161c191690555f808061028a565b91926020600181928685015181550194019201610277565b60035f527fc2575a0e9e593c00f959f8c92f12db2869c3395a3b0502d05e2516446f71f85b601f830160051c81019160208410610321575b601f0160051c01905b818110610316575061010b565b5f8155600101610309565b9091508190610300565b634e487b7160e01b5f52602260045260245ffd5b90607f16906100f9565b634e487b7160e01b5f52604160045260245ffd5b015190505f806100c3565b601f1982169060025f52805f20915f5b8181106103b35750958360019596971061039b575b505050811b016002556100d8565b01515f1960f88460031b161c191690555f808061038d565b9192602060018192868b015181550194019201610378565b60025f527f405787fa12a823e0f2b7631cc41b3ba8828b3321ca811111fa75cd3aa3bb5ace601f830160051c81019160208410610424575b601f0160051c01905b81811061041957506100aa565b5f815560010161040c565b9091508190610403565b90607f1690610098565b6040519190601f01601f191682016001600160401b0381118382101761034957604052565b81601f82011215610245578051906001600160401b0382116103495761048c601f8301601f1916602001610438565b928284526020838301011161024557815f9260208093018386015e830101529056fe6080806040526004361015610012575f80fd5b5f3560e01c90816301ffc9a714611e815750806304634d8d14611dd45780630615836014611dac57806306fdde0314611d1a578063081812fc14611ce8578063095ea7b314611c1357806318160ddd14611bcb57806318def808146117c957806323b872dd1461169a5780632a55205a146115fa57806330095f89146115b757806332cb6b0c146115795780633c115fa61461141a57806342842e0e1461127457806346fff98d1461121457806355f804b3146110b55780635944c75314610feb5780635a44621514610d2a5780636352211e14610ce257806370a0823114610c95578063715018a614610c3a5780638da5cb5b14610c125780638e0d9fcc14610b9f57806395d89b4114610ae8578063a22cb46514610a43578063ab7b499314610a00578063abd017ea146109db578063b7c0b8e81461099b578063b88d4fde1461071c578063c04c7d8c14610698578063c87b56dd146103b0578063e985e9c514610359578063ed9aab5114610331578063efe7aa49146102fb578063f2fde38b14610275578063fafb447a146101dc5763fb796e6c146101b3575f80fd5b346101d8575f3660031901126101d857602060ff60085460a01c166040519015158152f35b5f80fd5b346101d85760203660031901126101d8576101f5612079565b6101fd6120ea565b600a5490600882901c6001600160a01b0316908115610266576102439160206040519261022984611f7c565b151592838152015260ff8019600a54169115151617600a55565b600a8054610100600160a81b031916610100600160a81b03909216919091179055005b6349446a7760e11b5f5260045ffd5b346101d85760203660031901126101d85761028e611f18565b6102966120ea565b6001600160a01b031680156102e857600880546001600160a01b0319811683179091556001600160a01b03167f8be0079c531659141344cd1fd0a4f28419497f9722a3daafe3b4186f6b6457e05f80a3005b631e4fbdf760e01b5f525f60045260245ffd5b346101d8575f3660031901126101d857600a546040805160ff83161515815260089290921c6001600160a01b0316602083015290f35b346101d8575f3660031901126101d8576009546040516001600160a01b039091168152602090f35b346101d85760403660031901126101d857610372611f18565b61037a611f2e565b9060018060a01b03165f52600760205260405f209060018060a01b03165f52602052602060ff60405f2054166040519015158152f35b346101d85760203660031901126101d857600435805f52600460205260018060a01b0360405f20541615610689578060081c5f5261100e602052600160ff82161b60405f20541615155f146106815761100d5b604051915f918381549361041685611f44565b9283835260208301956001811690815f14610662575060011461061e575b5061044192500384611f97565b825115610602578092815f9272184f03e93ff9f4daa797ed6e38ed64bf6a1f0160401b8110156105dc575b50806d04ee2d6d415b85acef8100000000600a9210156105c1575b662386f26fc100008110156105ad575b6305f5e10081101561059c575b61271081101561058d575b606481101561057f575b1015610575575b6001820193600a60216104eb6104d5886120cf565b976104e3604051998a611f97565b8089526120cf565b602088019590601f19013687378701015b5f1901916f181899199a1a9b1b9c1cb0b131b232b360811b8282061a83530490811561052a57600a906104fc565b5050602061056592610571956040519586945180918587015e840190838201905f8252519283915e01015f815203601f198101835282611f97565b60405191829182611fb8565b0390f35b90600101906104c0565b6064600291049301926104b9565b612710600491049301926104af565b6305f5e100600891049301926104a4565b662386f26fc1000060109104930192610497565b6d04ee2d6d415b85acef810000000060209104930192610487565b6040935072184f03e93ff9f4daa797ed6e38ed64bf6a1f0160401b90049050600a61046c565b505050610571604051610616602082611f97565b5f8152610565565b90505f9291925260205f20905f915b8183106106465750509060206104419282010186610434565b6020919350806001915483858a0101520191019091859261062d565b60ff191687525061044193151560051b83016020019150879050610434565b61100c610403565b6307ed98ed60e31b5f5260045ffd5b346101d85760203660031901126101d8576106b1611f18565b6106b96120ea565b6106f560ff600a5416604051906106cf82611f7c565b151590818152602060018060a01b03851691015260ff8019600a54169115151617600a55565b600a8054610100600160a81b03191660089290921b610100600160a81b0316919091179055005b346101d85760803660031901126101d857610735611f18565b61073d611f2e565b906044356064356001600160401b0381116101d85761076090369060040161204c565b90926001600160a01b03169033820361097f575b61077d336121aa565b15610970575f838152600460205260409020546001600160a01b03168203610961576001600160a01b03851691821561095257803314158061092f575b80610911575b61090357805f52600560205260405f205f198154019055825f52600560205260405f2060018154019055835f52600460205260405f20836001600160601b0360a01b825416179055835f52600660205260405f206001600160601b0360a01b8154169055604051958484835f5160206122955f395f51905f525f80a43b61084357005b60a4868381969460209883965f96630a85bd0160e11b86523360048701526024860152604485015260806064850152816084850152848401378181018301849052601f01601f191681010301925af19081156108f8575f916108c9575b506001600160e01b03191663757a42ff60e11b016108ba57005b633da6393160e01b5f5260045ffd5b6108eb915060203d6020116108f1575b6108e38183611f97565b8101906120af565b816108a0565b503d6108d9565b6040513d5f823e3d90fd5b6282b42960e81b5f5260045ffd5b50835f52600660205260018060a01b0360405f2054163314156107c0565b505f81815260076020908152604080832033845290915290205460ff16156107ba565b634e46966960e11b5f5260045ffd5b63c6de3f2560e01b5f5260045ffd5b6326406c5f60e11b5f5260045ffd5b60ff60085460a01c16156107745761099633612111565b610774565b346101d85760203660031901126101d8576109b4612079565b6109bc6120ea565b6008805460ff60a01b191691151560a01b60ff60a01b16919091179055005b346101d8575f3660031901126101d857602060ff60085460a81c166040519015158152f35b346101d85760203660031901126101d857610a19611f18565b610a216120ea565b600980546001600160a01b0319166001600160a01b0392909216919091179055005b346101d85760403660031901126101d857610a5c611f18565b602435908115158092036101d85760ff60085460a01c16610ada575b335f52600760205260405f2060018060a01b0382165f5260205260405f2060ff1981541660ff841617905560405191825260018060a01b0316907f17307eab39ab6107e8899845ad3d59bd9653f200f220920489ca2b5937696c3160203392a3005b610ae381612111565b610a78565b346101d8575f3660031901126101d8576040515f600354610b0881611f44565b8084529060018116908115610b7b5750600114610b30575b6105718361056581850382611f97565b60035f9081525f5160206122555f395f51905f52939250905b808210610b6157509091508101602001610565610b20565b919260018160209254838588010152019101909291610b49565b60ff191660208086019190915291151560051b840190910191506105659050610b20565b346101d85760203660031901126101d8576004356001600160401b0381116101d857610bcf903690600401611fe2565b610bd76120ea565b5f5b818110610be257005b80610bf0600192848661209f565b358060081c5f5261100e6020528260ff60405f2092161b815417905501610bd9565b346101d8575f3660031901126101d8576008546040516001600160a01b039091168152602090f35b346101d8575f3660031901126101d857610c526120ea565b600880546001600160a01b031981169091555f906001600160a01b03167f8be0079c531659141344cd1fd0a4f28419497f9722a3daafe3b4186f6b6457e08280a3005b346101d85760203660031901126101d8576001600160a01b03610cb6611f18565b168015610cd3575f526005602052602060405f2054604051908152f35b63d92e233d60e01b5f5260045ffd5b346101d85760203660031901126101d8576004355f52600460205260018060a01b0360405f2054168015610d1b57602090604051908152f35b634d5e5fb360e01b5f5260045ffd5b346101d85760403660031901126101d8576004356001600160401b0381116101d857610d5a90369060040161204c565b6024356001600160401b0381116101d857610d7990369060040161204c565b9091610d836120ea565b6001600160401b038111610ef657610d9c600254611f44565b601f8111610f83575b505f601f8211600114610f1557819293945f92610f0a575b50508160011b915f199060031b1c1916176002555b6001600160401b038111610ef657610deb600354611f44565b601f8111610e92575b505f601f8211600114610e2d5781925f92610e22575b50508160011b915f199060031b1c1916176003555f80f35b013590508280610e0a565b601f198216925f5160206122555f395f51905f52915f5b858110610e7a57508360019510610e61575b505050811b01600355005b01355f19600384901b60f8161c19169055828080610e56565b90926020600181928686013581550194019101610e44565b601f820160051c5f5160206122555f395f51905f52019060208310610ee1575b601f0160051c5f5160206122555f395f51905f5201905b818110610ed65750610df4565b5f8155600101610ec9565b5f5160206122555f395f51905f529150610eb2565b634e487b7160e01b5f52604160045260245ffd5b013590508480610dbd565b601f1982169460025f525f5160206122355f395f51905f52915f5b878110610f6b575083600195969710610f52575b505050811b01600255610dd2565b01355f19600384901b60f8161c19169055848080610f44565b90926020600181928686013581550194019101610f30565b60025f52601f820160051c5f5160206122355f395f51905f52019060208310610fd6575b601f0160051c5f5160206122355f395f51905f5201905b818110610fcb5750610da5565b5f8155600101610fbe565b5f5160206122355f395f51905f529150610fa7565b346101d85760603660031901126101d857600435611007611f2e565b604435906001600160601b0382168092036101d8576110246120ea565b6127108211611098576001600160a01b0316918215611082576040519261104a84611f7c565b835260208084019283525f91825260019052604090209151905160a01b6001600160a01b0319166001600160a01b0391909116179055005b634b4f842960e11b5f526004525f60245260445ffd5b509063dfd1fc1b60e01b5f5260045260245261271060445260645ffd5b346101d85760203660031901126101d8576004356001600160401b0381116101d8576110e590369060040161204c565b6110ed6120ea565b6001600160401b038111610ef65761110761100c54611f44565b601f81116111b0575b505f601f821160011461114a5781925f9261113f575b50505f19600383901b1c191660019190911b1761100c55005b013590508280611126565b601f198216925f5160206122755f395f51905f52915f5b8581106111985750836001951061117f575b505050811b0161100c55005b01355f19600384901b60f8161c19169055828080611173565b90926020600181928686013581550194019101611161565b601f820160051c5f5160206122755f395f51905f520190602083106111ff575b601f0160051c5f5160206122755f395f51905f5201905b8181106111f45750611110565b5f81556001016111e7565b5f5160206122755f395f51905f5291506111d0565b346101d85760203660031901126101d85761122d612079565b6112356120ea565b6009546001600160a01b031615611265576008805460ff60a81b191691151560a81b60ff60a81b16919091179055005b630e048e7160e41b5f5260045ffd5b346101d85761128236612012565b90916001600160a01b03163381036113fe575b61129e336121aa565b15610970575f828152600460205260409020546001600160a01b03168103610961576001600160a01b03831680156109525781331415806113db575b806113bd575b61090357815f52600560205260405f205f198154019055805f52600560205260405f2060018154019055825f52600460205260405f20816001600160601b0360a01b825416179055825f52600660205260405f206001600160601b0360a01b8154169055604051938382845f5160206122955f395f51905f525f80a43b61136357005b835f60a4926020958395630a85bd0160e11b855233600486015260248501526044840152608060648401528160848401525af19081156108f8575f916108c957506001600160e01b03191663757a42ff60e11b016108ba57005b50825f52600660205260018060a01b0360405f2054163314156112e0565b505f82815260076020908152604080832033845290915290205460ff16156112da565b60ff60085460a01c16156112955761141533612111565b611295565b346101d85760203660031901126101d8576004356001600160401b0381116101d85761144a90369060040161204c565b6114526120ea565b6001600160401b038111610ef65761146c61100d54611f44565b601f8111611515575b505f601f82116001146114af5781925f926114a4575b50505f19600383901b1c191660019190911b1761100d55005b01359050828061148b565b601f198216925f5160206122b55f395f51905f52915f5b8581106114fd575083600195106114e4575b505050811b0161100d55005b01355f19600384901b60f8161c191690558280806114d8565b909260206001819286860135815501940191016114c6565b601f820160051c5f5160206122b55f395f51905f52019060208310611564575b601f0160051c5f5160206122b55f395f51905f5201905b8181106115595750611475565b5f815560010161154c565b5f5160206122b55f395f51905f529150611535565b346101d8575f3660031901126101d857602060405161ffff7f0000000000000000000000000000000000000000000000000000000000000000168152f35b346101d85760203660031901126101d8576115d0611f18565b6115d86120ea565b600b80546001600160a01b0319166001600160a01b0392909216919091179055005b346101d85760403660031901126101d8576004355f908152600160205260409020546001600160a01b038116906024359060a01c8215611683575b6001600160601b03169081810291818304149015171561166f57604080516001600160a01b03939093168352612710909104602083015290f35b634e487b7160e01b5f52601160045260245ffd5b505f546001600160a01b038116925060a01c611635565b346101d8576116a836612012565b916001600160a01b0316903382036117ad575b6116c4336121aa565b15610970575f838152600460205260409020546001600160a01b03168203610961576001600160a01b031690811561095257803314158061178a575b8061176c575b610903575f81815260056020908152604080832080545f19019055848352808320805460010190558583526004825280832080546001600160a01b0319908116871790915560069092528220805490911690555f5160206122955f395f51905f529080a4005b50825f52600660205260018060a01b0360405f205416331415611706565b505f81815260076020908152604080832033845290915290205460ff1615611700565b60ff60085460a01c16156116bb576117c433612111565b6116bb565b346101d85760403660031901126101d8576117e2611f18565b6024356001600160401b0381116101d857611801903690600401611fe2565b9060405161180e81611f7c565b600a5460ff8116158015835260089190911c6001600160a01b03166020909201918252611bbc57516001600160a01b03163303611bad579161184f82612088565b9261185d6040519485611f97565b82845261186983612088565b602085019390601f19013685376001600160a01b03831680159390915f5b8181106118d2578688604051918291602083019060208452518091526040830191905f5b8181106118b9575050500390f35b82518452859450602093840193909201916001016118ab565b6118dd81838761209f565b359061ffff600b5460a01c168015611b9e57806118f98161216c565b0661ffff6119068261214f565b90549060031b1c1680155f14611b98575080915b5f19810190811161166f57808203611b07575b5050600b5461ffff8160a01c1690811561166f5761ffff60a01b19165f1990910160a01b61ffff60a01b1617600b5587610952575f818152600460205260409020546001600160a01b0316611af857855f52600560205260405f2060018154019055805f52600460205260405f20866001600160601b0360a01b82541617905580865f5f5160206122955f395f51905f528180a48281877fd53a304a32a38c95f6a2848abc9d03a6bc31790260c243a6246486c1bf8a06e25f80a48951821015611ae457600582901b8a01602001819052600b546001600160a01b03169081611a1d575b50506001915001611887565b830180931161166f57611a68604091611a365f9561216c565b83516319ce922160e01b81526001600160a01b0389166004820152602481019190915294859283919082906044820190565b03925af180156108f8575f90611ab2575b60019250857f4987ad0564acafea0a43226c8a352e6e37054e5a44f16d4c37beb2421c6fa7d6602060405160ff85168152a38980611a11565b506040823d8211611adc575b81611acb60409383611f97565b810103126101d85760019151611a79565b3d9150611abe565b634e487b7160e01b5f52603260045260245ffd5b631bbdf5c560e31b5f5260045ffd5b61ffff611b138261214f565b90549060031b1c1680155f14611b56575061ffff611b33611b4f9361214f565b919092169061ffff8084549260031b9316831b921b1916179055565b8a8061192d565b611b8090611b66611b859461214f565b90919061ffff8084549260031b9316831b921b1916179055565b61214f565b61ffff82549160031b1b19169055611b4f565b9161191a565b63aeb0cc9b60e01b5f5260045ffd5b63d8546cf160e01b5f5260045ffd5b6307963a8360e51b5f5260045ffd5b346101d8575f3660031901126101d857602061ffff80600b5460a01c167f00000000000000000000000000000000000000000000000000000000000000000316604051908152f35b346101d85760403660031901126101d857611c2c611f18565b6024359060ff60085460a01c16611cda575b5f828152600460205260409020546001600160a01b0316903382141580611cb7575b610903575f83815260066020526040812080546001600160a01b0319166001600160a01b039390931692831790559091907f8c5be1e5ebec7d5bd14f71427d1e84f3dd0314c0f7b2291e5b200ac8c7c3b9259080a4005b505f82815260076020908152604080832033845290915290205460ff1615611c60565b611ce381612111565b611c3e565b346101d85760203660031901126101d8576004355f526006602052602060018060a01b0360405f205416604051908152f35b346101d8575f3660031901126101d8576040515f600254611d3a81611f44565b8084529060018116908115610b7b5750600114611d61576105718361056581850382611f97565b60025f9081525f5160206122355f395f51905f52939250905b808210611d9257509091508101602001610565610b20565b919260018160209254838588010152019101909291611d7a565b346101d8575f3660031901126101d857600b546040516001600160a01b039091168152602090f35b346101d85760403660031901126101d857611ded611f18565b602435906001600160601b038216908183036101d857611e0b6120ea565b6127108211611e68576001600160a01b0316908115611e55576020604051611e3281611f7c565b83815201526001600160a01b031660a09190911b6001600160a01b031916175f55005b635b6cc80560e11b5f525f60045260245ffd5b50636f483d0960e01b5f5260045261271060245260445ffd5b346101d85760203660031901126101d8576004359063ffffffff60e01b82168092036101d8576020916301ffc9a760e01b81149081908115611f07575b8215611ef6575b8215611ed4575b505015158152f35b63152a902d60e11b1491508115611eee575b508380611ecc565b905083611ee6565b635b5e139f60e01b81149250611ec5565b6380ac58cd60e01b81149250611ebe565b600435906001600160a01b03821682036101d857565b602435906001600160a01b03821682036101d857565b90600182811c92168015611f72575b6020831014611f5e57565b634e487b7160e01b5f52602260045260245ffd5b91607f1691611f53565b604081019081106001600160401b03821117610ef657604052565b90601f801991011681019081106001600160401b03821117610ef657604052565b602060409281835280519182918282860152018484015e5f828201840152601f01601f1916010190565b9181601f840112156101d8578235916001600160401b0383116101d8576020808501948460051b0101116101d857565b60609060031901126101d8576004356001600160a01b03811681036101d857906024356001600160a01b03811681036101d8579060443590565b9181601f840112156101d8578235916001600160401b0383116101d857602083818601950101116101d857565b6004359081151582036101d857565b6001600160401b038111610ef65760051b60200190565b9190811015611ae45760051b0190565b908160209103126101d857516001600160e01b0319811681036101d85790565b6001600160401b038111610ef657601f01601f191660200190565b6008546001600160a01b031633036120fe57565b63118cdaa760e01b5f523360045260245ffd5b69c61711340011223344555f5230601a52603a525f80604460166daaeb6d7670e522a718067333cd4e5afa15612147575f603a52565b3d5f803e3d5ffd5b9062010000821015611ae457601e8260041c600c019260011b1690565b5f1943019043821161166f576040519060208201924484524060408301523060608301526080820152608081526121a460a082611f97565b51902090565b60ff60085460a81c166121bd5750600190565b6009546040516370c5e04560e11b81526001600160a01b0392831660048201529160209183916024918391165afa9081156108f8575f916121fc575090565b90506020813d60201161222c575b8161221760209383611f97565b810103126101d8575180151581036101d85790565b3d915061220a56fe405787fa12a823e0f2b7631cc41b3ba8828b3321ca811111fa75cd3aa3bb5acec2575a0e9e593c00f959f8c92f12db2869c3395a3b0502d05e2516446f71f85bc6f3a603342c0474de860e2a744340e42865f344910740407d55d7ae24ec5b25ddf252ad1be2c89b69c2b068fc378daa952ba7f163c4a11628f55a4df523b3ef2ef6afcca699247d37d4112628f0e921ce96dc2ff6a425c870d3a3d3cf841e56a26469706673582212202a0d94c1fac0ffea58cfaaf380346f4c18cfae3bdf6d7f745a9a5f0cd62ea2a864736f6c634300081c0033",
  "linkReferences": {},
  "deployedLinkReferences": {},
  "immutableReferences": {
    "6420": [
      {
        "length": 32,
        "start": 5523
      },
      {
        "length": 32,
        "start": 7146
      }
    ]
  },
  "inputSourceName": "project/contracts/LilStar.sol",
  "buildInfoId": "solc-0_8_28-bf1ebc307db3011f6488252447e30587667b6c45"
}