{
  "_format": "hh3-artifact-1",
  "contractName": "LilStarSBT",
  "sourceName": "contracts/LilStarSBT.sol",
  "abi": [
    {
      "inputs": [],
      "stateMutability": "nonpayable",
      "type": "constructor"
    },
    {
      "inputs": [
        {
          "internalType": "address",
          "name": "sender",
          "type": "address"
        },
        {
          "internalType": "uint256",
          "name": "balance",
          "type": "uint256"
        },
        {
          "internalType": "uint256",
          "name": "needed",
          "type": "uint256"
        },
        {
          "internalType": "uint256",
          "name": "tokenId",
          "type": "uint256"
        }
      ],
      "name": "ERC1155InsufficientBalance",
      "type": "error"
    },
    {
      "inputs": [
        {
          "internalType": "address",
          "name": "approver",
          "type": "address"
        }
      ],
      "name": "ERC1155InvalidApprover",
      "type": "error"
    },
    {
      "inputs": [
        {
          "internalType": "uint256",
          "name": "idsLength",
          "type": "uint256"
        },
        {
          "internalType": "uint256",
          "name": "valuesLength",
          "type": "uint256"
        }
      ],
      "name": "ERC1155InvalidArrayLength",
      "type": "error"
    },
    {
      "inputs": [
        {
          "internalType": "address",
          "name": "operator",
          "type": "address"
        }
      ],
      "name": "ERC1155InvalidOperator",
      "type": "error"
    },
    {
      "inputs": [
        {
          "internalType": "address",
          "name": "receiver",
          "type": "address"
        }
      ],
      "name": "ERC1155InvalidReceiver",
      "type": "error"
    },
    {
      "inputs": [
        {
          "internalType": "address",
          "name": "sender",
          "type": "address"
        }
      ],
      "name": "ERC1155InvalidSender",
      "type": "error"
    },
    {
      "inputs": [
        {
          "internalType": "address",
          "name": "operator",
          "type": "address"
        },
        {
          "internalType": "address",
          "name": "owner",
          "type": "address"
        }
      ],
      "name": "ERC1155MissingApprovalForAll",
      "type": "error"
    },
    {
      "inputs": [],
      "name": "InsufficientBalance",
      "type": "error"
    },
    {
      "inputs": [],
      "name": "NoMoreSBTsAvailable",
      "type": "error"
    },
    {
      "inputs": [],
      "name": "NotLilStarContract",
      "type": "error"
    },
    {
      "inputs": [],
      "name": "NotOwnerOfToken",
      "type": "error"
    },
    {
      "inputs": [],
      "name": "NotTransferable",
      "type": "error"
    },
    {
      "inputs": [
        {
          "internalType": "address",
          "name": "owner",
          "type": "address"
        }
      ],
      "name": "OwnableInvalidOwner",
      "type": "error"
    },
    {
      "inputs": [
        {
          "internalType": "address",
          "name": "account",
          "type": "address"
        }
      ],
      "name": "OwnableUnauthorizedAccount",
      "type": "error"
    },
    {
      "anonymous": false,
      "inputs": [
        {
          "indexed": true,
          "internalType": "address",
          "name": "account",
          "type": "address"
        },
        {
          "indexed": true,
          "internalType": "address",
          "name": "operator",
          "type": "address"
        },
        {
          "indexed": false,
          "internalType": "bool",
          "name": "approved",
          "type": "bool"
        }
      ],
      "name": "ApprovalForAll",
      "type": "event"
    },
    {
      "anonymous": false,
      "inputs": [
        {
          "indexed": true,
          "internalType": "address",
          "name": "previousOwner",
          "type": "address"
        },
        {
          "indexed": true,
          "internalType": "address",
          "name": "newOwner",
          "type": "address"
        }
      ],
      "name": "OwnershipTransferred",
      "type": "event"
    },
    {
      "anonymous": false,
      "inputs": [
        {
          "indexed": true,
          "internalType": "address",
          "name": "owner",
          "type": "address"
        },
        {
          "indexed": true,
          "internalType": "uint256",
          "name": "tokenId",
          "type": "uint256"
        },
        {
          "indexed": false,
          "internalType": "uint256",
          "name": "amount",
          "type": "uint256"
        }
      ],
      "name": "SBTBurned",
      "type": "event"
    },
    {
      "anonymous": false,
      "inputs": [
        {
          "indexed": true,
          "internalType": "address",
          "name": "to",
          "type": "address"
        },
        {
          "indexed": true,
          "internalType": "uint256",
          "name": "tokenId",
          "type": "uint256"
        },
        {
          "indexed": false,
          "internalType": "uint256",
          "name": "amount",
          "type": "uint256"
        }
      ],
      "name": "SBTMinted",
      "type": "event"
    },
    {
      "anonymous": false,
      "inputs": [
        {
          "indexed": true,
          "internalType": "address",
          "name": "operator",
          "type": "address"
        },
        {
          "indexed": true,
          "internalType": "address",
          "name": "from",
          "type": "address"
        },
        {
          "indexed": true,
          "internalType": "address",
          "name": "to",
          "type": "address"
        },
        {
          "indexed": false,
          "internalType": "uint256[]",
          "name": "ids",
          "type": "uint256[]"
        },
        {
          "indexed": false,
          "internalType": "uint256[]",
          "name": "values",
          "type": "uint256[]"
        }
      ],
      "name": "TransferBatch",
      "type": "event"
    },
    {
      "anonymous": false,
      "inputs": [
        {
          "indexed": true,
          "internalType": "address",
          "name": "operator",
          "type": "address"
        },
        {
          "indexed": true,
          "internalType": "address",
          "name": "from",
          "type": "address"
        },
        {
          "indexed": true,
          "internalType": "address",
          "name": "to",
          "type": "address"
        },
        {
          "indexed": false,
          "internalType": "uint256",
          "name": "id",
          "type": "uint256"
        },
        {
          "indexed": false,
          "internalType": "uint256",
          "name": "value",
          "type": "uint256"
        }
      ],
      "name": "TransferSingle",
      "type": "event"
    },
    {
      "anonymous": false,
      "inputs": [
        {
          "indexed": false,
          "internalType": "string",
          "name": "value",
          "type": "string"
        },
        {
          "indexed": true,
          "internalType": "uint256",
          "name": "id",
          "type": "uint256"
        }
      ],
      "name": "URI",
      "type": "event"
    },
    {
      "inputs": [],
      "name": "DISCOUNT_10",
      "outputs": [
        {
          "internalType": "uint256",
          "name": "",
          "type": "uint256"
        }
      ],
      "stateMutability": "view",
      "type": "function"
    },
    {
      "inputs": [],
      "name": "DISCOUNT_5",
      "outputs": [
        {
          "internalType": "uint256",
          "name": "",
          "type": "uint256"
        }
      ],
      "stateMutability": "view",
      "type": "function"
    },
    {
      "inputs": [],
      "name": "FREE_BLINDBOX",
      "outputs": [
        {
          "internalType": "uint256",
          "name": "",
          "type": "uint256"
        }
      ],
      "stateMutability": "view",
      "type": "function"
    },
    {
      "inputs": [],
      "name": "MAX_DISCOUNT_10",
      "outputs": [
        {
          "internalType": "uint16",
          "name": "",
          "type": "uint16"
        }
      ],
      "stateMutability": "view",
      "type": "function"
    },
    {
      "inputs": [],
      "name": "MAX_DISCOUNT_5",
      "outputs": [
        {
          "internalType": "uint16",
          "name": "",
          "type": "uint16"
        }
      ],
      "stateMutability": "view",
      "type": "function"
    },
    {
      "inputs": [],
      "name": "MAX_FREE_BLINDBOX",
      "outputs": [
        {
          "internalType": "uint16",
          "name": "",
          "type": "uint16"
        }
      ],
      "stateMutability": "view",
      "type": "function"
    },
    {
      "inputs": [
        {
          "internalType": "address",
          "name": "account",
          "type": "address"
        },
        {
          "internalType": "uint256",
          "name": "id",
          "type": "uint256"
        }
      ],
      "name": "balanceOf",
      "outputs": [
        {
          "internalType": "uint256",
          "name": "",
          "type": "uint256"
        }
      ],
      "stateMutability": "view",
      "type": "function"
    },
    {
      "inputs": [
        {
          "internalType": "address[]",
          "name": "accounts",
          "type": "address[]"
        },
        {
          "internalType": "uint256[]",
          "name": "ids",
          "type": "uint256[]"
        }
      ],
      "name": "balanceOfBatch",
      "outputs": [
        {
          "internalType": "uint256[]",
          "name": "",
          "type": "uint256[]"
        }
      ],
      "stateMutability": "view",
      "type": "function"
    },
    {
      "inputs": [
        {
          "internalType": "uint256",
          "name": "tokenId",
          "type": "uint256"
        },
        {
          "internalType": "uint256",
          "name": "amount",
          "type": "uint256"
        }
      ],
      "name": "burn",
      "outputs": [],
      "stateMutability": "nonpayable",
      "type": "function"
    },
    {
      "inputs": [
        {
          "internalType": "address",
          "name": "owner",
          "type": "address"
        },
        {
          "internalType": "uint256",
          "name": "tokenId",
          "type": "uint256"
        },
        {
          "internalType": "uint256",
          "name": "amount",
          "type": "uint256"
        }
      ],
      "name": "burnFrom",
      "outputs": [],
      "stateMutability": "nonpayable",
      "type": "function"
    },
    {
      "inputs": [],
      "name": "getRemainingSupply",
      "outputs": [
        {
          "internalType": "uint16",
          "name": "discount5Remaining",
          "type": "uint16"
        },
        {
          "internalType": "uint16",
          "name": "discount10Remaining",
          "type": "uint16"
        },
        {
          "internalType": "uint16",
          "name": "freeBlindboxRemaining",
          "type": "uint16"
        }
      ],
      "stateMutability": "view",
      "type": "function"
    },
    {
      "inputs": [
        {
          "internalType": "uint256",
          "name": "tokenId",
          "type": "uint256"
        }
      ],
      "name": "getTokenName",
      "outputs": [
        {
          "internalType": "string",
          "name": "",
          "type": "string"
        }
      ],
      "stateMutability": "pure",
      "type": "function"
    },
    {
      "inputs": [],
      "name": "getTotalMinted",
      "outputs": [
        {
          "internalType": "uint16",
          "name": "",
          "type": "uint16"
        }
      ],
      "stateMutability": "view",
      "type": "function"
    },
    {
      "inputs": [
        {
          "internalType": "address",
          "name": "account",
          "type": "address"
        },
        {
          "internalType": "address",
          "name": "operator",
          "type": "address"
        }
      ],
      "name": "isApprovedForAll",
      "outputs": [
        {
          "internalType": "bool",
          "name": "",
          "type": "bool"
        }
      ],
      "stateMutability": "view",
      "type": "function"
    },
    {
      "inputs": [],
      "name": "lilStarContract",
      "outputs": [
        {
          "internalType": "address",
          "name": "",
          "type": "address"
        }
      ],
      "stateMutability": "view",
      "type": "function"
    },
    {
      "inputs": [
        {
          "internalType": "address",
          "name": "to",
          "type": "address"
        },
        {
          "internalType": "uint256",
          "name": "randomSeed",
          "type": "uint256"
        }
      ],
      "name": "mintRandomSBT",
      "outputs": [
        {
          "internalType": "uint256",
          "name": "tokenId",
          "type": "uint256"
        },
        {
          "internalType": "uint256",
          "name": "",
          "type": "uint256"
        }
      ],
      "stateMutability": "nonpayable",
      "type": "function"
    },
    {
      "inputs": [],
      "name": "mintedDiscount10",
      "outputs": [
        {
          "internalType": "uint16",
          "name": "",
          "type": "uint16"
        }
      ],
      "stateMutability": "view",
      "type": "function"
    },
    {
      "inputs": [],
      "name": "mintedDiscount5",
      "outputs": [
        {
          "internalType": "uint16",
          "name": "",
          "type": "uint16"
        }
      ],
      "stateMutability": "view",
      "type": "function"
    },
    {
      "inputs": [],
      "name": "mintedFreeBlindbox",
      "outputs": [
        {
          "internalType": "uint16",
          "name": "",
          "type": "uint16"
        }
      ],
      "stateMutability": "view",
      "type": "function"
    },
    {
      "inputs": [],
      "name": "name",
      "outputs": [
        {
          "internalType": "string",
          "name": "",
          "type": "string"
        }
      ],
      "stateMutability": "view",
      "type": "function"
    },
    {
      "inputs": [],
      "name": "owner",
      "outputs": [
        {
          "internalType": "address",
          "name": "",
          "type": "address"
        }
      ],
      "stateMutability": "view",
      "type": "function"
    },
    {
      "inputs": [],
      "name": "renounceOwnership",
      "outputs": [],
      "stateMutability": "nonpayable",
      "type": "function"
    },
    {
      "inputs": [
        {
          "internalType": "address",
          "name": "",
          "type": "address"
        },
        {
          "internalType": "address",
          "name": "",
          "type": "address"
        },
        {
          "internalType": "uint256[]",
          "name": "",
          "type": "uint256[]"
        },
        {
          "internalType": "uint256[]",
          "name": "",
          "type": "uint256[]"
        },
        {
          "internalType": "bytes",
          "name": "",
          "type": "bytes"
        }
      ],
      "name": "safeBatchTransferFrom",
      "outputs": [],
      "stateMutability": "pure",
      "type": "function"
    },
    {
      "inputs": [
        {
          "internalType": "address",
          "name": "",
          "type": "address"
        },
        {
          "internalType": "address",
          "name": "",
          "type": "address"
        },
        {
          "internalType": "uint256",
          "name": "",
          "type": "uint256"
        },
        {
          "internalType": "uint256",
          "name": "",
          "type": "uint256"
        },
        {
          "internalType": "bytes",
          "name": "",
          "type": "bytes"
        }
      ],
      "name": "safeTransferFrom",
      "outputs": [],
      "stateMutability": "pure",
      "type": "function"
    },
    {
      "inputs": [
        {
          "internalType": "address",
          "name": "",
          "type": "address"
        },
        {
          "internalType": "bool",
          "name": "",
          "type": "bool"
        }
      ],
      "name": "setApprovalForAll",
      "outputs": [],
      "stateMutability": "pure",
      "type": "function"
    },
    {
      "inputs": [
        {
          "internalType": "address",
          "name": "_lilStarContract",
          "type": "address"
        }
      ],
      "name": "setLilStarContract",
      "outputs": [],
      "stateMutability": "nonpayable",
      "type": "function"
    },
    {
      "inputs": [
        {
          "internalType": "string",
          "name": "newuri",
          "type": "string"
        }
      ],
      "name": "setURI",
      "outputs": [],
      "stateMutability": "nonpayable",
      "type": "function"
    },
    {
      "inputs": [
        {
          "internalType": "bytes4",
          "name": "interfaceId",
          "type": "bytes4"
        }
      ],
      "name": "supportsInterface",
      "outputs": [
        {
          "internalType": "bool",
          "name": "",
          "type": "bool"
        }
      ],
      "stateMutability": "view",
      "type": "function"
    },
    {
      "inputs": [],
      "name": "symbol",
      "outputs": [
        {
          "internalType": "string",
          "name": "",
          "type": "string"
        }
      ],
      "stateMutability": "view",
      "type": "function"
    },
    {
      "inputs": [
        {
          "internalType": "address",
          "name": "newOwner",
          "type": "address"
        }
      ],
      "name": "transferOwnership",
      "outputs": [],
      "stateMutability": "nonpayable",
      "type": "function"
    },
    {
      "inputs": [
        {
          "internalType": "uint256",
          "name": "tokenId",
          "type": "uint256"
        }
      ],
      "name": "uri",
      "outputs": [
        {
          "internalType": "string",
          "name": "",
          "type": "string"
        }
      ],
      "stateMutability": "view",
      "type": "function"
    }
  ],
  "bytecode": "0x6080346101315760208101906001600160401b0382118183101761011d575f9160405252600254600181811c91168015610113575b60208210146100ff57601f81116100b7575b505f60025533156100a45760038054336001600160a01b03198216811790925560405191906001600160a01b03167f8be0079c531659141344cd1fd0a4f28419497f9722a3daafe3b4186f6b6457e05f80a3611a8890816101368239f35b631e4fbdf760e01b5f525f60045260245ffd5b60025f52601f0160051c7f405787fa12a823e0f2b7631cc41b3ba8828b3321ca811111fa75cd3aa3bb5ace908101905b8181106100f45750610046565b5f81556001016100e7565b634e487b7160e01b5f52602260045260245ffd5b90607f1690610034565b634e487b7160e01b5f52604160045260245ffd5b5f80fdfe60806040526004361015610011575f80fd5b5f3560e01c8062fdd58e146101fe57806301ffc9a7146101f957806302fe5305146101f457806306fdde03146101ef5780630ca1c5c9146101ea5780630e89341c146101e5578063124d91e5146101e057806319ce9221146101db5780631e4844bf146101d65780632eb2c2d6146101d1578063313b9ef2146101cc5780633f590203146101c75780634e1273f4146101c25780636f265006146101bd578063715018a6146101b85780638649ed05146101b3578063899c0cc7146101a45780638da5cb5b146101ae57806395d89b41146101a95780639f86954b146101a4578063a22cb4651461019f578063b390c0ab1461019a578063b87c261914610195578063bf01d49714610190578063c03543101461018b578063ca0054d014610186578063dbe16c0714610181578063e4b7fb731461017c578063e985e9c514610177578063f242432a146101725763f2fde38b1461016d575f80fd5b610db6565b610d63565b610d07565b610cac565b610c8d565b610c4a565b610c2f565b610c0b565b610bef565b610b80565b610b4c565b610abe565b610b02565b610ada565b610aa3565b610a48565b610a24565b610963565b6108fb565b6108e0565b610855565b610764565b610656565b6105a6565b610573565b61052d565b6104dc565b61030f565b6102a1565b610247565b600435906001600160a01b038216820361021957565b5f80fd5b602435906001600160a01b038216820361021957565b35906001600160a01b038216820361021957565b34610219576040366003190112610219576020610286610265610203565b6024355f525f835260405f209060018060a01b03165f5260205260405f2090565b54604051908152f35b6001600160e01b031981160361021957565b346102195760203660031901126102195760206004356102c08161028f565b63ffffffff60e01b16636cdb3d1360e11b81149081156102fe575b81156102ed575b506040519015158152f35b6301ffc9a760e01b1490505f6102e2565b6303a24d0760e21b811491506102db565b346102195760203660031901126102195760043567ffffffffffffffff811161021957366023820112156102195780600401359067ffffffffffffffff8211610219573660248383010111610219576103749161036a611147565b6024369201610801565b805167ffffffffffffffff8111610452576103998161039460025461116e565b6111a6565b602091601f82116001146103d7576103c7925f91836103cc575b50508160011b915f199060031b1c19161790565b600255005b015190505f806103b3565b60025f52601f198216927f405787fa12a823e0f2b7631cc41b3ba8828b3321ca811111fa75cd3aa3bb5ace915f5b85811061043a57508360019510610422575b505050811b01600255005b01515f1960f88460031b161c191690555f8080610417565b91926020600181928685015181550194019201610405565b634e487b7160e01b5f52604160045260245ffd5b90601f8019910116810190811067ffffffffffffffff82111761045257604052565b67ffffffffffffffff811161045257601f01601f191660200190565b604051906104b3602083610466565b5f8252565b805180835260209291819084018484015e5f828201840152601f01601f1916010190565b34610219575f366003190112610219576105296040516104fd604082610466565b600b81526a131a5b14dd185c8814d09560aa1b60208201526040519182916020835260208301906104b8565b0390f35b34610219575f36600319011261021957602061056760035461ffff61055c818360b01c16828460a01c16610e50565b9160c01c1690610e50565b61ffff60405191168152f35b3461021957602036600319011261021957610529610592600435610e7d565b6040519182916020835260208301906104b8565b34610219576060366003190112610219576105bf610203565b602435906044356001600160a01b0382169133839003610647575f848152602081815260408083206001600160a01b0385168452909152902082905410610638578161062f7f27b4ed71385e5ca81e996ae03c653748334be8f15590e1a68f1fab3a310b4e229386602094611344565b604051908152a3005b631e9acf1760e31b5f5260045ffd5b63130213c560e21b5f5260045ffd5b346102195760403660031901126102195761066f610203565b6024356004546001600160a01b031633036107555761068d90611539565b8015610746576040516106a1602082610466565b5f81526001600160a01b0383168015610733576106ee8392610529956106e88590604051916001835260208301526040820190600182526001606084015260808301604052565b91611682565b604051600181527f41609a6dac50ea062ed5a87fd1db5de6b5abe79c0246ab99f48011f8e2a76dad90602090a360408051828152602081019290925290918291820190565b632bfa23e760e11b5f525f60045260245ffd5b6318410a3360e31b5f5260045ffd5b631ff58a2f60e01b5f5260045ffd5b34610219575f366003190112610219576004546040516001600160a01b039091168152602090f35b67ffffffffffffffff81116104525760051b60200190565b9080601f830112156102195781356107bb8161078c565b926107c96040519485610466565b81845260208085019260051b82010192831161021957602001905b8282106107f15750505090565b81358152602091820191016107e4565b92919261080d82610488565b9161081b6040519384610466565b829481845281830111610219578281602093845f960137010152565b9080601f830112156102195781602061085293359101610801565b90565b346102195760a03660031901126102195761086e610203565b5061087761021d565b5060443567ffffffffffffffff8111610219576108989036906004016107a4565b5060643567ffffffffffffffff8111610219576108b99036906004016107a4565b5060843567ffffffffffffffff8111610219576108da903690600401610837565b50610f7a565b34610219575f36600319011261021957602060405160018152f35b34610219575f36600319011261021957602061ffff60035460b01c16604051908152f35b90602080835192838152019201905f5b81811061093c5750505090565b825184526020938401939092019160010161092f565b90602061085292818152019061091f565b346102195760403660031901126102195760043567ffffffffffffffff81116102195736602382011215610219578060040135906109a08261078c565b916109ae6040519384610466565b8083526024602084019160051b8301019136831161021957602401905b828210610a0c578360243567ffffffffffffffff811161021957610529916109fa610a009236906004016107a4565b90610fb6565b60405191829182610952565b60208091610a1984610233565b8152019101906109cb565b34610219575f36600319011261021957602061ffff60035460a01c16604051908152f35b34610219575f36600319011261021957610a60611147565b600380546001600160a01b031981169091555f906001600160a01b03167f8be0079c531659141344cd1fd0a4f28419497f9722a3daafe3b4186f6b6457e08280a3005b34610219575f36600319011261021957602060405160038152f35b34610219575f3660031901126102195760206040516109c48152f35b34610219575f366003190112610219576003546040516001600160a01b039091168152602090f35b34610219575f36600319011261021957610529604051610b23604082610466565b60088152671314d5105494d09560c21b60208201526040519182916020835260208301906104b8565b3461021957604036600319011261021957610b65610203565b50602435801515036102195763dc8d8db760e01b5f5260045ffd5b34610219576040366003190112610219576004355f818152602081815260408083203384529091529020602435908190541061063857610bc1818333611344565b6040519081527f27b4ed71385e5ca81e996ae03c653748334be8f15590e1a68f1fab3a310b4e2260203392a3005b34610219575f3660031901126102195760206040516103e88152f35b34610219575f36600319011261021957602061ffff60035460c01c16604051908152f35b34610219575f36600319011261021957602060405160028152f35b3461021957602036600319011261021957610c63610203565b610c6b611147565b600480546001600160a01b0319166001600160a01b0392909216919091179055005b346102195760203660031901126102195761052961059260043561106a565b34610219575f36600319011261021957606060035461ffff610cd2818360a01c1661111f565b9181610cf081610ce6818560b01c1661111f565b9360c01c16611133565b918160405195168552166020840152166040820152f35b3461021957604036600319011261021957602060ff610d57610d27610203565b610d2f61021d565b6001600160a01b039182165f9081526001865260408082209290931681526020919091522090565b54166040519015158152f35b346102195760a036600319011261021957610d7c610203565b50610d8561021d565b5060843567ffffffffffffffff811161021957610da6903690600401610837565b5063dc8d8db760e01b5f5260045ffd5b3461021957602036600319011261021957610dcf610203565b610dd7611147565b6001600160a01b03168015610e2957600380546001600160a01b0319811683179091556001600160a01b03167f8be0079c531659141344cd1fd0a4f28419497f9722a3daafe3b4186f6b6457e05f80a3005b631e4fbdf760e01b5f525f60045260245ffd5b634e487b7160e01b5f52601160045260245ffd5b9061ffff8091169116019061ffff8211610e6657565b610e3c565b805191908290602001825e015f815290565b604051905f8260025491610e908361116e565b8083529260018116908115610f5b5750600114610efc575b610eb492500383610466565b815115610ef257610ede91610ee4610ece6108529361128e565b6040519485936020850190610e6b565b90610e6b565b03601f198101835282610466565b50506108526104a4565b509060025f527f405787fa12a823e0f2b7631cc41b3ba8828b3321ca811111fa75cd3aa3bb5ace905f915b818310610f3f575050906020610eb492820101610ea8565b6020919350806001915483858901015201910190918492610f27565b60209250610eb494915060ff191682840152151560051b820101610ea8565b63dc8d8db760e01b5f5260045ffd5b634e487b7160e01b5f52603260045260245ffd5b8051821015610fb15760209160051b010190565b610f89565b91909180518351808203611055575050805190610fd28261078c565b91610fe06040519384610466565b808352610fef601f199161078c565b013660208401375f5b815181101561104e578061103d60019260051b60208082870101519189010151905f918252602082815260408084206001600160a01b03909316845291905290205490565b6110478286610f9d565b5201610ff8565b5090925050565b635b05999160e01b5f5260045260245260445ffd5b600181146110ec57600281146110b857600314611089576108526104a4565b604051611097604082610466565b601181527008ce4caca4092a4984084d8d2dcc884def607b1b602082015290565b506040516110c7604082610466565b60158152740c4c0948131a59995d1a5b5948111a5cd8dbdd5b9d605a1b602082015290565b506040516110fb604082610466565b60148152730d4948131a59995d1a5b5948111a5cd8dbdd5b9d60621b602082015290565b61ffff166109c4039061ffff8211610e6657565b61ffff166103e8039061ffff8211610e6657565b6003546001600160a01b0316330361115b57565b63118cdaa760e01b5f523360045260245ffd5b90600182811c9216801561119c575b602083101461118857565b634e487b7160e01b5f52602260045260245ffd5b91607f169161117d565b601f81116111b2575050565b60025f5260205f20906020601f840160051c830193106111ec575b601f0160051c01905b8181106111e1575050565b5f81556001016111d6565b90915081906111cd565b5f198114610e665760010190565b9061120e82610488565b61121b6040519182610466565b828152809261122c601f1991610488565b0190602036910137565b5f19810191908211610e6657565b811561124e570690565b634e487b7160e01b5f52601260045260245ffd5b6030019081603011610e6657565b91908201809211610e6657565b908151811015610fb1570160200190565b908115611323575f82805b6113045750806112a98492611204565b915b6112b457509150565b6112c06112fd91611236565b936112e96112d96112d3600a8406611262565b60ff1690565b60f81b6001600160f81b03191690565b5f1a6112f5868561127d565b53600a900490565b92836112ab565b929061131261131a916111f6565b93600a900490565b80939193611299565b9050604051611333604082610466565b60018152600360fc1b602082015290565b9091906001600160a01b03811615611514576040519260018452602084015260408301916001835260608401526080830160405260205f6040516113888382610466565b526001600160a01b03821680151595909490868061150d575b610f7a5781518551908181036114f85750505f5b825181101561146c578060051b88858083870101519289010151906113df575b50506001016113b5565b611409876113f4845f525f60205260405f2090565b9060018060a01b03165f5260205260405f2090565b5481811061143557876113f4600195949361142d9303935f525f60205260405f2090565b55905f6113d5565b6040516303dee4c560e01b81526001600160a01b038916600482015260248101919091526044810182905260648101839052608490fd5b5095509150915f9392600183511485146114c4579182015191015160408051928352602083019190915233917fc3d58168c5ae7397731d063d5bbf3d657854427343f4c083240f7aacaa2d0f6291819081015b0390a4565b506114bf7f4a39dc06d4c0dbc64b70af90fd698a233a518aa5d07e595d983b8c0526c8f7fb91604051918291339583611a2d565b635b05999160e01b5f5260045260245260445ffd5b505f6113a1565b626a0d4560e21b5f525f60045260245ffd5b61ffff1661ffff8114610e665760010190565b60035461154d60a082901c61ffff1661111f565b9061156d61156260b083901c61ffff1661111f565b9160c01c61ffff1690565b9261ffff61158c61157d86611133565b6115878587610e50565b610e50565b1680156116795761159c91611244565b9161ffff81168310156115ef57505050506115ea6115c96115c460035461ffff9060a01c1690565b611526565b6003805461ffff60a01b191660a09290921b61ffff60a01b16919091179055565b600190565b611603916115fc91610e50565b61ffff1690565b111561164757506116426116216115c460035461ffff9060b01c1690565b6003805461ffff60b01b191660b09290921b61ffff60b01b16919091179055565b600290565b61165361167491611526565b6003805461ffff60c01b191660c09290921b61ffff60c01b16919091179055565b600390565b50505050505f90565b9392919080518251908181036114f85750506001600160a01b03851693841515935f5b83518110156116fd5780868960019360051b602080828a010151918a010151926116d3575b505050016116a5565b6116f3916113f46116eb925f525f60205260405f2090565b918254611270565b90555f89816116ca565b509390959460018351145f1461178e576020838101518582015160408051928352928201525f9133917fc3d58168c5ae7397731d063d5bbf3d657854427343f4c083240f7aacaa2d0f629190a45b611756575b50505050565b805160010361177e579060208061177595930151910151915f3361198f565b5f808080611750565b611789935f33611860565b611775565b5f6040517f4a39dc06d4c0dbc64b70af90fd698a233a518aa5d07e595d983b8c0526c8f7fb3391806117c1898983611a2d565b0390a461174b565b9081602091031261021957516108528161028f565b6001600160a01b0391821681529116602082015260a06040820181905261085294919391926118239291611815919086019061091f565b90848203606086015261091f565b9160808184039101526104b8565b3d1561185b573d9061184282610488565b916118506040519384610466565b82523d5f602084013e565b606090565b9091949293853b611874575b505050505050565b60209361189691604051968795869563bc197c8160e01b8752600487016117de565b03815f6001600160a01b0387165af15f9181611925575b506118e757506118bb611831565b80519190826118e057632bfa23e760e11b5f526001600160a01b03821660045260245ffd5b6020915001fd5b6001600160e01b0319166343e6837f60e01b0161190a57505f808080808061186c565b632bfa23e760e11b5f526001600160a01b031660045260245ffd5b61194891925060203d60201161194f575b6119408183610466565b8101906117c9565b905f6118ad565b503d611936565b6001600160a01b039182168152911660208201526040810191909152606081019190915260a060808201819052610852929101906104b8565b9091949293853b6119a257505050505050565b6020936119c491604051968795869563f23a6e6160e01b875260048701611956565b03815f6001600160a01b0387165af15f9181611a0c575b506119e957506118bb611831565b6001600160e01b031916630dc5919f60e01b0161190a57505f808080808061186c565b611a2691925060203d60201161194f576119408183610466565b905f6119db565b9091611a446108529360408452604084019061091f565b91602081840391015261091f56fea26469706673582212208aacaf267489e6bcd9a3d22aba3d19ccc63791f3dff2c3bf2f9d4f91fe4fec3d64736f6c634300081c0033",
  "linkReferences": {},
  "deployedLinkReferences": {},
  "immutableReferences": {},
  "inputSourceName": "project/contracts/LilStarSBT.sol",
  "buildInfoId": "solc-0_8_28-0f63261cd5cf169116d49347ce4c58e5ea831aca"
}