{
  "_format": "hh3-artifact-1",
  "contractName": "BlindBox",
  "sourceName": "contracts/BlindBox.sol",
  "abi": [
    {
      "inputs": [
        {
          "internalType": "uint256",
          "name": "_maxSupply",
          "type": "uint256"
        },
        {
          "internalType": "uint256",
          "name": "_mintableSupply",
          "type": "uint256"
        },
        {
          "internalType": "address payable",
          "name": "_withdrawAddress",
          "type": "address"
        }
      ],
      "stateMutability": "nonpayable",
      "type": "constructor"
    },
    {
      "inputs": [],
      "name": "ApprovalCallerNotOwnerNorApproved",
      "type": "error"
    },
    {
      "inputs": [],
      "name": "ApprovalQueryForNonexistentToken",
      "type": "error"
    },
    {
      "inputs": [],
      "name": "BalanceQueryForZeroAddress",
      "type": "error"
    },
    {
      "inputs": [],
      "name": "ChunkAlreadyProcessed",
      "type": "error"
    },
    {
      "inputs": [],
      "name": "ECDSAInvalidSignature",
      "type": "error"
    },
    {
      "inputs": [
        {
          "internalType": "uint256",
          "name": "length",
          "type": "uint256"
        }
      ],
      "name": "ECDSAInvalidSignatureLength",
      "type": "error"
    },
    {
      "inputs": [
        {
          "internalType": "bytes32",
          "name": "s",
          "type": "bytes32"
        }
      ],
      "name": "ECDSAInvalidSignatureS",
      "type": "error"
    },
    {
      "inputs": [
        {
          "internalType": "uint256",
          "name": "numerator",
          "type": "uint256"
        },
        {
          "internalType": "uint256",
          "name": "denominator",
          "type": "uint256"
        }
      ],
      "name": "ERC2981InvalidDefaultRoyalty",
      "type": "error"
    },
    {
      "inputs": [
        {
          "internalType": "address",
          "name": "receiver",
          "type": "address"
        }
      ],
      "name": "ERC2981InvalidDefaultRoyaltyReceiver",
      "type": "error"
    },
    {
      "inputs": [
        {
          "internalType": "uint256",
          "name": "tokenId",
          "type": "uint256"
        },
        {
          "internalType": "uint256",
          "name": "numerator",
          "type": "uint256"
        },
        {
          "internalType": "uint256",
          "name": "denominator",
          "type": "uint256"
        }
      ],
      "name": "ERC2981InvalidTokenRoyalty",
      "type": "error"
    },
    {
      "inputs": [
        {
          "internalType": "uint256",
          "name": "tokenId",
          "type": "uint256"
        },
        {
          "internalType": "address",
          "name": "receiver",
          "type": "address"
        }
      ],
      "name": "ERC2981InvalidTokenRoyaltyReceiver",
      "type": "error"
    },
    {
      "inputs": [],
      "name": "ExceedsMaxPerWallet",
      "type": "error"
    },
    {
      "inputs": [],
      "name": "ForceRedeemBlindBoxOwnerMismatch",
      "type": "error"
    },
    {
      "inputs": [],
      "name": "InitialTransferLockOn",
      "type": "error"
    },
    {
      "inputs": [],
      "name": "InsufficientFunds",
      "type": "error"
    },
    {
      "inputs": [],
      "name": "InvalidContractSetup",
      "type": "error"
    },
    {
      "inputs": [],
      "name": "InvalidSignature",
      "type": "error"
    },
    {
      "inputs": [],
      "name": "LilStarContractNotSet",
      "type": "error"
    },
    {
      "inputs": [],
      "name": "MaxMintableSupplyReached",
      "type": "error"
    },
    {
      "inputs": [],
      "name": "MintERC2309QuantityExceedsLimit",
      "type": "error"
    },
    {
      "inputs": [],
      "name": "MintToZeroAddress",
      "type": "error"
    },
    {
      "inputs": [],
      "name": "MintZeroQuantity",
      "type": "error"
    },
    {
      "inputs": [],
      "name": "MismatchedArrays",
      "type": "error"
    },
    {
      "inputs": [],
      "name": "NotAllowedByRegistry",
      "type": "error"
    },
    {
      "inputs": [],
      "name": "NotCompatibleWithSpotMints",
      "type": "error"
    },
    {
      "inputs": [],
      "name": "OverMaxSupply",
      "type": "error"
    },
    {
      "inputs": [
        {
          "internalType": "address",
          "name": "owner",
          "type": "address"
        }
      ],
      "name": "OwnableInvalidOwner",
      "type": "error"
    },
    {
      "inputs": [
        {
          "internalType": "address",
          "name": "account",
          "type": "address"
        }
      ],
      "name": "OwnableUnauthorizedAccount",
      "type": "error"
    },
    {
      "inputs": [],
      "name": "OwnerQueryForNonexistentToken",
      "type": "error"
    },
    {
      "inputs": [],
      "name": "OwnershipNotInitializedForExtraData",
      "type": "error"
    },
    {
      "inputs": [],
      "name": "PhaseNotOpen",
      "type": "error"
    },
    {
      "inputs": [],
      "name": "RedeemBlindBoxNotOpen",
      "type": "error"
    },
    {
      "inputs": [],
      "name": "RegistryNotSet",
      "type": "error"
    },
    {
      "inputs": [],
      "name": "SequentialMintExceedsLimit",
      "type": "error"
    },
    {
      "inputs": [],
      "name": "SequentialUpToTooSmall",
      "type": "error"
    },
    {
      "inputs": [],
      "name": "SpotMintTokenIdTooSmall",
      "type": "error"
    },
    {
      "inputs": [],
      "name": "TokenAlreadyExists",
      "type": "error"
    },
    {
      "inputs": [],
      "name": "TransferCallerNotOwnerNorApproved",
      "type": "error"
    },
    {
      "inputs": [],
      "name": "TransferFromIncorrectOwner",
      "type": "error"
    },
    {
      "inputs": [],
      "name": "TransferToNonERC721ReceiverImplementer",
      "type": "error"
    },
    {
      "inputs": [],
      "name": "TransferToZeroAddress",
      "type": "error"
    },
    {
      "inputs": [],
      "name": "URIQueryForNonexistentToken",
      "type": "error"
    },
    {
      "inputs": [],
      "name": "WithdrawFailed",
      "type": "error"
    },
    {
      "anonymous": false,
      "inputs": [
        {
          "indexed": true,
          "internalType": "uint256",
          "name": "chunkNum",
          "type": "uint256"
        }
      ],
      "name": "AirdroppedChunk",
      "type": "event"
    },
    {
      "anonymous": false,
      "inputs": [
        {
          "indexed": true,
          "internalType": "address",
          "name": "owner",
          "type": "address"
        },
        {
          "indexed": true,
          "internalType": "address",
          "name": "approved",
          "type": "address"
        },
        {
          "indexed": true,
          "internalType": "uint256",
          "name": "tokenId",
          "type": "uint256"
        }
      ],
      "name": "Approval",
      "type": "event"
    },
    {
      "anonymous": false,
      "inputs": [
        {
          "indexed": true,
          "internalType": "address",
          "name": "owner",
          "type": "address"
        },
        {
          "indexed": true,
          "internalType": "address",
          "name": "operator",
          "type": "address"
        },
        {
          "indexed": false,
          "internalType": "bool",
          "name": "approved",
          "type": "bool"
        }
      ],
      "name": "ApprovalForAll",
      "type": "event"
    },
    {
      "anonymous": false,
      "inputs": [
        {
          "indexed": true,
          "internalType": "uint256",
          "name": "fromTokenId",
          "type": "uint256"
        },
        {
          "indexed": false,
          "internalType": "uint256",
          "name": "toTokenId",
          "type": "uint256"
        },
        {
          "indexed": true,
          "internalType": "address",
          "name": "from",
          "type": "address"
        },
        {
          "indexed": true,
          "internalType": "address",
          "name": "to",
          "type": "address"
        }
      ],
      "name": "ConsecutiveTransfer",
      "type": "event"
    },
    {
      "anonymous": false,
      "inputs": [
        {
          "indexed": true,
          "internalType": "address",
          "name": "minter",
          "type": "address"
        },
        {
          "indexed": false,
          "internalType": "uint8",
          "name": "phase",
          "type": "uint8"
        },
        {
          "indexed": false,
          "internalType": "uint16",
          "name": "amount",
          "type": "uint16"
        }
      ],
      "name": "Minted",
      "type": "event"
    },
    {
      "anonymous": false,
      "inputs": [
        {
          "indexed": true,
          "internalType": "address",
          "name": "previousOwner",
          "type": "address"
        },
        {
          "indexed": true,
          "internalType": "address",
          "name": "newOwner",
          "type": "address"
        }
      ],
      "name": "OwnershipTransferred",
      "type": "event"
    },
    {
      "anonymous": false,
      "inputs": [
        {
          "indexed": true,
          "internalType": "address",
          "name": "from",
          "type": "address"
        },
        {
          "indexed": true,
          "internalType": "address",
          "name": "to",
          "type": "address"
        },
        {
          "indexed": true,
          "internalType": "uint256",
          "name": "tokenId",
          "type": "uint256"
        }
      ],
      "name": "Transfer",
      "type": "event"
    },
    {
      "inputs": [],
      "name": "MAX_SUPPLY",
      "outputs": [
        {
          "internalType": "uint256",
          "name": "",
          "type": "uint256"
        }
      ],
      "stateMutability": "view",
      "type": "function"
    },
    {
      "inputs": [],
      "name": "MINTABLE_SUPPLY",
      "outputs": [
        {
          "internalType": "uint256",
          "name": "",
          "type": "uint256"
        }
      ],
      "stateMutability": "view",
      "type": "function"
    },
    {
      "inputs": [],
      "name": "MINT_BATCH_SIZE",
      "outputs": [
        {
          "internalType": "uint256",
          "name": "",
          "type": "uint256"
        }
      ],
      "stateMutability": "view",
      "type": "function"
    },
    {
      "inputs": [],
      "name": "WITHDRAW_ADDRESS",
      "outputs": [
        {
          "internalType": "address payable",
          "name": "",
          "type": "address"
        }
      ],
      "stateMutability": "view",
      "type": "function"
    },
    {
      "inputs": [
        {
          "internalType": "address[]",
          "name": "receivers",
          "type": "address[]"
        },
        {
          "internalType": "uint256[]",
          "name": "amounts",
          "type": "uint256[]"
        },
        {
          "internalType": "uint256",
          "name": "chunkNum",
          "type": "uint256"
        }
      ],
      "name": "airdrop",
      "outputs": [],
      "stateMutability": "nonpayable",
      "type": "function"
    },
    {
      "inputs": [
        {
          "internalType": "address",
          "name": "operator",
          "type": "address"
        },
        {
          "internalType": "uint256",
          "name": "tokenId",
          "type": "uint256"
        }
      ],
      "name": "approve",
      "outputs": [],
      "stateMutability": "payable",
      "type": "function"
    },
    {
      "inputs": [
        {
          "internalType": "address",
          "name": "owner",
          "type": "address"
        }
      ],
      "name": "balanceOf",
      "outputs": [
        {
          "internalType": "uint256",
          "name": "",
          "type": "uint256"
        }
      ],
      "stateMutability": "view",
      "type": "function"
    },
    {
      "inputs": [],
      "name": "breakTransferLock",
      "outputs": [],
      "stateMutability": "nonpayable",
      "type": "function"
    },
    {
      "inputs": [],
      "name": "currentPhase",
      "outputs": [
        {
          "internalType": "enum BlindBox.MintPhase",
          "name": "",
          "type": "uint8"
        }
      ],
      "stateMutability": "view",
      "type": "function"
    },
    {
      "inputs": [
        {
          "internalType": "uint16",
          "name": "amount",
          "type": "uint16"
        }
      ],
      "name": "fcfsMint",
      "outputs": [],
      "stateMutability": "payable",
      "type": "function"
    },
    {
      "inputs": [],
      "name": "fcfsPrice",
      "outputs": [
        {
          "internalType": "uint64",
          "name": "",
          "type": "uint64"
        }
      ],
      "stateMutability": "view",
      "type": "function"
    },
    {
      "inputs": [
        {
          "internalType": "address",
          "name": "blindBoxOwner",
          "type": "address"
        },
        {
          "internalType": "uint256[]",
          "name": "blindBoxIds",
          "type": "uint256[]"
        }
      ],
      "name": "forceRedeemBlindBoxes",
      "outputs": [
        {
          "internalType": "uint256[]",
          "name": "",
          "type": "uint256[]"
        }
      ],
      "stateMutability": "nonpayable",
      "type": "function"
    },
    {
      "inputs": [
        {
          "internalType": "uint256",
          "name": "tokenId",
          "type": "uint256"
        }
      ],
      "name": "getApproved",
      "outputs": [
        {
          "internalType": "address",
          "name": "",
          "type": "address"
        }
      ],
      "stateMutability": "view",
      "type": "function"
    },
    {
      "inputs": [],
      "name": "initialTransferLockOn",
      "outputs": [
        {
          "internalType": "bool",
          "name": "",
          "type": "bool"
        }
      ],
      "stateMutability": "view",
      "type": "function"
    },
    {
      "inputs": [
        {
          "internalType": "address",
          "name": "owner",
          "type": "address"
        },
        {
          "internalType": "address",
          "name": "operator",
          "type": "address"
        }
      ],
      "name": "isApprovedForAll",
      "outputs": [
        {
          "internalType": "bool",
          "name": "",
          "type": "bool"
        }
      ],
      "stateMutability": "view",
      "type": "function"
    },
    {
      "inputs": [],
      "name": "isRegistryActive",
      "outputs": [
        {
          "internalType": "bool",
          "name": "",
          "type": "bool"
        }
      ],
      "stateMutability": "view",
      "type": "function"
    },
    {
      "inputs": [],
      "name": "maxPerWalletFcfs",
      "outputs": [
        {
          "internalType": "uint16",
          "name": "",
          "type": "uint16"
        }
      ],
      "stateMutability": "view",
      "type": "function"
    },
    {
      "inputs": [],
      "name": "maxPerWalletPresale",
      "outputs": [
        {
          "internalType": "uint16",
          "name": "",
          "type": "uint16"
        }
      ],
      "stateMutability": "view",
      "type": "function"
    },
    {
      "inputs": [],
      "name": "maxPerWalletStarlist",
      "outputs": [
        {
          "internalType": "uint16",
          "name": "",
          "type": "uint16"
        }
      ],
      "stateMutability": "view",
      "type": "function"
    },
    {
      "inputs": [
        {
          "internalType": "address",
          "name": "",
          "type": "address"
        }
      ],
      "name": "mintedInFcfs",
      "outputs": [
        {
          "internalType": "uint16",
          "name": "",
          "type": "uint16"
        }
      ],
      "stateMutability": "view",
      "type": "function"
    },
    {
      "inputs": [
        {
          "internalType": "address",
          "name": "",
          "type": "address"
        }
      ],
      "name": "mintedInPresale",
      "outputs": [
        {
          "internalType": "uint16",
          "name": "",
          "type": "uint16"
        }
      ],
      "stateMutability": "view",
      "type": "function"
    },
    {
      "inputs": [
        {
          "internalType": "address",
          "name": "",
          "type": "address"
        }
      ],
      "name": "mintedInStarlist",
      "outputs": [
        {
          "internalType": "uint16",
          "name": "",
          "type": "uint16"
        }
      ],
      "stateMutability": "view",
      "type": "function"
    },
    {
      "inputs": [],
      "name": "name",
      "outputs": [
        {
          "internalType": "string",
          "name": "",
          "type": "string"
        }
      ],
      "stateMutability": "view",
      "type": "function"
    },
    {
      "inputs": [],
      "name": "openRedeemBlindBoxState",
      "outputs": [],
      "stateMutability": "nonpayable",
      "type": "function"
    },
    {
      "inputs": [],
      "name": "operatorFilteringEnabled",
      "outputs": [
        {
          "internalType": "bool",
          "name": "",
          "type": "bool"
        }
      ],
      "stateMutability": "view",
      "type": "function"
    },
    {
      "inputs": [],
      "name": "owner",
      "outputs": [
        {
          "internalType": "address",
          "name": "",
          "type": "address"
        }
      ],
      "stateMutability": "view",
      "type": "function"
    },
    {
      "inputs": [
        {
          "internalType": "uint256",
          "name": "tokenId",
          "type": "uint256"
        }
      ],
      "name": "ownerOf",
      "outputs": [
        {
          "internalType": "address",
          "name": "",
          "type": "address"
        }
      ],
      "stateMutability": "view",
      "type": "function"
    },
    {
      "inputs": [
        {
          "internalType": "uint16",
          "name": "amount",
          "type": "uint16"
        },
        {
          "internalType": "uint16",
          "name": "maxAllowed",
          "type": "uint16"
        },
        {
          "internalType": "bytes",
          "name": "signature",
          "type": "bytes"
        }
      ],
      "name": "presaleMint",
      "outputs": [],
      "stateMutability": "payable",
      "type": "function"
    },
    {
      "inputs": [],
      "name": "presalePrice",
      "outputs": [
        {
          "internalType": "uint64",
          "name": "",
          "type": "uint64"
        }
      ],
      "stateMutability": "view",
      "type": "function"
    },
    {
      "inputs": [
        {
          "internalType": "address[]",
          "name": "receivers",
          "type": "address[]"
        },
        {
          "internalType": "uint256[]",
          "name": "amounts",
          "type": "uint256[]"
        }
      ],
      "name": "privilegedMint",
      "outputs": [],
      "stateMutability": "nonpayable",
      "type": "function"
    },
    {
      "inputs": [
        {
          "internalType": "uint256[]",
          "name": "blindBoxIds",
          "type": "uint256[]"
        }
      ],
      "name": "redeemBlindBoxes",
      "outputs": [
        {
          "internalType": "uint256[]",
          "name": "",
          "type": "uint256[]"
        }
      ],
      "stateMutability": "nonpayable",
      "type": "function"
    },
    {
      "inputs": [],
      "name": "redeemInfo",
      "outputs": [
        {
          "internalType": "bool",
          "name": "redeemBlindBoxOpen",
          "type": "bool"
        },
        {
          "internalType": "address",
          "name": "lilStarContract",
          "type": "address"
        }
      ],
      "stateMutability": "view",
      "type": "function"
    },
    {
      "inputs": [],
      "name": "registryAddress",
      "outputs": [
        {
          "internalType": "address",
          "name": "",
          "type": "address"
        }
      ],
      "stateMutability": "view",
      "type": "function"
    },
    {
      "inputs": [],
      "name": "renounceOwnership",
      "outputs": [],
      "stateMutability": "nonpayable",
      "type": "function"
    },
    {
      "inputs": [
        {
          "internalType": "uint256",
          "name": "tokenId",
          "type": "uint256"
        },
        {
          "internalType": "uint256",
          "name": "salePrice",
          "type": "uint256"
        }
      ],
      "name": "royaltyInfo",
      "outputs": [
        {
          "internalType": "address",
          "name": "receiver",
          "type": "address"
        },
        {
          "internalType": "uint256",
          "name": "amount",
          "type": "uint256"
        }
      ],
      "stateMutability": "view",
      "type": "function"
    },
    {
      "inputs": [
        {
          "internalType": "address",
          "name": "from",
          "type": "address"
        },
        {
          "internalType": "address",
          "name": "to",
          "type": "address"
        },
        {
          "internalType": "uint256",
          "name": "tokenId",
          "type": "uint256"
        }
      ],
      "name": "safeTransferFrom",
      "outputs": [],
      "stateMutability": "payable",
      "type": "function"
    },
    {
      "inputs": [
        {
          "internalType": "address",
          "name": "from",
          "type": "address"
        },
        {
          "internalType": "address",
          "name": "to",
          "type": "address"
        },
        {
          "internalType": "uint256",
          "name": "tokenId",
          "type": "uint256"
        },
        {
          "internalType": "bytes",
          "name": "_data",
          "type": "bytes"
        }
      ],
      "name": "safeTransferFrom",
      "outputs": [],
      "stateMutability": "payable",
      "type": "function"
    },
    {
      "inputs": [
        {
          "internalType": "address",
          "name": "operator",
          "type": "address"
        },
        {
          "internalType": "bool",
          "name": "approved",
          "type": "bool"
        }
      ],
      "name": "setApprovalForAll",
      "outputs": [],
      "stateMutability": "nonpayable",
      "type": "function"
    },
    {
      "inputs": [
        {
          "internalType": "string",
          "name": "baseURI",
          "type": "string"
        }
      ],
      "name": "setBaseURI",
      "outputs": [],
      "stateMutability": "nonpayable",
      "type": "function"
    },
    {
      "inputs": [
        {
          "internalType": "address",
          "name": "receiver",
          "type": "address"
        },
        {
          "internalType": "uint96",
          "name": "feeNumerator",
          "type": "uint96"
        }
      ],
      "name": "setDefaultRoyalty",
      "outputs": [],
      "stateMutability": "nonpayable",
      "type": "function"
    },
    {
      "inputs": [
        {
          "internalType": "bool",
          "name": "_isRegistryActive",
          "type": "bool"
        }
      ],
      "name": "setIsRegistryActive",
      "outputs": [],
      "stateMutability": "nonpayable",
      "type": "function"
    },
    {
      "inputs": [
        {
          "internalType": "address",
          "name": "contractAddress",
          "type": "address"
        }
      ],
      "name": "setLilStarContract",
      "outputs": [],
      "stateMutability": "nonpayable",
      "type": "function"
    },
    {
      "inputs": [
        {
          "internalType": "uint16",
          "name": "_presale",
          "type": "uint16"
        },
        {
          "internalType": "uint16",
          "name": "_starlist",
          "type": "uint16"
        },
        {
          "internalType": "uint16",
          "name": "_fcfs",
          "type": "uint16"
        }
      ],
      "name": "setMaxPerWallet",
      "outputs": [],
      "stateMutability": "nonpayable",
      "type": "function"
    },
    {
      "inputs": [
        {
          "internalType": "address",
          "name": "signer",
          "type": "address"
        }
      ],
      "name": "setOffchainSigner",
      "outputs": [],
      "stateMutability": "nonpayable",
      "type": "function"
    },
    {
      "inputs": [
        {
          "internalType": "bool",
          "name": "value",
          "type": "bool"
        }
      ],
      "name": "setOperatorFilteringEnabled",
      "outputs": [],
      "stateMutability": "nonpayable",
      "type": "function"
    },
    {
      "inputs": [
        {
          "internalType": "enum BlindBox.MintPhase",
          "name": "_phase",
          "type": "uint8"
        }
      ],
      "name": "setPhase",
      "outputs": [],
      "stateMutability": "nonpayable",
      "type": "function"
    },
    {
      "inputs": [
        {
          "internalType": "uint64",
          "name": "_presalePrice",
          "type": "uint64"
        },
        {
          "internalType": "uint64",
          "name": "_starlistPrice",
          "type": "uint64"
        },
        {
          "internalType": "uint64",
          "name": "_fcfsPrice",
          "type": "uint64"
        }
      ],
      "name": "setPrices",
      "outputs": [],
      "stateMutability": "nonpayable",
      "type": "function"
    },
    {
      "inputs": [
        {
          "internalType": "address",
          "name": "_registryAddress",
          "type": "address"
        }
      ],
      "name": "setRegistryAddress",
      "outputs": [],
      "stateMutability": "nonpayable",
      "type": "function"
    },
    {
      "inputs": [
        {
          "internalType": "uint256",
          "name": "tokenId",
          "type": "uint256"
        },
        {
          "internalType": "address",
          "name": "receiver",
          "type": "address"
        },
        {
          "internalType": "uint96",
          "name": "feeNumerator",
          "type": "uint96"
        }
      ],
      "name": "setTokenRoyalty",
      "outputs": [],
      "stateMutability": "nonpayable",
      "type": "function"
    },
    {
      "inputs": [
        {
          "internalType": "uint16",
          "name": "amount",
          "type": "uint16"
        },
        {
          "internalType": "uint16",
          "name": "maxAllowed",
          "type": "uint16"
        },
        {
          "internalType": "bytes",
          "name": "signature",
          "type": "bytes"
        }
      ],
      "name": "starlistMint",
      "outputs": [],
      "stateMutability": "payable",
      "type": "function"
    },
    {
      "inputs": [],
      "name": "starlistPrice",
      "outputs": [
        {
          "internalType": "uint64",
          "name": "",
          "type": "uint64"
        }
      ],
      "stateMutability": "view",
      "type": "function"
    },
    {
      "inputs": [
        {
          "internalType": "bytes4",
          "name": "interfaceId",
          "type": "bytes4"
        }
      ],
      "name": "supportsInterface",
      "outputs": [
        {
          "internalType": "bool",
          "name": "",
          "type": "bool"
        }
      ],
      "stateMutability": "view",
      "type": "function"
    },
    {
      "inputs": [],
      "name": "symbol",
      "outputs": [
        {
          "internalType": "string",
          "name": "",
          "type": "string"
        }
      ],
      "stateMutability": "view",
      "type": "function"
    },
    {
      "inputs": [
        {
          "internalType": "uint256",
          "name": "tokenId",
          "type": "uint256"
        }
      ],
      "name": "tokenURI",
      "outputs": [
        {
          "internalType": "string",
          "name": "",
          "type": "string"
        }
      ],
      "stateMutability": "view",
      "type": "function"
    },
    {
      "inputs": [],
      "name": "totalMintableMinted",
      "outputs": [
        {
          "internalType": "uint16",
          "name": "",
          "type": "uint16"
        }
      ],
      "stateMutability": "view",
      "type": "function"
    },
    {
      "inputs": [],
      "name": "totalSupply",
      "outputs": [
        {
          "internalType": "uint256",
          "name": "result",
          "type": "uint256"
        }
      ],
      "stateMutability": "view",
      "type": "function"
    },
    {
      "inputs": [
        {
          "internalType": "address",
          "name": "from",
          "type": "address"
        },
        {
          "internalType": "address",
          "name": "to",
          "type": "address"
        },
        {
          "internalType": "uint256",
          "name": "tokenId",
          "type": "uint256"
        }
      ],
      "name": "transferFrom",
      "outputs": [],
      "stateMutability": "payable",
      "type": "function"
    },
    {
      "inputs": [
        {
          "internalType": "address",
          "name": "newOwner",
          "type": "address"
        }
      ],
      "name": "transferOwnership",
      "outputs": [],
      "stateMutability": "nonpayable",
      "type": "function"
    },
    {
      "inputs": [],
      "name": "withdraw",
      "outputs": [],
      "stateMutability": "nonpayable",
      "type": "function"
    }
  ],
  "bytecode": "0x60e0604052346100ba576136c46060813803918261001c816100d2565b9384928339810103126100ba578051602082015160409092015190916001600160a01b03821682036100ba576100519261011e565b6040516131cb90816104f982396080518181816109fc01528181610e1c015281816110bd015281816115870152818161187b01526119d9015260a0518181816109c10152818161154c0152818161199e015261228f015260c0518181816108b90152610fff0152f35b5f80fd5b634e487b7160e01b5f52604160045260245ffd5b6040519190601f01601f191682016001600160401b038111838210176100f757604052565b6100be565b61010660406100d2565b9060088252565b61011760406100d2565b9060048252565b916101276100fc565b67084d8d2dcc884def60c31b602082015261014061010d565b63084849eb60e31b602082015233156102435760028054336001600160a01b0319821681179092556101a9936101a49290916001600160a01b03167f8be0079c531659141344cd1fd0a4f28419497f9722a3daafe3b4186f6b6457e05f80a36102dd565b6103c2565b6101b25f600355565b6101c4600160ff19600e541617600e55565b6101d861010061ff0019600e541617600e55565b6101e962ff000019600e5416600e55565b600f805465ffffffffffff60c01b191664020003000560c01b179055608083905260a082905260c05210156102345761022061049b565b610232600160ff19600e541617600e55565b565b634808530f60e11b5f5260045ffd5b631e4fbdf760e01b5f525f60045260245ffd5b90600182811c92168015610284575b602083101461027057565b634e487b7160e01b5f52602260045260245ffd5b91607f1691610265565b601f821161029b57505050565b5f5260205f20906020601f840160051c830193106102d3575b601f0160051c01905b8181106102c8575050565b5f81556001016102bd565b90915081906102b4565b80519091906001600160401b0381116100f757610306816102ff600554610256565b600561028e565b602092601f821160011461034657610336929382915f9261033b575b50508160011b915f199060031b1c19161790565b600555565b015190505f80610322565b60055f52601f198216937f036b6384b5eca791c62761152d0c79bb0604c104a5fb6f4eb0703f3154bb3db0915f5b8681106103aa5750836001959610610392575b505050811b01600555565b01515f1960f88460031b161c191690555f8080610387565b91926020600181928685015181550194019201610374565b80519091906001600160401b0381116100f7576103eb816103e4600654610256565b600661028e565b602092601f821160011461041f5761041a929382915f9261033b5750508160011b915f199060031b1c19161790565b600655565b60065f52601f198216937ff652222313e28459528d920b65115c16c04f3efc82aaedc97be59f3f377c0d3f915f5b868110610483575083600195961061046b575b505050811b01600655565b01515f1960f88460031b161c191690555f8080610460565b9192602060018192868501518155019401920161044d565b633e9f1edf60e11b5f5230600452733cc6cdda760b79bafa08df41ecfa224f810dceb660245260045f604481806daaeb6d7670e522a718067333cd4e5af1156104e5575b5f602452565b637d3e3dbe5f5160e01c036104df575f80fdfe60806040526004361015610011575f80fd5b5f3560e01c80620e7fa8146103c357806301ffc9a7146103be57806304634d8d146103b957806304f81b11146103b4578063055ad42e146103af57806306fdde03146103aa578063081812fc146103a5578063095ea7b3146103a0578063122e04a81461039b57806312b3651014610396578063132c7f651461039157806318160ddd1461038c578063230a9b8d1461038757806323b872dd146103825780632a55205a1461037d57806332cb6b0c1461037857806333c1d34e146103735780633ccfd60b1461036e5780634202d18d1461036957806342842e0e1461036457806346fff98d1461035f57806355f804b31461035a5780635654914a146103555780635944c753146103505780635eeeaa5f1461034b57806361092519146103465780636352211e1461034157806367b2aa3e1461033c57806370a0823114610337578063715018a614610332578063731186eb1461032d5780637809c6b1146103285780637bcbf5711461032357806384b0c8871461031e5780638da5cb5b14610319578063914f92ca1461031457806395d89b411461030f57806396609ecb1461030a578063a22cb46514610305578063a36329bb14610300578063ab7b4993146102fb578063abd017ea146102f6578063ac4b7ead146102f1578063adceef07146102ec578063b1f5eb09146102e7578063b6c32637146102e2578063b7c0b8e8146102dd578063b88d4fde146102d8578063c03afb59146102d3578063c29fbad4146102ce578063c87b56dd146102c9578063ca0054d0146102c4578063ded65514146102bf578063dfc2c53c146102ba578063e985e9c5146102b5578063ed9aab51146102b0578063efe7aa49146102ab578063f2fde38b146102a65763fb796e6c146102a1575f80fd5b612402565b612378565b612342565b612316565b6122b2565b612278565b612254565b612208565b6120d1565b6120a8565b61205b565b611ff9565b611f29565b611f05565b611ee1565b611ec6565b611e87565b611e62565b611e12565b611d55565b611c8f565b611c66565b611bc1565b611b36565b611af8565b611ab9565b611a94565b611908565b6117d0565b611775565b61171b565b6116dc565b6116ad565b611664565b6114b6565b611379565b611304565b6111ec565b61115b565b61112d565b611048565b610fe8565b610ea8565b610e05565b610d7f565b610bbf565b610b6f565b610b4d565b61092f565b6108e8565b6108a4565b61079d565b61074e565b610674565b610610565b6105ab565b6104d5565b6103ff565b346103e9575f3660031901126103e95760206001600160401b03600f5416604051908152f35b5f80fd5b6001600160e01b03198116036103e957565b346103e95760203660031901126103e95760043561041c816103ed565b63ffffffff60e01b166301ffc9a760e01b81149081908215610487575b8215610476575b8215610454575b6040518315158152602090f35b63152a902d60e11b149150811561046e575b505f80610447565b90505f610466565b635b5e139f60e01b81149250610440565b6380ac58cd60e01b81149250610439565b6001600160a01b038116036103e957565b602435906001600160601b03821682036103e957565b604435906001600160601b03821682036103e957565b346103e95760403660031901126103e9576004356104f281610498565b6104fa6104a9565b906105036128a3565b6001600160601b038216612710811161059357506001600160a01b038116156105805761055761057e92610547610538611f97565b6001600160a01b039094168452565b6001600160601b03166020830152565b80516020919091015160a01b6001600160a01b0319166001600160a01b0391909116175f55565b005b635b6cc80560e11b5f525f60045260245ffd5b636f483d0960e01b5f5260045261271060245260445ffd5b346103e95760203660031901126103e9576004356105c881610498565b6105d06128a3565b601380546001600160a01b0319166001600160a01b0392909216919091179055005b600411156105fc57565b634e487b7160e01b5f52602160045260245ffd5b346103e9575f3660031901126103e957602060ff600e5460c81c1660405190610638816105f2565b8152f35b805180835260209291819084018484015e5f828201840152601f01601f1916010190565b90602061067192818152019061063c565b90565b346103e9575f3660031901126103e9576040515f60055461069481612424565b808452906001811690811561072a57506001146106cc575b6106c8836106bc81850382611f76565b60405191829182610660565b0390f35b91905060055f527f036b6384b5eca791c62761152d0c79bb0604c104a5fb6f4eb0703f3154bb3db0915f905b808210610710575090915081016020016106bc6106ac565b9192600181602092548385880101520191019092916106f8565b60ff191660208086019190915291151560051b840190910191506106bc90506106ac565b346103e95760203660031901126103e95760043561076b816128ca565b1561078e575f526009602052602060018060a01b0360405f205416604051908152f35b6333d1c03960e21b5f5260045ffd5b60403660031901126103e9576004356107b581610498565b6024359060ff600e5416610896575b60ff600e5460081c16610887576001600160a01b036107e283612ccb565b1690813303610851575b61082181610802855f52600960205260405f2090565b80546001600160a01b0319166001600160a01b03909216919091179055565b6001600160a01b0316907f8c5be1e5ebec7d5bd14f71427d1e84f3dd0314c0f7b2291e5b200ac8c7c3b9255f80a4005b5f828152600a60209081526040808320338452909152902061087d90610879905b5460ff1690565b1590565b156107ec57612910565b630b95754760e31b5f5260045ffd5b61089f81612977565b6107c4565b346103e9575f3660031901126103e9576040517f00000000000000000000000000000000000000000000000000000000000000006001600160a01b03168152602090f35b346103e9575f3660031901126103e957602060ff600e5460081c166040519015158152f35b6004359061ffff821682036103e957565b6044359061ffff821682036103e957565b60203660031901126103e95761094361090d565b600e54600360c882901c60ff16610959816105f2565b03610b3e57335f908152601260205260409020610979905b5461ffff1690565b906109848383612470565b600f54919061ffff61099e60e085901c82165b61ffff1690565b911611610b2f576109bc90849060b81c61ffff16612470565b612470565b61ffff7f0000000000000000000000000000000000000000000000000000000000000000911611610b2057600354906109fa61ffff8516809361248b565b7f000000000000000000000000000000000000000000000000000000000000000010610b115781610a47610a3b610a4c936001600160401b039060801c1690565b6001600160401b031690565b612498565b3410610b0257610a82610a6284610ac194612470565b335f9081526012602052604090205b9061ffff1661ffff19825416179055565b610abb610a9a846109b7600e5461ffff9060b81c1690565b600e805461ffff60b81b191660b89290921b61ffff60b81b16919091179055565b336129b5565b604080516003815261ffff909216602083015233917fcde632791e4917504d9280571a46a92353dfbfba258610d0f4410385b477321c91819081015b0390a2005b63356680b760e01b5f5260045ffd5b634c9c5c3360e11b5f5260045ffd5b63a313e08d60e01b5f5260045ffd5b63c0e54d7360e01b5f5260045ffd5b63d28fdfc160e01b5f5260045ffd5b346103e9575f3660031901126103e95760206003546004549003604051908152f35b346103e9575f3660031901126103e957602061ffff600f5460c01c16604051908152f35b60609060031901126103e957600435610bab81610498565b90602435610bb881610498565b9060443590565b610bc836610b93565b6001600160a01b039092169190338303610d66575b610be682612ccb565b6001600160a01b038116849003610d61575f8381526009602052604090208054610c1f6001600160a01b03871633908114908314171590565b610d1e575b610c2e8487612efa565b610d15575b506001600160a01b0384165f90815260086020526040902080545f190190556001600160a01b0382165f908152600860205260409020805460010190556001600160a01b0382164260a01b17600160e11b17610c97845f52600760205260405f2090565b55600160e11b811615610ccf575b506001600160a01b03169182905f5160206131765f395f51905f525f80a415610cca57005b61293c565b60018301610ce5815f52600760205260405f2090565b5415610cf2575b50610ca5565b6003548114610cec57610d0d905f52600760205260405f2090565b555f80610cec565b5f90555f610c33565b610d5761087961087233610d428a60018060a01b03165f52600a60205260405f2090565b9060018060a01b03165f5260205260405f2090565b15610c245761292d565b61291f565b60ff600e541615610bdd57610d7a33612977565b610bdd565b346103e95760403660031901126103e9576004355f908152600160205260409020546001600160a01b038116906024359060a01c8215610dee575b612710916001600160601b03610dd1921690612498565b604080516001600160a01b03949094168452919004602083015290f35b505f546001600160a01b038116925060a01c610dba565b346103e9575f3660031901126103e95760206040517f00000000000000000000000000000000000000000000000000000000000000008152f35b9181601f840112156103e9578235916001600160401b0383116103e9576020808501948460051b0101116103e957565b60206040818301928281528451809452019201905f5b818110610e925750505090565b8251845260209384019390920191600101610e85565b346103e95760403660031901126103e957600435610ec581610498565b6024356001600160401b0381116103e957610ee4903690600401610e3f565b9190610eee6128a3565b6001600160a01b0382165f5b848110610f9757610f4e5f86868683610f30610f24610f2460145460018060a01b039060081c1690565b6001600160a01b031690565b926040519687958694859363031bdf0160e31b855260048501612557565b03925af18015610f92576106c8915f91610f70575b5060405191829182610e6f565b610f8c91503d805f833e610f848183611f76565b8101906124d4565b82610f63565b612591565b81610fa38287866124bf565b6001600160a01b0390610fb69035612655565b1603610fd95780610fd3610fcd60019388876124bf565b35612a73565b01610efa565b63f86d8a7b60e01b5f5260045ffd5b346103e9575f3660031901126103e9575f808080477f00000000000000000000000000000000000000000000000000000000000000006001600160a01b03165af16110316125b0565b501561103957005b631d42c86760e21b5f5260045ffd5b346103e95760403660031901126103e9576004356001600160401b0381116103e957611078903690600401610e3f565b6024356001600160401b0381116103e957611097903690600401610e3f565b906110a06128a3565b818314801590611125575b611116575f5b8381106110e3576003547f000000000000000000000000000000000000000000000000000000000000000010610b1157005b806111106110f460019387896124bf565b356110fe81610498565b6111098387876124bf565b35906129b5565b016110b1565b63a121188760e01b5f5260045ffd5b5082156110ab565b61057e61113936610b93565b9060405192611149602085611f76565b5f84526126cb565b801515036103e957565b346103e95760203660031901126103e95760043561117881611151565b6111806128a3565b600e5490601882901c6001600160a01b0316156111b05762ff00001990911690151560101b62ff00001617600e55005b630e048e7160e41b5f5260045ffd5b9181601f840112156103e9578235916001600160401b0383116103e957602083818601950101116103e957565b346103e95760203660031901126103e9576004356001600160401b0381116103e95761121c9036906004016111bf565b6112246128a3565b6001600160401b0381116112ff5761124681611241601554612424565b6125df565b5f601f8211600114611283578190611273935f92611278575b50508160011b915f199060031b1c19161790565b601555005b013590505f8061125f565b60155f52601f198216927f55f448fdea98c4d29eb340757ef0a66cd03dbb9538908a6a81d96026b71ec475915f5b8581106112e7575083600195106112ce575b505050811b01601555005b01355f19600384901b60f8161c191690555f80806112c3565b909260206001819286860135815501940191016112b1565b611f62565b346103e95760603660031901126103e95761131d61090d565b60243561ffff811681036103e95761133361091e565b61133b6128a3565b600f549061ffff60e01b9060e01b169261ffff60c01b9060c01b169065ffffffffffff60c01b1916179061ffff60d01b9060d01b161717600f555f80f35b346103e95760603660031901126103e95760043560243561139981610498565b6113a16104bf565b6113a96128a3565b6001600160601b038116612710811161144e57506001600160a01b038216156114375761057e9261140161140f926113f16113e2611f97565b6001600160a01b039096168652565b6001600160601b03166020850152565b5f52600160205260405f2090565b815160209092015160a01b6001600160a01b0319166001600160a01b03909216919091179055565b82634b4f842960e11b5f526004525f60245260445ffd5b8363dfd1fc1b60e01b5f5260045260245261271060445260645ffd5b60606003198201126103e95760043561ffff811681036103e9579160243561ffff811681036103e95791604435906001600160401b0382116103e9576114b2916004016111bf565b9091565b6114bf3661146a565b600e5491929190600260c883901c60ff166114d9816105f2565b03610b3e57335f9081526011602052604090206114f590610971565b936115008686612470565b61ffff808616911611610b2f576115178686612470565b600f54939061ffff61152e60d087901c8216610997565b911611610b2f5761154790879060b81c61ffff16612470565b61ffff7f0000000000000000000000000000000000000000000000000000000000000000911611610b20576003549361158561ffff8816809661248b565b7f000000000000000000000000000000000000000000000000000000000000000010610b11576115cd926115c6610879936115be61262f565b923691611fc3565b9133612c38565b6116555781610a47610a3b6115ec936001600160401b039060401c1690565b3410610b0257610a826116028461161594612470565b335f908152601160205260409020610a71565b604080516002815261ffff909216602083015233917fcde632791e4917504d9280571a46a92353dfbfba258610d0f4410385b477321c9181908101610afd565b638baa579f60e01b5f5260045ffd5b346103e9575f3660031901126103e95761167c6128a3565b601454600881901c6001600160a01b03161561169e5760ff1916600117601455005b63268bbd0b60e11b5f5260045ffd5b346103e95760203660031901126103e95760206001600160a01b036116d3600435612ccb565b16604051908152f35b346103e95760203660031901126103e9576004356116f981610498565b60018060a01b03165f526012602052602061ffff60405f205416604051908152f35b346103e95760203660031901126103e95760043561173881610498565b6001600160a01b03168015611766575f52600860205260206001600160401b0360405f205416604051908152f35b6323d3ad8160e21b5f5260045ffd5b346103e9575f3660031901126103e95761178d6128a3565b600280546001600160a01b031981169091555f906001600160a01b03167f8be0079c531659141344cd1fd0a4f28419497f9722a3daafe3b4186f6b6457e08280a3005b346103e95760603660031901126103e9576004356001600160401b0381116103e957611800903690600401610e3f565b906024356001600160401b0381116103e957611820903690600401610e3f565b6044359361182c6128a3565b611841855f52600d60205260405f2054151590565b6118f95761184e85612f32565b506118576128a3565b8181148015906118f1575b611116575f5b8181106118c5578561187960035490565b7f000000000000000000000000000000000000000000000000000000000000000010610b11577f413cafed652c0749798b60dc0fc27072e4370c1e64b5074b303140f24ccc78fe5f80a2005b806118eb6118d660019385896124bf565b356118e081610498565b6111098387896124bf565b01611868565b508015611862565b639acc88ef60e01b5f5260045ffd5b6119113661146a565b600e5491929190600160c883901c60ff1661192b816105f2565b03610b3e57335f90815260106020526040902061194790610971565b936119528686612470565b61ffff808616911611610b2f576119698686612470565b600f54939061ffff61198060c087901c8216610997565b911611610b2f5761199990879060b81c61ffff16612470565b61ffff7f0000000000000000000000000000000000000000000000000000000000000000911611610b2057600354936119d761ffff8816809661248b565b7f000000000000000000000000000000000000000000000000000000000000000010610b1157611a10926115c6610879936115be61266b565b6116555781610a47610a3b611a2b936001600160401b031690565b3410610b0257610a82611a4184611a5494612470565b335f908152601060205260409020610a71565b604080516001815261ffff909216602083015233917fcde632791e4917504d9280571a46a92353dfbfba258610d0f4410385b477321c9181908101610afd565b346103e9575f3660031901126103e957611aac6128a3565b600e805461ff0019169055005b346103e95760203660031901126103e957600435611ad681610498565b60018060a01b03165f526010602052602061ffff60405f205416604051908152f35b346103e9575f3660031901126103e9576002546040516001600160a01b039091168152602090f35b604435906001600160401b03821682036103e957565b346103e95760603660031901126103e9576004356001600160401b03811681036103e9576024356001600160401b03811681036103e9576fffffffffffffffff0000000000000000611b86611b20565b611b8e6128a3565b6001600160401b03600f54918160801b9060801b169416906001600160401b0360c01b16179160401b161717600f555f80f35b346103e9575f3660031901126103e9576040515f600654611be181612424565b808452906001811690811561072a5750600114611c08576106c8836106bc81850382611f76565b91905060065f527ff652222313e28459528d920b65115c16c04f3efc82aaedc97be59f3f377c0d3f915f905b808210611c4c575090915081016020016106bc6106ac565b919260018160209254838588010152019101909291611c34565b346103e9575f3660031901126103e95760206001600160401b03600f5460801c16604051908152f35b346103e95760403660031901126103e957600435611cac81610498565b60243590611cb982611151565b60ff600e5416611d47575b60ff600e5460081c1661088757335f52600a602052611d0b82611cfa8360405f209060018060a01b03165f5260205260405f2090565b9060ff801983541691151516179055565b60405191151582526001600160a01b03169033907f17307eab39ab6107e8899845ad3d59bd9653f200f220920489ca2b5937696c3190602090a3005b611d5081612977565b611cc4565b346103e95760203660031901126103e9576004356001600160401b0381116103e957611d85903690600401610e3f565b90611d8e612690565b611d9b6108798251151590565b611e03575f5b838110611de657610f4e5f8585611dc7610f24610f24602089015160018060a01b031690565b908360405180968195829463031bdf0160e31b84523360048501612557565b80611dfd611df760019387876124bf565b35612b73565b01611da1565b6307963a8360e51b5f5260045ffd5b346103e95760203660031901126103e957600435611e2f81610498565b611e376128a3565b600e80546301000000600160b81b03191660189290921b6301000000600160b81b0316919091179055005b346103e9575f3660031901126103e957602060ff600e5460101c166040519015158152f35b346103e95760203660031901126103e957600435611ea481610498565b60018060a01b03165f526011602052602061ffff60405f205416604051908152f35b346103e9575f3660031901126103e9576020604051600a8152f35b346103e9575f3660031901126103e957602061ffff600e5460b81c16604051908152f35b346103e9575f3660031901126103e957602061ffff600f5460e01c16604051908152f35b346103e95760203660031901126103e957600435611f4681611151565b611f4e6128a3565b60ff8019600e54169115151617600e555f80f35b634e487b7160e01b5f52604160045260245ffd5b90601f801991011681019081106001600160401b038211176112ff57604052565b60405190611fa6604083611f76565b565b6001600160401b0381116112ff57601f01601f191660200190565b929192611fcf82611fa8565b91611fdd6040519384611f76565b8294818452818301116103e9578281602093845f960137010152565b60803660031901126103e95760043561201181610498565b6024359061201e82610498565b604435606435926001600160401b0384116103e957366023850112156103e95761205561057e943690602481600401359101611fc3565b926126cb565b346103e95760203660031901126103e95760043560048110156103e9576120806128a3565b612089816105f2565b600e805460ff60c81b191660c89290921b60ff60c81b16919091179055005b346103e9575f3660031901126103e95760206001600160401b03600f5460401c16604051908152f35b346103e95760203660031901126103e9576004356120ee816128ca565b156121f957604051601554815f61210483612424565b80835292600181169081156121da575060011461217b575b61212892500382611f76565b805115612169576106bc6121559161215b6121456106c895612e22565b6040519485936020850190612891565b90612891565b03601f198101835282611f76565b50506106c861217661259c565b6106bc565b509060155f527f55f448fdea98c4d29eb340757ef0a66cd03dbb9538908a6a81d96026b71ec475905f915b8183106121be5750509060206121289282010161211c565b60209193508060019154838588010152019101909183926121a6565b6020925061212894915060ff191682840152151560051b82010161211c565b630a14c4b560e41b5f5260045ffd5b346103e95760203660031901126103e95760043561222581610498565b61222d6128a3565b60148054610100600160a81b03191660089290921b610100600160a81b0316919091179055005b346103e9575f3660031901126103e957602061ffff600f5460d01c16604051908152f35b346103e9575f3660031901126103e95760206040517f00000000000000000000000000000000000000000000000000000000000000008152f35b346103e95760403660031901126103e957602060ff61230a6004356122d681610498565b602435906122e382610498565b60018060a01b03165f52600a845260405f209060018060a01b03165f5260205260405f2090565b54166040519015158152f35b346103e9575f3660031901126103e957600e5460405160189190911c6001600160a01b03168152602090f35b346103e9575f3660031901126103e9576014546040805160ff83161515815260089290921c6001600160a01b0316602083015290f35b346103e95760203660031901126103e95760043561239581610498565b61239d6128a3565b6001600160a01b031680156123ef57600280546001600160a01b0319811683179091556001600160a01b03167f8be0079c531659141344cd1fd0a4f28419497f9722a3daafe3b4186f6b6457e05f80a3005b631e4fbdf760e01b5f525f60045260245ffd5b346103e9575f3660031901126103e957602060ff600e54166040519015158152f35b90600182811c92168015612452575b602083101461243e57565b634e487b7160e01b5f52602260045260245ffd5b91607f1691612433565b634e487b7160e01b5f52601160045260245ffd5b9061ffff8091169116019061ffff821161248657565b61245c565b9190820180921161248657565b8181029291811591840414171561248657565b634e487b7160e01b5f52603260045260245ffd5b91908110156124cf5760051b0190565b6124ab565b6020818303126103e9578051906001600160401b0382116103e957019080601f830112156103e9578151916001600160401b0383116112ff578260051b90604051936125236020840186611f76565b84526020808501928201019283116103e957602001905b8282106125475750505090565b815181526020918201910161253a565b6001600160a01b03909116815260406020820181905281018390526001600160fb1b0383116103e95760609260051b809284830137010190565b6040513d5f823e3d90fd5b604051906125ab602083611f76565b5f8252565b3d156125da573d906125c182611fa8565b916125cf6040519384611f76565b82523d5f602084013e565b606090565b601f81116125eb575050565b60155f5260205f20906020601f840160051c83019310612625575b601f0160051c01905b81811061261a575050565b5f815560010161260f565b9091508190612606565b6040519061263e604083611f76565b600882526714d51054931254d560c21b6020830152565b6001600160a01b039061266790612ccb565b1690565b6040519061267a604083611f76565b600782526650524553414c4560c81b6020830152565b60405190604082018281106001600160401b038211176112ff5760405260145460ff81161515835260081c6001600160a01b03166020830152565b909290916001600160a01b038316338103612878575b6126ea82612ccb565b6001600160a01b038116829003610d61575f83815260096020526040902080546127236001600160a01b03851633908114908314171590565b61284a575b6127328885612efa565b612841575b506001600160a01b0382165f90815260086020526040902080545f190190556001600160a01b0386165f908152600860205260409020805460010190556001600160a01b0386164260a01b17600160e11b1761279b845f52600760205260405f2090565b55600160e11b8116156127fb575b506001600160a01b03851690829082905f5160206131765f395f51905f525f80a415610cca57833b6127dc575b50505050565b6127e99361087993612d82565b6127f6575f8080806127d6565b61294b565b60018301612811815f52600760205260405f2090565b541561281e575b506127a9565b600354811461281857612839905f52600760205260405f2090565b555f80612818565b5f90555f612737565b61286e61087961087233610d428860018060a01b03165f52600a60205260405f2090565b156127285761292d565b60ff600e5416156126e15761288c33612977565b6126e1565b805191908290602001825e015f815290565b6002546001600160a01b031633036128b757565b63118cdaa760e01b5f523360045260245ffd5b905f9160035481106128d95750565b9091505b6128ef815f52600760205260405f2090565b548061290457508015612486575f19016128dd565b600160e01b1615919050565b6367d9dca160e11b5f5260045ffd5b62a1148160e81b5f5260045ffd5b632ce44b5f60e11b5f5260045ffd5b633a954ecd60e21b5f5260045ffd5b6368d2bf6b60e11b5f5260045ffd5b622e076360e81b5f5260045ffd5b636f96cda160e11b5f5260045ffd5b69c61711340011223344555f5230601a52603a525f80604460166daaeb6d7670e522a718067333cd4e5afa156129ad575f603a52565b3d5f803e3d5ffd5b600354908215612a64576129c881612e67565b6001600160a01b0381164260a01b6001851460e11b17176129f1835f52600760205260405f2090565b556001600160a01b03165f8181526008602052604090208054680100000000000000018502019055918215612a5f578101909260015b15612a47575b5f84845f5f5160206131765f395f51905f528180a4612a27565b9260010192818403612a2d579250611fa69150600355565b61295a565b63b562e8dd60e01b5f5260045ffd5b5f612a7d82612ccb565b5f83815260096020526040902080546001600160a01b038316929190612aa284612ebc565b612b6a575b506001600160a01b0382165f90815260086020526040902080546001600160801b030190555f8481526007602052604090206001600160a01b0383164260a01b17600360e01b17905b55600160e11b811615612b24575b505f5160206131765f395f51905f528280a4611fa6612b1f60045460010190565b600455565b60018401612b3a815f52600760205260405f2090565b5415612b47575b50612afe565b6003548114612b4157612b62905f52600760205260405f2090565b555f80612b41565b8390555f612aa7565b612b7c81612ccb565b5f8281526009602052604090208054916001600160a01b03811691338085149084141715612c0a575b5f93612bb084612ebc565b612c01575b506001600160a01b0382165f90815260086020526040902080546001600160801b030190556001600160a01b0382164260a01b17600360e01b17612af0855f52600760205260405f2090565b8390555f612bb5565b612c2e61087961087233610d428760018060a01b03165f52600a60205260405f2090565b15612ba55761292d565b612cae92612c7c612cb7959361215b60405193849260208401966001600160601b03199060601b16875261ffff60f01b9060f01b1660348401526036830190612891565b5190207f19457468657265756d205369676e6564204d6573736167653a0a3332000000005f52601c52603c5f2061303d565b90929192613077565b6013546001600160a01b0391821691161490565b612cdd815f52600760205260405f2090565b54908115612cf45750600160e01b81166129685790565b9050600354811015612968575b5f19015f81815260076020526040902054908115612d355750600160e01b81161561067157636f96cda160e11b5f5260045ffd5b9050612d01565b908160209103126103e95751610671816103ed565b6001600160a01b0391821681529116602082015260408101919091526080606082018190526106719291019061063c565b906020925f612daa959360405196879586948593630a85bd0160e11b85523360048601612d51565b03926001600160a01b03165af15f9181612df1575b50612ddb57612dcc6125b0565b8051156127f657805190602001fd5b6001600160e01b031916630a85bd0160e11b1490565b612e1491925060203d602011612e1b575b612e0c8183611f76565b810190612d3c565b905f612dbf565b503d612e02565b9060405160a08101604052600a60808201935f8552935b5f190193603082820601855304928315612e5557600a90612e39565b809350608091030191601f1901918252565b60ff600e5460081c169081612eb4575b81612ea1575b5061088757612e8b33612fbd565b15612e9257565b6326406c5f60e11b5f5260045ffd5b6001600160a01b0316151590505f612e7d565b5f9150612e77565b60ff600e5460081c169081612ee7575b5080612ee0575b61088757612e8b33612fbd565b505f612ed3565b6001600160a01b0316151590505f612ecc565b9060ff600e5460081c169182612f1f575b5081612ea1575061088757612e8b33612fbd565b6001600160a01b0316151591505f612f0b565b5f818152600d6020526040902054612fa357600c54680100000000000000008110156112ff576001810180600c558110156124cf577fdf6966c971051c3d54ec59162606531493a51404a002842f56009d7e5cf4a8c701819055600c545f918252600d602052604090912055600190565b505f90565b908160209103126103e9575161067181611151565b600e5460ff8160101c16612fd2575050600190565b6040516370c5e04560e11b81526001600160a01b039283166004820152916020918391602491839160189190911c165afa908115610f92575f91613014575090565b610671915060203d602011613036575b61302e8183611f76565b810190612fa8565b503d613024565b815191906041830361306d576130669250602082015190606060408401519301515f1a906130f3565b9192909190565b50505f9160029190565b613080816105f2565b80613089575050565b613092816105f2565b600181036130a95763f645eedf60e01b5f5260045ffd5b6130b2816105f2565b600281036130cd575063fce698f760e01b5f5260045260245ffd5b806130d96003926105f2565b146130e15750565b6335e2f38360e21b5f5260045260245ffd5b91907f7fffffffffffffffffffffffffffffff5d576e7357a4501ddfe92f46681b20a0841161316a579160209360809260ff5f9560405194855216868401526040830152606082015282805260015afa15610f92575f516001600160a01b0381161561316057905f905f90565b505f906001905f90565b5050505f916003919056feddf252ad1be2c89b69c2b068fc378daa952ba7f163c4a11628f55a4df523b3efa26469706673582212206cad9206b6d3f776623e3a6732e0af2752386cd03332a7fc9059115f94be56aa64736f6c634300081c0033",
  "linkReferences": {},
  "deployedLinkReferences": {},
  "immutableReferences": {
    "11245": [
      {
        "length": 32,
        "start": 2556
      },
      {
        "length": 32,
        "start": 3612
      },
      {
        "length": 32,
        "start": 4285
      },
      {
        "length": 32,
        "start": 5511
      },
      {
        "length": 32,
        "start": 6267
      },
      {
        "length": 32,
        "start": 6617
      }
    ],
    "11247": [
      {
        "length": 32,
        "start": 2497
      },
      {
        "length": 32,
        "start": 5452
      },
      {
        "length": 32,
        "start": 6558
      },
      {
        "length": 32,
        "start": 8847
      }
    ],
    "11298": [
      {
        "length": 32,
        "start": 2233
      },
      {
        "length": 32,
        "start": 4095
      }
    ]
  },
  "inputSourceName": "project/contracts/BlindBox.sol",
  "buildInfoId": "solc-0_8_28-53f391d94c5435867798ccdcfe4165bc9b5ebb1b"
}