{
  "_format": "hh3-artifact-1",
  "contractName": "LilStarBlindBox",
  "sourceName": "contracts/LilStarBlindBox.sol",
  "abi": [
    {
      "inputs": [
        {
          "internalType": "uint256",
          "name": "_maxSupply",
          "type": "uint256"
        },
        {
          "internalType": "address payable",
          "name": "_withdrawAddress",
          "type": "address"
        }
      ],
      "stateMutability": "nonpayable",
      "type": "constructor"
    },
    {
      "inputs": [],
      "name": "ApprovalCallerNotOwnerNorApproved",
      "type": "error"
    },
    {
      "inputs": [],
      "name": "ApprovalQueryForNonexistentToken",
      "type": "error"
    },
    {
      "inputs": [],
      "name": "BalanceQueryForZeroAddress",
      "type": "error"
    },
    {
      "inputs": [],
      "name": "ChunkAlreadyProcessed",
      "type": "error"
    },
    {
      "inputs": [],
      "name": "ECDSAInvalidSignature",
      "type": "error"
    },
    {
      "inputs": [
        {
          "internalType": "uint256",
          "name": "length",
          "type": "uint256"
        }
      ],
      "name": "ECDSAInvalidSignatureLength",
      "type": "error"
    },
    {
      "inputs": [
        {
          "internalType": "bytes32",
          "name": "s",
          "type": "bytes32"
        }
      ],
      "name": "ECDSAInvalidSignatureS",
      "type": "error"
    },
    {
      "inputs": [
        {
          "internalType": "uint256",
          "name": "numerator",
          "type": "uint256"
        },
        {
          "internalType": "uint256",
          "name": "denominator",
          "type": "uint256"
        }
      ],
      "name": "ERC2981InvalidDefaultRoyalty",
      "type": "error"
    },
    {
      "inputs": [
        {
          "internalType": "address",
          "name": "receiver",
          "type": "address"
        }
      ],
      "name": "ERC2981InvalidDefaultRoyaltyReceiver",
      "type": "error"
    },
    {
      "inputs": [
        {
          "internalType": "uint256",
          "name": "tokenId",
          "type": "uint256"
        },
        {
          "internalType": "uint256",
          "name": "numerator",
          "type": "uint256"
        },
        {
          "internalType": "uint256",
          "name": "denominator",
          "type": "uint256"
        }
      ],
      "name": "ERC2981InvalidTokenRoyalty",
      "type": "error"
    },
    {
      "inputs": [
        {
          "internalType": "uint256",
          "name": "tokenId",
          "type": "uint256"
        },
        {
          "internalType": "address",
          "name": "receiver",
          "type": "address"
        }
      ],
      "name": "ERC2981InvalidTokenRoyaltyReceiver",
      "type": "error"
    },
    {
      "inputs": [],
      "name": "ExceedsMaxPerWallet",
      "type": "error"
    },
    {
      "inputs": [],
      "name": "ForceRedeemBlindBoxOwnerMismatch",
      "type": "error"
    },
    {
      "inputs": [],
      "name": "InitialTransferLockOn",
      "type": "error"
    },
    {
      "inputs": [],
      "name": "InsufficientFunds",
      "type": "error"
    },
    {
      "inputs": [],
      "name": "InvalidSignature",
      "type": "error"
    },
    {
      "inputs": [],
      "name": "LilStarContractNotSet",
      "type": "error"
    },
    {
      "inputs": [],
      "name": "MintERC2309QuantityExceedsLimit",
      "type": "error"
    },
    {
      "inputs": [],
      "name": "MintToZeroAddress",
      "type": "error"
    },
    {
      "inputs": [],
      "name": "MintZeroQuantity",
      "type": "error"
    },
    {
      "inputs": [],
      "name": "MismatchedArrays",
      "type": "error"
    },
    {
      "inputs": [],
      "name": "NotAllowedByRegistry",
      "type": "error"
    },
    {
      "inputs": [],
      "name": "NotCompatibleWithSpotMints",
      "type": "error"
    },
    {
      "inputs": [],
      "name": "OverMaxSupply",
      "type": "error"
    },
    {
      "inputs": [
        {
          "internalType": "address",
          "name": "owner",
          "type": "address"
        }
      ],
      "name": "OwnableInvalidOwner",
      "type": "error"
    },
    {
      "inputs": [
        {
          "internalType": "address",
          "name": "account",
          "type": "address"
        }
      ],
      "name": "OwnableUnauthorizedAccount",
      "type": "error"
    },
    {
      "inputs": [],
      "name": "OwnerQueryForNonexistentToken",
      "type": "error"
    },
    {
      "inputs": [],
      "name": "OwnershipNotInitializedForExtraData",
      "type": "error"
    },
    {
      "inputs": [],
      "name": "PhaseNotOpen",
      "type": "error"
    },
    {
      "inputs": [],
      "name": "RedeemBlindBoxNotOpen",
      "type": "error"
    },
    {
      "inputs": [],
      "name": "RegistryNotSet",
      "type": "error"
    },
    {
      "inputs": [],
      "name": "SequentialMintExceedsLimit",
      "type": "error"
    },
    {
      "inputs": [],
      "name": "SequentialUpToTooSmall",
      "type": "error"
    },
    {
      "inputs": [],
      "name": "SpotMintTokenIdTooSmall",
      "type": "error"
    },
    {
      "inputs": [],
      "name": "TokenAlreadyExists",
      "type": "error"
    },
    {
      "inputs": [],
      "name": "TransferCallerNotOwnerNorApproved",
      "type": "error"
    },
    {
      "inputs": [],
      "name": "TransferFromIncorrectOwner",
      "type": "error"
    },
    {
      "inputs": [],
      "name": "TransferToNonERC721ReceiverImplementer",
      "type": "error"
    },
    {
      "inputs": [],
      "name": "TransferToZeroAddress",
      "type": "error"
    },
    {
      "inputs": [],
      "name": "URIQueryForNonexistentToken",
      "type": "error"
    },
    {
      "inputs": [],
      "name": "WithdrawFailed",
      "type": "error"
    },
    {
      "anonymous": false,
      "inputs": [
        {
          "indexed": true,
          "internalType": "uint256",
          "name": "chunkNum",
          "type": "uint256"
        }
      ],
      "name": "AirdroppedChunk",
      "type": "event"
    },
    {
      "anonymous": false,
      "inputs": [
        {
          "indexed": true,
          "internalType": "address",
          "name": "owner",
          "type": "address"
        },
        {
          "indexed": true,
          "internalType": "address",
          "name": "approved",
          "type": "address"
        },
        {
          "indexed": true,
          "internalType": "uint256",
          "name": "tokenId",
          "type": "uint256"
        }
      ],
      "name": "Approval",
      "type": "event"
    },
    {
      "anonymous": false,
      "inputs": [
        {
          "indexed": true,
          "internalType": "address",
          "name": "owner",
          "type": "address"
        },
        {
          "indexed": true,
          "internalType": "address",
          "name": "operator",
          "type": "address"
        },
        {
          "indexed": false,
          "internalType": "bool",
          "name": "approved",
          "type": "bool"
        }
      ],
      "name": "ApprovalForAll",
      "type": "event"
    },
    {
      "anonymous": false,
      "inputs": [
        {
          "indexed": true,
          "internalType": "uint256",
          "name": "fromTokenId",
          "type": "uint256"
        },
        {
          "indexed": false,
          "internalType": "uint256",
          "name": "toTokenId",
          "type": "uint256"
        },
        {
          "indexed": true,
          "internalType": "address",
          "name": "from",
          "type": "address"
        },
        {
          "indexed": true,
          "internalType": "address",
          "name": "to",
          "type": "address"
        }
      ],
      "name": "ConsecutiveTransfer",
      "type": "event"
    },
    {
      "anonymous": false,
      "inputs": [
        {
          "indexed": true,
          "internalType": "address",
          "name": "minter",
          "type": "address"
        },
        {
          "indexed": false,
          "internalType": "uint8",
          "name": "phase",
          "type": "uint8"
        },
        {
          "indexed": false,
          "internalType": "uint16",
          "name": "amount",
          "type": "uint16"
        }
      ],
      "name": "Minted",
      "type": "event"
    },
    {
      "anonymous": false,
      "inputs": [
        {
          "indexed": true,
          "internalType": "address",
          "name": "previousOwner",
          "type": "address"
        },
        {
          "indexed": true,
          "internalType": "address",
          "name": "newOwner",
          "type": "address"
        }
      ],
      "name": "OwnershipTransferred",
      "type": "event"
    },
    {
      "anonymous": false,
      "inputs": [
        {
          "indexed": true,
          "internalType": "address",
          "name": "from",
          "type": "address"
        },
        {
          "indexed": true,
          "internalType": "address",
          "name": "to",
          "type": "address"
        },
        {
          "indexed": true,
          "internalType": "uint256",
          "name": "tokenId",
          "type": "uint256"
        }
      ],
      "name": "Transfer",
      "type": "event"
    },
    {
      "inputs": [],
      "name": "MAX_SUPPLY",
      "outputs": [
        {
          "internalType": "uint256",
          "name": "",
          "type": "uint256"
        }
      ],
      "stateMutability": "view",
      "type": "function"
    },
    {
      "inputs": [],
      "name": "MINT_BATCH_SIZE",
      "outputs": [
        {
          "internalType": "uint256",
          "name": "",
          "type": "uint256"
        }
      ],
      "stateMutability": "view",
      "type": "function"
    },
    {
      "inputs": [],
      "name": "WITHDRAW_ADDRESS",
      "outputs": [
        {
          "internalType": "address payable",
          "name": "",
          "type": "address"
        }
      ],
      "stateMutability": "view",
      "type": "function"
    },
    {
      "inputs": [
        {
          "internalType": "address[]",
          "name": "receivers",
          "type": "address[]"
        },
        {
          "internalType": "uint256[]",
          "name": "amounts",
          "type": "uint256[]"
        },
        {
          "internalType": "uint256",
          "name": "chunkNum",
          "type": "uint256"
        }
      ],
      "name": "airdrop",
      "outputs": [],
      "stateMutability": "nonpayable",
      "type": "function"
    },
    {
      "inputs": [
        {
          "internalType": "address",
          "name": "operator",
          "type": "address"
        },
        {
          "internalType": "uint256",
          "name": "tokenId",
          "type": "uint256"
        }
      ],
      "name": "approve",
      "outputs": [],
      "stateMutability": "payable",
      "type": "function"
    },
    {
      "inputs": [
        {
          "internalType": "address",
          "name": "owner",
          "type": "address"
        }
      ],
      "name": "balanceOf",
      "outputs": [
        {
          "internalType": "uint256",
          "name": "",
          "type": "uint256"
        }
      ],
      "stateMutability": "view",
      "type": "function"
    },
    {
      "inputs": [],
      "name": "breakTransferLock",
      "outputs": [],
      "stateMutability": "nonpayable",
      "type": "function"
    },
    {
      "inputs": [],
      "name": "currentPhase",
      "outputs": [
        {
          "internalType": "enum LilStarBlindBox.MintPhase",
          "name": "",
          "type": "uint8"
        }
      ],
      "stateMutability": "view",
      "type": "function"
    },
    {
      "inputs": [
        {
          "internalType": "uint16",
          "name": "amount",
          "type": "uint16"
        }
      ],
      "name": "fcfsMint",
      "outputs": [],
      "stateMutability": "payable",
      "type": "function"
    },
    {
      "inputs": [],
      "name": "fcfsPrice",
      "outputs": [
        {
          "internalType": "uint64",
          "name": "",
          "type": "uint64"
        }
      ],
      "stateMutability": "view",
      "type": "function"
    },
    {
      "inputs": [
        {
          "internalType": "address",
          "name": "blindBoxOwner",
          "type": "address"
        },
        {
          "internalType": "uint256[]",
          "name": "blindBoxIds",
          "type": "uint256[]"
        }
      ],
      "name": "forceRedeemBlindBoxes",
      "outputs": [
        {
          "internalType": "uint256[]",
          "name": "",
          "type": "uint256[]"
        }
      ],
      "stateMutability": "nonpayable",
      "type": "function"
    },
    {
      "inputs": [
        {
          "internalType": "uint256",
          "name": "tokenId",
          "type": "uint256"
        }
      ],
      "name": "getApproved",
      "outputs": [
        {
          "internalType": "address",
          "name": "",
          "type": "address"
        }
      ],
      "stateMutability": "view",
      "type": "function"
    },
    {
      "inputs": [],
      "name": "initialTransferLockOn",
      "outputs": [
        {
          "internalType": "bool",
          "name": "",
          "type": "bool"
        }
      ],
      "stateMutability": "view",
      "type": "function"
    },
    {
      "inputs": [
        {
          "internalType": "address",
          "name": "owner",
          "type": "address"
        },
        {
          "internalType": "address",
          "name": "operator",
          "type": "address"
        }
      ],
      "name": "isApprovedForAll",
      "outputs": [
        {
          "internalType": "bool",
          "name": "",
          "type": "bool"
        }
      ],
      "stateMutability": "view",
      "type": "function"
    },
    {
      "inputs": [],
      "name": "isRegistryActive",
      "outputs": [
        {
          "internalType": "bool",
          "name": "",
          "type": "bool"
        }
      ],
      "stateMutability": "view",
      "type": "function"
    },
    {
      "inputs": [],
      "name": "maxPerWalletFcfs",
      "outputs": [
        {
          "internalType": "uint16",
          "name": "",
          "type": "uint16"
        }
      ],
      "stateMutability": "view",
      "type": "function"
    },
    {
      "inputs": [],
      "name": "maxPerWalletPresale",
      "outputs": [
        {
          "internalType": "uint16",
          "name": "",
          "type": "uint16"
        }
      ],
      "stateMutability": "view",
      "type": "function"
    },
    {
      "inputs": [],
      "name": "maxPerWalletStarlist",
      "outputs": [
        {
          "internalType": "uint16",
          "name": "",
          "type": "uint16"
        }
      ],
      "stateMutability": "view",
      "type": "function"
    },
    {
      "inputs": [
        {
          "internalType": "address",
          "name": "",
          "type": "address"
        }
      ],
      "name": "mintedInFcfs",
      "outputs": [
        {
          "internalType": "uint16",
          "name": "",
          "type": "uint16"
        }
      ],
      "stateMutability": "view",
      "type": "function"
    },
    {
      "inputs": [
        {
          "internalType": "address",
          "name": "",
          "type": "address"
        }
      ],
      "name": "mintedInPresale",
      "outputs": [
        {
          "internalType": "uint16",
          "name": "",
          "type": "uint16"
        }
      ],
      "stateMutability": "view",
      "type": "function"
    },
    {
      "inputs": [
        {
          "internalType": "address",
          "name": "",
          "type": "address"
        }
      ],
      "name": "mintedInStarlist",
      "outputs": [
        {
          "internalType": "uint16",
          "name": "",
          "type": "uint16"
        }
      ],
      "stateMutability": "view",
      "type": "function"
    },
    {
      "inputs": [],
      "name": "name",
      "outputs": [
        {
          "internalType": "string",
          "name": "",
          "type": "string"
        }
      ],
      "stateMutability": "view",
      "type": "function"
    },
    {
      "inputs": [],
      "name": "openRedeemBlindBoxState",
      "outputs": [],
      "stateMutability": "nonpayable",
      "type": "function"
    },
    {
      "inputs": [],
      "name": "operatorFilteringEnabled",
      "outputs": [
        {
          "internalType": "bool",
          "name": "",
          "type": "bool"
        }
      ],
      "stateMutability": "view",
      "type": "function"
    },
    {
      "inputs": [],
      "name": "owner",
      "outputs": [
        {
          "internalType": "address",
          "name": "",
          "type": "address"
        }
      ],
      "stateMutability": "view",
      "type": "function"
    },
    {
      "inputs": [
        {
          "internalType": "uint256",
          "name": "tokenId",
          "type": "uint256"
        }
      ],
      "name": "ownerOf",
      "outputs": [
        {
          "internalType": "address",
          "name": "",
          "type": "address"
        }
      ],
      "stateMutability": "view",
      "type": "function"
    },
    {
      "inputs": [
        {
          "internalType": "uint16",
          "name": "amount",
          "type": "uint16"
        },
        {
          "internalType": "uint16",
          "name": "maxAllowed",
          "type": "uint16"
        },
        {
          "internalType": "bytes",
          "name": "signature",
          "type": "bytes"
        }
      ],
      "name": "presaleMint",
      "outputs": [],
      "stateMutability": "payable",
      "type": "function"
    },
    {
      "inputs": [],
      "name": "presalePrice",
      "outputs": [
        {
          "internalType": "uint64",
          "name": "",
          "type": "uint64"
        }
      ],
      "stateMutability": "view",
      "type": "function"
    },
    {
      "inputs": [
        {
          "internalType": "address[]",
          "name": "receivers",
          "type": "address[]"
        },
        {
          "internalType": "uint256[]",
          "name": "amounts",
          "type": "uint256[]"
        }
      ],
      "name": "privilegedMint",
      "outputs": [],
      "stateMutability": "nonpayable",
      "type": "function"
    },
    {
      "inputs": [
        {
          "internalType": "uint256[]",
          "name": "blindBoxIds",
          "type": "uint256[]"
        }
      ],
      "name": "redeemBlindBoxes",
      "outputs": [
        {
          "internalType": "uint256[]",
          "name": "",
          "type": "uint256[]"
        }
      ],
      "stateMutability": "nonpayable",
      "type": "function"
    },
    {
      "inputs": [],
      "name": "redeemInfo",
      "outputs": [
        {
          "internalType": "bool",
          "name": "redeemBlindBoxOpen",
          "type": "bool"
        },
        {
          "internalType": "address",
          "name": "lilStarContract",
          "type": "address"
        }
      ],
      "stateMutability": "view",
      "type": "function"
    },
    {
      "inputs": [],
      "name": "registryAddress",
      "outputs": [
        {
          "internalType": "address",
          "name": "",
          "type": "address"
        }
      ],
      "stateMutability": "view",
      "type": "function"
    },
    {
      "inputs": [],
      "name": "renounceOwnership",
      "outputs": [],
      "stateMutability": "nonpayable",
      "type": "function"
    },
    {
      "inputs": [
        {
          "internalType": "uint256",
          "name": "tokenId",
          "type": "uint256"
        },
        {
          "internalType": "uint256",
          "name": "salePrice",
          "type": "uint256"
        }
      ],
      "name": "royaltyInfo",
      "outputs": [
        {
          "internalType": "address",
          "name": "receiver",
          "type": "address"
        },
        {
          "internalType": "uint256",
          "name": "amount",
          "type": "uint256"
        }
      ],
      "stateMutability": "view",
      "type": "function"
    },
    {
      "inputs": [
        {
          "internalType": "address",
          "name": "from",
          "type": "address"
        },
        {
          "internalType": "address",
          "name": "to",
          "type": "address"
        },
        {
          "internalType": "uint256",
          "name": "tokenId",
          "type": "uint256"
        }
      ],
      "name": "safeTransferFrom",
      "outputs": [],
      "stateMutability": "payable",
      "type": "function"
    },
    {
      "inputs": [
        {
          "internalType": "address",
          "name": "from",
          "type": "address"
        },
        {
          "internalType": "address",
          "name": "to",
          "type": "address"
        },
        {
          "internalType": "uint256",
          "name": "tokenId",
          "type": "uint256"
        },
        {
          "internalType": "bytes",
          "name": "_data",
          "type": "bytes"
        }
      ],
      "name": "safeTransferFrom",
      "outputs": [],
      "stateMutability": "payable",
      "type": "function"
    },
    {
      "inputs": [
        {
          "internalType": "address",
          "name": "operator",
          "type": "address"
        },
        {
          "internalType": "bool",
          "name": "approved",
          "type": "bool"
        }
      ],
      "name": "setApprovalForAll",
      "outputs": [],
      "stateMutability": "nonpayable",
      "type": "function"
    },
    {
      "inputs": [
        {
          "internalType": "string",
          "name": "baseURI",
          "type": "string"
        }
      ],
      "name": "setBaseURI",
      "outputs": [],
      "stateMutability": "nonpayable",
      "type": "function"
    },
    {
      "inputs": [
        {
          "internalType": "address",
          "name": "receiver",
          "type": "address"
        },
        {
          "internalType": "uint96",
          "name": "feeNumerator",
          "type": "uint96"
        }
      ],
      "name": "setDefaultRoyalty",
      "outputs": [],
      "stateMutability": "nonpayable",
      "type": "function"
    },
    {
      "inputs": [
        {
          "internalType": "bool",
          "name": "_isRegistryActive",
          "type": "bool"
        }
      ],
      "name": "setIsRegistryActive",
      "outputs": [],
      "stateMutability": "nonpayable",
      "type": "function"
    },
    {
      "inputs": [
        {
          "internalType": "address",
          "name": "contractAddress",
          "type": "address"
        }
      ],
      "name": "setLilStarContract",
      "outputs": [],
      "stateMutability": "nonpayable",
      "type": "function"
    },
    {
      "inputs": [
        {
          "internalType": "uint16",
          "name": "_presale",
          "type": "uint16"
        },
        {
          "internalType": "uint16",
          "name": "_starlist",
          "type": "uint16"
        },
        {
          "internalType": "uint16",
          "name": "_fcfs",
          "type": "uint16"
        }
      ],
      "name": "setMaxPerWallet",
      "outputs": [],
      "stateMutability": "nonpayable",
      "type": "function"
    },
    {
      "inputs": [
        {
          "internalType": "address",
          "name": "signer",
          "type": "address"
        }
      ],
      "name": "setOffchainSigner",
      "outputs": [],
      "stateMutability": "nonpayable",
      "type": "function"
    },
    {
      "inputs": [
        {
          "internalType": "bool",
          "name": "value",
          "type": "bool"
        }
      ],
      "name": "setOperatorFilteringEnabled",
      "outputs": [],
      "stateMutability": "nonpayable",
      "type": "function"
    },
    {
      "inputs": [
        {
          "internalType": "enum LilStarBlindBox.MintPhase",
          "name": "_phase",
          "type": "uint8"
        }
      ],
      "name": "setPhase",
      "outputs": [],
      "stateMutability": "nonpayable",
      "type": "function"
    },
    {
      "inputs": [
        {
          "internalType": "uint64",
          "name": "_presalePrice",
          "type": "uint64"
        },
        {
          "internalType": "uint64",
          "name": "_starlistPrice",
          "type": "uint64"
        },
        {
          "internalType": "uint64",
          "name": "_fcfsPrice",
          "type": "uint64"
        }
      ],
      "name": "setPrices",
      "outputs": [],
      "stateMutability": "nonpayable",
      "type": "function"
    },
    {
      "inputs": [
        {
          "internalType": "address",
          "name": "_registryAddress",
          "type": "address"
        }
      ],
      "name": "setRegistryAddress",
      "outputs": [],
      "stateMutability": "nonpayable",
      "type": "function"
    },
    {
      "inputs": [
        {
          "internalType": "uint256",
          "name": "tokenId",
          "type": "uint256"
        },
        {
          "internalType": "address",
          "name": "receiver",
          "type": "address"
        },
        {
          "internalType": "uint96",
          "name": "feeNumerator",
          "type": "uint96"
        }
      ],
      "name": "setTokenRoyalty",
      "outputs": [],
      "stateMutability": "nonpayable",
      "type": "function"
    },
    {
      "inputs": [
        {
          "internalType": "uint16",
          "name": "amount",
          "type": "uint16"
        },
        {
          "internalType": "uint16",
          "name": "maxAllowed",
          "type": "uint16"
        },
        {
          "internalType": "bytes",
          "name": "signature",
          "type": "bytes"
        }
      ],
      "name": "starlistMint",
      "outputs": [],
      "stateMutability": "payable",
      "type": "function"
    },
    {
      "inputs": [],
      "name": "starlistPrice",
      "outputs": [
        {
          "internalType": "uint64",
          "name": "",
          "type": "uint64"
        }
      ],
      "stateMutability": "view",
      "type": "function"
    },
    {
      "inputs": [
        {
          "internalType": "bytes4",
          "name": "interfaceId",
          "type": "bytes4"
        }
      ],
      "name": "supportsInterface",
      "outputs": [
        {
          "internalType": "bool",
          "name": "",
          "type": "bool"
        }
      ],
      "stateMutability": "view",
      "type": "function"
    },
    {
      "inputs": [],
      "name": "symbol",
      "outputs": [
        {
          "internalType": "string",
          "name": "",
          "type": "string"
        }
      ],
      "stateMutability": "view",
      "type": "function"
    },
    {
      "inputs": [
        {
          "internalType": "uint256",
          "name": "tokenId",
          "type": "uint256"
        }
      ],
      "name": "tokenURI",
      "outputs": [
        {
          "internalType": "string",
          "name": "",
          "type": "string"
        }
      ],
      "stateMutability": "view",
      "type": "function"
    },
    {
      "inputs": [],
      "name": "totalSupply",
      "outputs": [
        {
          "internalType": "uint256",
          "name": "result",
          "type": "uint256"
        }
      ],
      "stateMutability": "view",
      "type": "function"
    },
    {
      "inputs": [
        {
          "internalType": "address",
          "name": "from",
          "type": "address"
        },
        {
          "internalType": "address",
          "name": "to",
          "type": "address"
        },
        {
          "internalType": "uint256",
          "name": "tokenId",
          "type": "uint256"
        }
      ],
      "name": "transferFrom",
      "outputs": [],
      "stateMutability": "payable",
      "type": "function"
    },
    {
      "inputs": [
        {
          "internalType": "address",
          "name": "newOwner",
          "type": "address"
        }
      ],
      "name": "transferOwnership",
      "outputs": [],
      "stateMutability": "nonpayable",
      "type": "function"
    },
    {
      "inputs": [],
      "name": "withdraw",
      "outputs": [],
      "stateMutability": "nonpayable",
      "type": "function"
    }
  ],
  "bytecode": "0x60c0604052346100955761351b6040813803918261001c816100ad565b9384928339810103126100955780516020909101516001600160a01b03811681036100955761004a916100f9565b60405161305790816104c4823960805181818161099101528181610d690152818161100a0152818161149a0152818161178a01526118ab015260a0518181816108930152610f4c0152f35b5f80fd5b634e487b7160e01b5f52604160045260245ffd5b6040519190601f01601f191682016001600160401b038111838210176100d257604052565b610099565b6100e160406100ad565b9060088252565b6100f260406100ad565b9060048252565b6101016100d7565b67084d8d2dcc884def60c31b602082015261011a6100e8565b63084849eb60e31b6020820152331561020e5760028054336001600160a01b0319821681179092556101839361017e9290916001600160a01b03167f8be0079c531659141344cd1fd0a4f28419497f9722a3daafe3b4186f6b6457e05f80a36102a8565b61038d565b61018c5f600355565b61019e600160ff19600e541617600e55565b6101b261010061ff0019600e541617600e55565b6101c362ff000019600e5416600e55565b600f805465ffffffffffff60801b19167402000300050000000000000000000000000000000017905560805260a0526101fa610466565b61020c600160ff19600e541617600e55565b565b631e4fbdf760e01b5f525f60045260245ffd5b90600182811c9216801561024f575b602083101461023b57565b634e487b7160e01b5f52602260045260245ffd5b91607f1691610230565b601f821161026657505050565b5f5260205f20906020601f840160051c8301931061029e575b601f0160051c01905b818110610293575050565b5f8155600101610288565b909150819061027f565b80519091906001600160401b0381116100d2576102d1816102ca600554610221565b6005610259565b602092601f821160011461031157610301929382915f92610306575b50508160011b915f199060031b1c19161790565b600555565b015190505f806102ed565b60055f52601f198216937f036b6384b5eca791c62761152d0c79bb0604c104a5fb6f4eb0703f3154bb3db0915f5b868110610375575083600195961061035d575b505050811b01600555565b01515f1960f88460031b161c191690555f8080610352565b9192602060018192868501518155019401920161033f565b80519091906001600160401b0381116100d2576103b6816103af600654610221565b6006610259565b602092601f82116001146103ea576103e5929382915f926103065750508160011b915f199060031b1c19161790565b600655565b60065f52601f198216937ff652222313e28459528d920b65115c16c04f3efc82aaedc97be59f3f377c0d3f915f5b86811061044e5750836001959610610436575b505050811b01600655565b01515f1960f88460031b161c191690555f808061042b565b91926020600181928685015181550194019201610418565b633e9f1edf60e11b5f5230600452733cc6cdda760b79bafa08df41ecfa224f810dceb660245260045f604481806daaeb6d7670e522a718067333cd4e5af1156104b0575b5f602452565b637d3e3dbe5f5160e01c036104aa575f80fdfe60806040526004361015610011575f80fd5b5f3560e01c80620e7fa8146103a357806301ffc9a71461039e57806304634d8d1461039957806304f81b1114610394578063055ad42e1461038f57806306fdde031461038a578063081812fc14610385578063095ea7b314610380578063122e04a81461037b57806312b3651014610376578063132c7f651461037157806318160ddd1461036c578063230a9b8d1461036757806323b872dd146103625780632a55205a1461035d57806332cb6b0c1461035857806333c1d34e146103535780633ccfd60b1461034e5780634202d18d1461034957806342842e0e1461034457806346fff98d1461033f57806355f804b31461033a5780635654914a146103355780635944c753146103305780635eeeaa5f1461032b57806361092519146103265780636352211e1461032157806367b2aa3e1461031c57806370a0823114610317578063715018a614610312578063731186eb1461030d5780637809c6b1146103085780637bcbf5711461030357806384b0c887146102fe5780638da5cb5b146102f9578063914f92ca146102f457806395d89b41146102ef57806396609ecb146102ea578063a22cb465146102e5578063a36329bb146102e0578063ab7b4993146102db578063abd017ea146102d6578063ac4b7ead146102d1578063adceef07146102cc578063b6c32637146102c7578063b7c0b8e8146102c2578063b88d4fde146102bd578063c03afb59146102b8578063c29fbad4146102b3578063c87b56dd146102ae578063ca0054d0146102a9578063ded65514146102a4578063e985e9c51461029f578063ed9aab511461029a578063efe7aa4914610295578063f2fde38b146102905763fb796e6c1461028b575f80fd5b61228e565b612204565b6121ce565b6121a2565b61213e565b61211a565b6120ce565b611f97565b611f71565b611f24565b611ec2565b611df2565b611dce565b611db3565b611d74565b611d4f565b611cff565b611c42565b611b7c565b611b53565b611aae565b611a18565b6119c4565b611985565b611960565b611817565b6116df565b611684565b61162a565b6115eb565b6115bc565b611573565b611403565b6112c6565b611251565b611139565b6110a8565b61107a565b610f95565b610f35565b610df5565b610d52565b610ccc565b610b0c565b610abc565b610a9a565b610909565b6108c2565b61087e565b610777565b610728565b61064e565b6105ea565b610585565b6104af565b6103d9565b346103c3575f3660031901126103c3576020600e5460c01c604051908152f35b5f80fd5b6001600160e01b03198116036103c357565b346103c35760203660031901126103c3576004356103f6816103c7565b63ffffffff60e01b166301ffc9a760e01b81149081908215610461575b8215610450575b821561042e575b6040518315158152602090f35b63152a902d60e11b1491508115610448575b505f80610421565b90505f610440565b635b5e139f60e01b8114925061041a565b6380ac58cd60e01b81149250610413565b6001600160a01b038116036103c357565b602435906001600160601b03821682036103c357565b604435906001600160601b03821682036103c357565b346103c35760403660031901126103c3576004356104cc81610472565b6104d4610483565b906104dd61272f565b6001600160601b038216612710811161056d57506001600160a01b0381161561055a5761053161055892610521610512611e60565b6001600160a01b039094168452565b6001600160601b03166020830152565b80516020919091015160a01b6001600160a01b0319166001600160a01b0391909116175f55565b005b635b6cc80560e11b5f525f60045260245ffd5b636f483d0960e01b5f5260045261271060245260445ffd5b346103c35760203660031901126103c3576004356105a281610472565b6105aa61272f565b601380546001600160a01b0319166001600160a01b0392909216919091179055005b600411156105d657565b634e487b7160e01b5f52602160045260245ffd5b346103c3575f3660031901126103c357602060ff600e5460b81c1660405190610612816105cc565b8152f35b805180835260209291819084018484015e5f828201840152601f01601f1916010190565b90602061064b928181520190610616565b90565b346103c3575f3660031901126103c3576040515f60055461066e816122b0565b808452906001811690811561070457506001146106a6575b6106a28361069681850382611e3f565b6040519182918261063a565b0390f35b91905060055f527f036b6384b5eca791c62761152d0c79bb0604c104a5fb6f4eb0703f3154bb3db0915f905b8082106106ea57509091508101602001610696610686565b9192600181602092548385880101520191019092916106d2565b60ff191660208086019190915291151560051b840190910191506106969050610686565b346103c35760203660031901126103c35760043561074581612756565b15610768575f526009602052602060018060a01b0360405f205416604051908152f35b6333d1c03960e21b5f5260045ffd5b60403660031901126103c35760043561078f81610472565b6024359060ff600e5416610870575b60ff600e5460081c16610861576001600160a01b036107bc83612b57565b169081330361082b575b6107fb816107dc855f52600960205260405f2090565b80546001600160a01b0319166001600160a01b03909216919091179055565b6001600160a01b0316907f8c5be1e5ebec7d5bd14f71427d1e84f3dd0314c0f7b2291e5b200ac8c7c3b9255f80a4005b5f828152600a60209081526040808320338452909152902061085790610853905b5460ff1690565b1590565b156107c65761279c565b630b95754760e31b5f5260045ffd5b61087981612803565b61079e565b346103c3575f3660031901126103c3576040517f00000000000000000000000000000000000000000000000000000000000000006001600160a01b03168152602090f35b346103c3575f3660031901126103c357602060ff600e5460081c166040519015158152f35b6004359061ffff821682036103c357565b6044359061ffff821682036103c357565b60203660031901126103c35761091d6108e7565b600e5460039060b81c60ff16610932816105cc565b03610a8b57335f908152601260205260409020610952905b5461ffff1690565b61095c82826122fc565b600f549061ffff61097560a084901c82165b61ffff1690565b911611610a7c576003549061098f61ffff85168093612317565b7f000000000000000000000000000000000000000000000000000000000000000010610a6d57816109dc6109d06109e1936001600160401b039060401c1690565b6001600160401b031690565b612324565b3410610a5e57610a176109f784610a1d946122fc565b335f9081526012602052604090205b9061ffff1661ffff19825416179055565b33612841565b604080516003815261ffff909216602083015233917fcde632791e4917504d9280571a46a92353dfbfba258610d0f4410385b477321c91819081015b0390a2005b63356680b760e01b5f5260045ffd5b634c9c5c3360e11b5f5260045ffd5b63c0e54d7360e01b5f5260045ffd5b63d28fdfc160e01b5f5260045ffd5b346103c3575f3660031901126103c35760206003546004549003604051908152f35b346103c3575f3660031901126103c357602061ffff600f5460801c16604051908152f35b60609060031901126103c357600435610af881610472565b90602435610b0581610472565b9060443590565b610b1536610ae0565b6001600160a01b039092169190338303610cb3575b610b3382612b57565b6001600160a01b038116849003610cae575f8381526009602052604090208054610b6c6001600160a01b03871633908114908314171590565b610c6b575b610b7b8487612d86565b610c62575b506001600160a01b0384165f90815260086020526040902080545f190190556001600160a01b0382165f908152600860205260409020805460010190556001600160a01b0382164260a01b17600160e11b17610be4845f52600760205260405f2090565b55600160e11b811615610c1c575b506001600160a01b03169182905f5160206130025f395f51905f525f80a415610c1757005b6127c8565b60018301610c32815f52600760205260405f2090565b5415610c3f575b50610bf2565b6003548114610c3957610c5a905f52600760205260405f2090565b555f80610c39565b5f90555f610b80565b610ca461085361084c33610c8f8a60018060a01b03165f52600a60205260405f2090565b9060018060a01b03165f5260205260405f2090565b15610b71576127b9565b6127ab565b60ff600e541615610b2a57610cc733612803565b610b2a565b346103c35760403660031901126103c3576004355f908152600160205260409020546001600160a01b038116906024359060a01c8215610d3b575b612710916001600160601b03610d1e921690612324565b604080516001600160a01b03949094168452919004602083015290f35b505f546001600160a01b038116925060a01c610d07565b346103c3575f3660031901126103c35760206040517f00000000000000000000000000000000000000000000000000000000000000008152f35b9181601f840112156103c3578235916001600160401b0383116103c3576020808501948460051b0101116103c357565b60206040818301928281528451809452019201905f5b818110610ddf5750505090565b8251845260209384019390920191600101610dd2565b346103c35760403660031901126103c357600435610e1281610472565b6024356001600160401b0381116103c357610e31903690600401610d8c565b9190610e3b61272f565b6001600160a01b0382165f5b848110610ee457610e9b5f86868683610e7d610e71610e7160145460018060a01b039060081c1690565b6001600160a01b031690565b926040519687958694859363031bdf0160e31b8552600485016123e3565b03925af18015610edf576106a2915f91610ebd575b5060405191829182610dbc565b610ed991503d805f833e610ed18183611e3f565b810190612360565b82610eb0565b61241d565b81610ef082878661234b565b6001600160a01b0390610f0390356124e1565b1603610f265780610f20610f1a600193888761234b565b356128ff565b01610e47565b63f86d8a7b60e01b5f5260045ffd5b346103c3575f3660031901126103c3575f808080477f00000000000000000000000000000000000000000000000000000000000000006001600160a01b03165af1610f7e61243c565b5015610f8657005b631d42c86760e21b5f5260045ffd5b346103c35760403660031901126103c3576004356001600160401b0381116103c357610fc5903690600401610d8c565b6024356001600160401b0381116103c357610fe4903690600401610d8c565b90610fed61272f565b818314801590611072575b611063575f5b838110611030576003547f000000000000000000000000000000000000000000000000000000000000000010610a6d57005b8061105d611041600193878961234b565b3561104b81610472565b61105683878761234b565b3590612841565b01610ffe565b63a121188760e01b5f5260045ffd5b508215610ff8565b61055861108636610ae0565b9060405192611096602085611e3f565b5f8452612557565b801515036103c357565b346103c35760203660031901126103c3576004356110c58161109e565b6110cd61272f565b600e5490601882901c6001600160a01b0316156110fd5762ff00001990911690151560101b62ff00001617600e55005b630e048e7160e41b5f5260045ffd5b9181601f840112156103c3578235916001600160401b0383116103c357602083818601950101116103c357565b346103c35760203660031901126103c3576004356001600160401b0381116103c35761116990369060040161110c565b61117161272f565b6001600160401b03811161124c576111938161118e6015546122b0565b61246b565b5f601f82116001146111d05781906111c0935f926111c5575b50508160011b915f199060031b1c19161790565b601555005b013590505f806111ac565b60155f52601f198216927f55f448fdea98c4d29eb340757ef0a66cd03dbb9538908a6a81d96026b71ec475915f5b8581106112345750836001951061121b575b505050811b01601555005b01355f19600384901b60f8161c191690555f8080611210565b909260206001819286860135815501940191016111fe565b611e2b565b346103c35760603660031901126103c35761126a6108e7565b60243561ffff811681036103c3576112806108f8565b61128861272f565b600f549061ffff60a01b9060a01b169261ffff60801b9060801b169065ffffffffffff60801b1916179061ffff60901b9060901b161717600f555f80f35b346103c35760603660031901126103c3576004356024356112e681610472565b6112ee610499565b6112f661272f565b6001600160601b038116612710811161139b57506001600160a01b03821615611384576105589261134e61135c9261133e61132f611e60565b6001600160a01b039096168652565b6001600160601b03166020850152565b5f52600160205260405f2090565b815160209092015160a01b6001600160a01b0319166001600160a01b03909216919091179055565b82634b4f842960e11b5f526004525f60245260445ffd5b8363dfd1fc1b60e01b5f5260045260245261271060445260645ffd5b60606003198201126103c35760043561ffff811681036103c3579160243561ffff811681036103c35791604435906001600160401b0382116103c3576113ff9160040161110c565b9091565b61140c366113b7565b91906002611420600e5460ff9060b81c1690565b611429816105cc565b03610a8b57335f9081526011602052604090206114459061094a565b9261145085856122fc565b61ffff808516911611610a7c5761146785856122fc565b600f54929061ffff61147e609086901c821661096e565b911611610a7c576003549361149861ffff88168096612317565b7f000000000000000000000000000000000000000000000000000000000000000010610a6d576114e0926114d9610853936114d16124bb565b923691611e8c565b9133612ac4565b61156457816109dc6109d06114fb936001600160401b031690565b3410610a5e57610a1761151184611524946122fc565b335f908152601160205260409020610a06565b604080516002815261ffff909216602083015233917fcde632791e4917504d9280571a46a92353dfbfba258610d0f4410385b477321c9181908101610a59565b638baa579f60e01b5f5260045ffd5b346103c3575f3660031901126103c35761158b61272f565b601454600881901c6001600160a01b0316156115ad5760ff1916600117601455005b63268bbd0b60e11b5f5260045ffd5b346103c35760203660031901126103c35760206001600160a01b036115e2600435612b57565b16604051908152f35b346103c35760203660031901126103c35760043561160881610472565b60018060a01b03165f526012602052602061ffff60405f205416604051908152f35b346103c35760203660031901126103c35760043561164781610472565b6001600160a01b03168015611675575f52600860205260206001600160401b0360405f205416604051908152f35b6323d3ad8160e21b5f5260045ffd5b346103c3575f3660031901126103c35761169c61272f565b600280546001600160a01b031981169091555f906001600160a01b03167f8be0079c531659141344cd1fd0a4f28419497f9722a3daafe3b4186f6b6457e08280a3005b346103c35760603660031901126103c3576004356001600160401b0381116103c35761170f903690600401610d8c565b906024356001600160401b0381116103c35761172f903690600401610d8c565b6044359361173b61272f565b611750855f52600d60205260405f2054151590565b6118085761175d85612dbe565b5061176661272f565b818114801590611800575b611063575f5b8181106117d4578561178860035490565b7f000000000000000000000000000000000000000000000000000000000000000010610a6d577f413cafed652c0749798b60dc0fc27072e4370c1e64b5074b303140f24ccc78fe5f80a2005b806117fa6117e5600193858961234b565b356117ef81610472565b61105683878961234b565b01611777565b508015611771565b639acc88ef60e01b5f5260045ffd5b611820366113b7565b600e5491929190600160b883901c60ff1661183a816105cc565b03610a8b57335f9081526010602052604090206118569061094a565b9361186186866122fc565b61ffff808616911611610a7c5761187886866122fc565b61ffff61188f61096e600f5461ffff9060801c1690565b911611610a7c57600354936118a961ffff88168096612317565b7f000000000000000000000000000000000000000000000000000000000000000010610a6d576118e2926114d9610853936114d16124f7565b61156457816109dc6109d06118f79360c01c90565b3410610a5e57610a1761190d84611920946122fc565b335f908152601060205260409020610a06565b604080516001815261ffff909216602083015233917fcde632791e4917504d9280571a46a92353dfbfba258610d0f4410385b477321c9181908101610a59565b346103c3575f3660031901126103c35761197861272f565b600e805461ff0019169055005b346103c35760203660031901126103c3576004356119a281610472565b60018060a01b03165f526010602052602061ffff60405f205416604051908152f35b346103c3575f3660031901126103c3576002546040516001600160a01b039091168152602090f35b602435906001600160401b03821682036103c357565b604435906001600160401b03821682036103c357565b346103c35760603660031901126103c3576004356001600160401b03811681036103c357611a446119ec565b90611a4d611a02565b90611a5661272f565b600e54906001600160401b0360c01b9060c01b169060018060c01b031617600e556001600160401b036fffffffffffffffff0000000000000000600f549260401b169216906001600160801b0319161717600f555f80f35b346103c3575f3660031901126103c3576040515f600654611ace816122b0565b80845290600181169081156107045750600114611af5576106a28361069681850382611e3f565b91905060065f527ff652222313e28459528d920b65115c16c04f3efc82aaedc97be59f3f377c0d3f915f905b808210611b3957509091508101602001610696610686565b919260018160209254838588010152019101909291611b21565b346103c3575f3660031901126103c35760206001600160401b03600f5460401c16604051908152f35b346103c35760403660031901126103c357600435611b9981610472565b60243590611ba68261109e565b60ff600e5416611c34575b60ff600e5460081c1661086157335f52600a602052611bf882611be78360405f209060018060a01b03165f5260205260405f2090565b9060ff801983541691151516179055565b60405191151582526001600160a01b03169033907f17307eab39ab6107e8899845ad3d59bd9653f200f220920489ca2b5937696c3190602090a3005b611c3d81612803565b611bb1565b346103c35760203660031901126103c3576004356001600160401b0381116103c357611c72903690600401610d8c565b90611c7b61251c565b611c886108538251151590565b611cf0575f5b838110611cd357610e9b5f8585611cb4610e71610e71602089015160018060a01b031690565b908360405180968195829463031bdf0160e31b845233600485016123e3565b80611cea611ce4600193878761234b565b356129ff565b01611c8e565b6307963a8360e51b5f5260045ffd5b346103c35760203660031901126103c357600435611d1c81610472565b611d2461272f565b600e80546301000000600160b81b03191660189290921b6301000000600160b81b0316919091179055005b346103c3575f3660031901126103c357602060ff600e5460101c166040519015158152f35b346103c35760203660031901126103c357600435611d9181610472565b60018060a01b03165f526011602052602061ffff60405f205416604051908152f35b346103c3575f3660031901126103c3576020604051600a8152f35b346103c3575f3660031901126103c357602061ffff600f5460a01c16604051908152f35b346103c35760203660031901126103c357600435611e0f8161109e565b611e1761272f565b60ff8019600e54169115151617600e555f80f35b634e487b7160e01b5f52604160045260245ffd5b90601f801991011681019081106001600160401b0382111761124c57604052565b60405190611e6f604083611e3f565b565b6001600160401b03811161124c57601f01601f191660200190565b929192611e9882611e71565b91611ea66040519384611e3f565b8294818452818301116103c3578281602093845f960137010152565b60803660031901126103c357600435611eda81610472565b60243590611ee782610472565b604435606435926001600160401b0384116103c357366023850112156103c357611f1e610558943690602481600401359101611e8c565b92612557565b346103c35760203660031901126103c35760043560048110156103c357611f4961272f565b611f52816105cc565b600e805460ff60b81b191660b89290921b60ff60b81b16919091179055005b346103c3575f3660031901126103c35760206001600160401b03600f5416604051908152f35b346103c35760203660031901126103c357600435611fb481612756565b156120bf57604051601554815f611fca836122b0565b80835292600181169081156120a05750600114612041575b611fee92500382611e3f565b80511561202f5761069661201b9161202161200b6106a295612cae565b604051948593602085019061271d565b9061271d565b03601f198101835282611e3f565b50506106a261203c612428565b610696565b509060155f527f55f448fdea98c4d29eb340757ef0a66cd03dbb9538908a6a81d96026b71ec475905f915b818310612084575050906020611fee92820101611fe2565b602091935080600191548385880101520191019091839261206c565b60209250611fee94915060ff191682840152151560051b820101611fe2565b630a14c4b560e41b5f5260045ffd5b346103c35760203660031901126103c3576004356120eb81610472565b6120f361272f565b60148054610100600160a81b03191660089290921b610100600160a81b0316919091179055005b346103c3575f3660031901126103c357602061ffff600f5460901c16604051908152f35b346103c35760403660031901126103c357602060ff61219660043561216281610472565b6024359061216f82610472565b60018060a01b03165f52600a845260405f209060018060a01b03165f5260205260405f2090565b54166040519015158152f35b346103c3575f3660031901126103c357600e5460405160189190911c6001600160a01b03168152602090f35b346103c3575f3660031901126103c3576014546040805160ff83161515815260089290921c6001600160a01b0316602083015290f35b346103c35760203660031901126103c35760043561222181610472565b61222961272f565b6001600160a01b0316801561227b57600280546001600160a01b0319811683179091556001600160a01b03167f8be0079c531659141344cd1fd0a4f28419497f9722a3daafe3b4186f6b6457e05f80a3005b631e4fbdf760e01b5f525f60045260245ffd5b346103c3575f3660031901126103c357602060ff600e54166040519015158152f35b90600182811c921680156122de575b60208310146122ca57565b634e487b7160e01b5f52602260045260245ffd5b91607f16916122bf565b634e487b7160e01b5f52601160045260245ffd5b9061ffff8091169116019061ffff821161231257565b6122e8565b9190820180921161231257565b8181029291811591840414171561231257565b634e487b7160e01b5f52603260045260245ffd5b919081101561235b5760051b0190565b612337565b6020818303126103c3578051906001600160401b0382116103c357019080601f830112156103c3578151916001600160401b03831161124c578260051b90604051936123af6020840186611e3f565b84526020808501928201019283116103c357602001905b8282106123d35750505090565b81518152602091820191016123c6565b6001600160a01b03909116815260406020820181905281018390526001600160fb1b0383116103c35760609260051b809284830137010190565b6040513d5f823e3d90fd5b60405190612437602083611e3f565b5f8252565b3d15612466573d9061244d82611e71565b9161245b6040519384611e3f565b82523d5f602084013e565b606090565b601f8111612477575050565b60155f5260205f20906020601f840160051c830193106124b1575b601f0160051c01905b8181106124a6575050565b5f815560010161249b565b9091508190612492565b604051906124ca604083611e3f565b600882526714d51054931254d560c21b6020830152565b6001600160a01b03906124f390612b57565b1690565b60405190612506604083611e3f565b600782526650524553414c4560c81b6020830152565b60405190604082018281106001600160401b0382111761124c5760405260145460ff81161515835260081c6001600160a01b03166020830152565b909290916001600160a01b038316338103612704575b61257682612b57565b6001600160a01b038116829003610cae575f83815260096020526040902080546125af6001600160a01b03851633908114908314171590565b6126d6575b6125be8885612d86565b6126cd575b506001600160a01b0382165f90815260086020526040902080545f190190556001600160a01b0386165f908152600860205260409020805460010190556001600160a01b0386164260a01b17600160e11b17612627845f52600760205260405f2090565b55600160e11b811615612687575b506001600160a01b03851690829082905f5160206130025f395f51905f525f80a415610c1757833b612668575b50505050565b6126759361085393612c0e565b612682575f808080612662565b6127d7565b6001830161269d815f52600760205260405f2090565b54156126aa575b50612635565b60035481146126a4576126c5905f52600760205260405f2090565b555f806126a4565b5f90555f6125c3565b6126fa61085361084c33610c8f8860018060a01b03165f52600a60205260405f2090565b156125b4576127b9565b60ff600e54161561256d5761271833612803565b61256d565b805191908290602001825e015f815290565b6002546001600160a01b0316330361274357565b63118cdaa760e01b5f523360045260245ffd5b905f9160035481106127655750565b9091505b61277b815f52600760205260405f2090565b548061279057508015612312575f1901612769565b600160e01b1615919050565b6367d9dca160e11b5f5260045ffd5b62a1148160e81b5f5260045ffd5b632ce44b5f60e11b5f5260045ffd5b633a954ecd60e21b5f5260045ffd5b6368d2bf6b60e11b5f5260045ffd5b622e076360e81b5f5260045ffd5b636f96cda160e11b5f5260045ffd5b69c61711340011223344555f5230601a52603a525f80604460166daaeb6d7670e522a718067333cd4e5afa15612839575f603a52565b3d5f803e3d5ffd5b6003549082156128f05761285481612cf3565b6001600160a01b0381164260a01b6001851460e11b171761287d835f52600760205260405f2090565b556001600160a01b03165f81815260086020526040902080546801000000000000000185020190559182156128eb578101909260015b156128d3575b5f84845f5f5160206130025f395f51905f528180a46128b3565b92600101928184036128b9579250611e6f9150600355565b6127e6565b63b562e8dd60e01b5f5260045ffd5b5f61290982612b57565b5f83815260096020526040902080546001600160a01b03831692919061292e84612d48565b6129f6575b506001600160a01b0382165f90815260086020526040902080546001600160801b030190555f8481526007602052604090206001600160a01b0383164260a01b17600360e01b17905b55600160e11b8116156129b0575b505f5160206130025f395f51905f528280a4611e6f6129ab60045460010190565b600455565b600184016129c6815f52600760205260405f2090565b54156129d3575b5061298a565b60035481146129cd576129ee905f52600760205260405f2090565b555f806129cd565b8390555f612933565b612a0881612b57565b5f8281526009602052604090208054916001600160a01b03811691338085149084141715612a96575b5f93612a3c84612d48565b612a8d575b506001600160a01b0382165f90815260086020526040902080546001600160801b030190556001600160a01b0382164260a01b17600360e01b1761297c855f52600760205260405f2090565b8390555f612a41565b612aba61085361084c33610c8f8760018060a01b03165f52600a60205260405f2090565b15612a31576127b9565b612b3a92612b08612b43959361202160405193849260208401966001600160601b03199060601b16875261ffff60f01b9060f01b166034840152603683019061271d565b5190207f19457468657265756d205369676e6564204d6573736167653a0a3332000000005f52601c52603c5f20612ec9565b90929192612f03565b6013546001600160a01b0391821691161490565b612b69815f52600760205260405f2090565b54908115612b805750600160e01b81166127f45790565b90506003548110156127f4575b5f19015f81815260076020526040902054908115612bc15750600160e01b81161561064b57636f96cda160e11b5f5260045ffd5b9050612b8d565b908160209103126103c3575161064b816103c7565b6001600160a01b03918216815291166020820152604081019190915260806060820181905261064b92910190610616565b906020925f612c36959360405196879586948593630a85bd0160e11b85523360048601612bdd565b03926001600160a01b03165af15f9181612c7d575b50612c6757612c5861243c565b80511561268257805190602001fd5b6001600160e01b031916630a85bd0160e11b1490565b612ca091925060203d602011612ca7575b612c988183611e3f565b810190612bc8565b905f612c4b565b503d612c8e565b9060405160a08101604052600a60808201935f8552935b5f190193603082820601855304928315612ce157600a90612cc5565b809350608091030191601f1901918252565b60ff600e5460081c169081612d40575b81612d2d575b5061086157612d1733612e49565b15612d1e57565b6326406c5f60e11b5f5260045ffd5b6001600160a01b0316151590505f612d09565b5f9150612d03565b60ff600e5460081c169081612d73575b5080612d6c575b61086157612d1733612e49565b505f612d5f565b6001600160a01b0316151590505f612d58565b9060ff600e5460081c169182612dab575b5081612d2d575061086157612d1733612e49565b6001600160a01b0316151591505f612d97565b5f818152600d6020526040902054612e2f57600c546801000000000000000081101561124c576001810180600c5581101561235b577fdf6966c971051c3d54ec59162606531493a51404a002842f56009d7e5cf4a8c701819055600c545f918252600d602052604090912055600190565b505f90565b908160209103126103c3575161064b8161109e565b600e5460ff8160101c16612e5e575050600190565b6040516370c5e04560e11b81526001600160a01b039283166004820152916020918391602491839160189190911c165afa908115610edf575f91612ea0575090565b61064b915060203d602011612ec2575b612eba8183611e3f565b810190612e34565b503d612eb0565b8151919060418303612ef957612ef29250602082015190606060408401519301515f1a90612f7f565b9192909190565b50505f9160029190565b612f0c816105cc565b80612f15575050565b612f1e816105cc565b60018103612f355763f645eedf60e01b5f5260045ffd5b612f3e816105cc565b60028103612f59575063fce698f760e01b5f5260045260245ffd5b80612f656003926105cc565b14612f6d5750565b6335e2f38360e21b5f5260045260245ffd5b91907f7fffffffffffffffffffffffffffffff5d576e7357a4501ddfe92f46681b20a08411612ff6579160209360809260ff5f9560405194855216868401526040830152606082015282805260015afa15610edf575f516001600160a01b03811615612fec57905f905f90565b505f906001905f90565b5050505f916003919056feddf252ad1be2c89b69c2b068fc378daa952ba7f163c4a11628f55a4df523b3efa264697066735822122019b06ddbfe55a8d4d1d67a7b4394804ec4437d1211da0f8bbdfd61f15784062364736f6c634300081c0033",
  "linkReferences": {},
  "deployedLinkReferences": {},
  "immutableReferences": {
    "11241": [
      {
        "length": 32,
        "start": 2449
      },
      {
        "length": 32,
        "start": 3433
      },
      {
        "length": 32,
        "start": 4106
      },
      {
        "length": 32,
        "start": 5274
      },
      {
        "length": 32,
        "start": 6026
      },
      {
        "length": 32,
        "start": 6315
      }
    ],
    "11290": [
      {
        "length": 32,
        "start": 2195
      },
      {
        "length": 32,
        "start": 3916
      }
    ]
  },
  "inputSourceName": "project/contracts/LilStarBlindBox.sol",
  "buildInfoId": "solc-0_8_28-0b46c49f5a980afd9435836df4f7dc820249c97d"
}